:020000040800F2
:1000000000C001201D040008756500088565000812
:1000100095650008A5650008B565000800000000AA
:10002000000000000000000000000000C56500089E
:10003000D365000800000000E1650008EF650008D6
:10004000790400087904000879040008790400089C
:10005000790400087904000879040008790400088C
:10006000790400087904000879040008790400087C
:10007000790400087904000879040008790400086C
:10008000790400087904000879040008790400085C
:10009000790400087904000879040008790400084C
:1000A00079040008FD650008790400081966000855
:1000B000790400087904000879040008790400082C
:1000C000790400087904000879040008790400081C
:1000D000790400082D6600087904000879040008F6
:1000E00079040008790400087904000879040008FC
:1000F00079040008790400087904000879040008EC
:1001000079040008790400087904000879040008DB
:100110007904000879040008696600087904000879
:10012000556600087904000879040008790400087D
:1001300079040008790400087904000879040008AB
:10014000790400087904000879040008790400089B
:100150007904000879040008790400084166000861
:10016000790400087904000879040008790400087B
:1001700079040008790400087904000800000000F0
:0801800079040008790400086D
:100188007BB972B90029BEBF00204FF0004106E0DC
:1001980008BF00281CBF6FF000414FF0FF3000F08F
:1001A80057B8ADF1080C6DE904CE002909DB002B26
:1001B8001ADB0BF037FBDDF804E0DDE9022304B0BD
:1001C8007047404261EB4101002B1BDB0BF02AFB1F
:1001D800DDF804E0DDE9022304B0404261EB4101AF
:1001E800524263EB43037047524263EB43030BF005
:1001F80019FBDDF804E0DDE9022304B0404261EBBD
:1002080041017047524263EB43030BF00BFBDDF8EF
:1002180004E0DDE9022304B0524263EB4303704774
:1002280053B94AB9002908BF00281CBF4FF0FF3155
:100238004FF0FF3000F00CB8ADF1080C6DE904CEBA
:100248000BF0F0FADDF804E0DDE9022304B07047B2
:10025800704700BF844641EA000313F003036DD1E1
:10026800403A41D351F8043B40F8043B51F8043B71
:1002780040F8043B51F8043B40F8043B51F8043B78
:1002880040F8043B51F8043B40F8043B51F8043B68
:1002980040F8043B51F8043B40F8043B51F8043B58
:1002A80040F8043B51F8043B40F8043B51F8043B48
:1002B80040F8043B51F8043B40F8043B51F8043B38
:1002C80040F8043B51F8043B40F8043B51F8043B28
:1002D80040F8043B51F8043B40F8043B51F8043B18
:1002E80040F8043B403ABDD2303211D351F8043BB8
:1002F80040F8043B51F8043B40F8043B51F8043BF8
:1003080040F8043B51F8043B40F8043B103AEDD266
:100318000C3205D351F8043B40F8043B043AF9D2B7
:10032800043208D0D2071CBF11F8013B00F8013B8A
:1003380001D30B8803806046704700BF082A13D397
:100348008B078DD010F003038AD0C3F10403D21AAF
:10035800DB071CBF11F8013B00F8013B80D331F8E3
:10036800023B20F8023B7BE7043AD9D3013A11F863
:10037800013B00F8013BF9D20B7803704B784370CE
:100388008B788370604670470348044B834202D0E1
:10039800034B03B118477047740100207401002013
:1003A800000000000548064B1B1AD90F01EBA301FA
:1003B800491002D0034B03B118477047740100205D
:1003C800740100200000000010B5064C237843B9E2
:1003D800FFF7DAFF044B13B10448AFF300800123A1
:1003E800237010BD7801002000000000B8BC000890
:1003F80008B5054B1BB105490548AFF30080BDE8BA
:100408000840FFF7CFBF00BF000000007C010020BC
:10041800B8BC0008DFF834D00D480E490E4A002356
:1004280002E0D458C4500433C4188C42F9D30B4AA0
:100438000B4C002301E013600432A242FBD30948AD
:1004480080470948804709480047000000C001204C
:10045800000000207401002010BD00087801002071
:1004680080160020116C000899BB00087B04000866
:10047800FEE780B500AF06F0D9FB00F051F800F0B8
:1004880037F900F09DFA00F0B9F900F0E1F906F04B
:10049800B1F906F0EFF803F0A9FD06F023FA06F02B
:1004A8005DF901F057FC02F08DF801F0B8FF01F09A
:1004B80053FD03F091F9034683F00103DBB2002BEF
:1004C80001D000F00DF903F057FA034683F0010359
:1004D800DBB2002B01D000F003F903F0D1FF04F0E8
:1004E800BBF904F035FD05F0BFFD05F01FFF02F074
:1004F800BFF801F09AFF01F04BFC01F047FD03F053
:10050800FDFB04F001F804F005FB04F069FD05F0BB
:1005180029FB05F001FE05F0F7FF00BFE7E7000043
:1005280080B594B000AF07F12003302200211846AF
:100538000BF0D6FA07F10C0300221A605A609A6091
:10054800DA601A610023BB60284B1B6C274A43F012
:1005580080531364254B1B6C03F08053BB60BB684E
:1005680000237B60224B1B68214A43F480431360BD
:100578001F4B1B6803F480437B607B6801233B624D
:100588004FF480337B620223BB634FF48003FB6329
:1005980008233B64A8237B640223BB640423FB6415
:1005A80007F12003184607F095FA0346002B01D0FF
:1005B80000F096F80F23FB6002233B6100237B6168
:1005C8004FF4A053BB614FF48053FB6107F10C0358
:1005D8000521184607F0F6FC0346002B01D000F071
:1005E8007FF800BF5037BD4680BD00BF00380240CD
:1005F8000070004080B582B000AF78607B681B68EF
:10060800084A934202D101F0F9FB06E07B681B68B7
:10061800054A934201D102F01FF900BF0837BD46D1
:1006280080BD00BF001001400014014080B582B0B9
:1006380000AF78607B681B68044A934201D102F0DE
:1006480069F900BF0837BD4680BD00BF00140140EE
:1006580080B582B000AF78607B681B680A4A934215
:1006680003D1786801F0E8FB09E07B681B68074A5A
:10067800934204D17B681B6C184602F065F900BFF1
:100688000837BD4680BD00BF00100140001401407E
:1006980080B582B000AF7860786803F007FA00BFD1
:1006A8000837BD4680BD000080B582B000AF7860D5
:1006B8007B681B68084A934203D1786803F004FBFF
:1006C80006E07B681B68054A934201D105F068FD86
:1006D80000BF0837BD4680BD000001400010004043
:1006E80080B500AF72B600BF05F061FD00BFFDE741
:1006F80080B58AB000AF07F1140300221A605A606F
:100708009A60DA601A6100233B61394B1B6B384AE7
:1007180043F080031363364B1B6B03F080033B618C
:100728003B690023FB60324B1B6B314A43F00103EA
:1007380013632F4B1B6B03F00103FB60FB68002363
:10074800BB602B4B1B6B2A4A43F002031363284BF5
:100758001B6B03F00203BB60BB6800237B60244B68
:100768001B6B234A43F010031363214B1B6B03F0ED
:1007780010037B607B6800233B601D4B1B6B1C4A8E
:1007880043F0080313631A4B1B6B03F008033B6029
:100798003B6800224FF48071164807F081F9012266
:1007A8004FF40051144807F07BF94FF480737B61D4
:1007B8000123BB610023FB6100233B6207F11403A3
:1007C80019460C4806F0B8FF4FF400537B6101232B
:1007D800BB610023FB6100233B6207F11403194648
:1007E800054806F0A9FF00BF2837BD4680BD00BFF9
:1007F8000038024000100240000C024080B500AFF3
:10080800114B124A1A60104B4FF416525A600E4B95
:1008180000229A600C4B0022DA600B4B00221A610E
:10082800094B0C225A61084B00229A61064B0022A0
:10083800DA61054807F0E4FD0346002B01D0FFF715
:100848004FFF00BF80BD00BF940100200010014091
:1008580080B500AF114B124A1A60104B4FF4164284
:100868005A600E4B00229A600C4B0022DA600B4B48
:1008780000221A61094B0C225A61084B00229A6126
:10088800064B0022DA61054807F0BAFD0346002B43
:1008980001D0FFF725FF00BF80BD00BFD8010020B1
:1008A8000014014080B58CB000AF786007F11C03DC
:1008B80000221A605A609A60DA601A617B681B68C5
:1008C8003A4A934235D10023BB61394B5B6C384AB5
:1008D80043F010035364364B5B6C03F01003BB61A9
:1008E800BB6900237B61324B1B6B314A43F0010328
:1008F80013632F4B1B6B03F001037B617B694FF480
:10090800C063FB6102233B6200237B620323BB625B
:100918000723FB6207F11C031946264806F00CFF63
:1009280000220A21252006F0CEFA252006F0E7FA53
:1009380038E07B681B68204A934233D100233B612F
:100948001B4B5B6C1A4A43F020035364184B5B6CD7
:1009580003F020033B613B690023FB60144B1B6BD6
:10096800134A43F004031363114B1B6B03F0040396
:10097800FB60FB68C023FB6102233B6200237B62B0
:100988000323BB620823FB6207F11C0319460B48CB
:1009980006F0D2FE00220B21472006F094FA4720E9
:1009A80006F0ADFA00BF3037BD4680BD00100140EB
:1009B80000380240000002400014014000080240D4
:1009C80080B582B000AF00237B600C4B1B6B0B4AD9
:1009D80043F480031363094B1B6B03F480037B60B0
:1009E8007B6800220D21382006F06DFA382006F0C9
:1009F80086FA00BF0837BD4680BD00BF00380240F8
:100A080080B400AF074B1B889AB2074B1B889BB278
:100A18009A420CBF01230023DBB21846BD465DF89D
:100A2800047B70471C0200201E02002080B400AF27
:100A3800094B1B889BB2013303F07F03074A1288D6
:100A480092B293420CBF01230023DBB21846BD4685
:100A58005DF8047B704700BF1C0200201E020020C6
:100A680080B485B000AF0346FB710C4B1B889BB26A
:100A780001339BB203F07F03FB81084B1B889BB2B9
:100A88001946074AFB795354044AFB89138000BF6F
:100A98001437BD465DF8047B704700BF1C02002078
:100AA8002002002080B483B000AF0C4B1B889BB29F
:100AB8001A460B4B9B5CFB71084B1B889BB201339E
:100AC8009BB203F07F039AB2044B1A80FB79184655
:100AD8000C37BD465DF8047B704700BF1E0200203E
:100AE8002002002080B400AF064B00221A70064B8B
:100AF80000221A70054B00221A7000BFBD465DF82F
:100B0800047B7047CA020020C8020020C9020020E6
:100B180080B582B000AF78600B467B807A8864230A
:100B28007968034807F0B9FC00BF0837BD4680BDA7
:100B38009401002080B58CB000AF03463960FB718A
:100B48001346BB71BB79202B01D9002346E0BB7942
:100B5800043387F82D307E233B72FB797B72BB7997
:100B68000233DBB2BB727A7ABB7A134487F82F3030
:100B7800002387F82E301AE097F82E303A681A4486
:100B880097F82E300333127830333B4403F8282C7F
:100B980097F82E303A6813441A7897F82F30134490
:100BA80087F82F3097F82E30013387F82E3097F8D2
:100BB8002E20BB799A42DFD3BB79033330333B44D1
:100BC80097F82F2003F8282C97F82D309AB207F1C0
:100BD800080311461846FFF79BFF012318463037D4
:100BE800BD4680BD80B584B000AF0346FB710B469F
:100BF800BB7113467B71BB793B737B797B7307F1C0
:100C08000C01FB7902221846FFF794FF00BF10374A
:100C1800BD4680BD80B483B000AF0346FB71FB794D
:100C2800042B15D801A252F823F000BF490C000884
:100C38004D0C0008510C0008510C0008550C000818
:100C4800002306E0092304E0052302E0072300E06F
:100C5800062318460C37BD465DF8047B704700BF75
:100C680080B588B000AF07F11403184601F002FC04
:100C780000233B7108237B713B7DBB717B7DFB713E
:100C8800BB7D002B01D0012300E000233B72FB7DDC
:100C9800002B01D0012300E000237B723B7EBB7256
:100CA8007B7EFB727B8BDBB23B737B8B1B0A9BB21D
:100CB800DBB27B73BB8BDBB2BB73BB8B1B0A9BB2F8
:100CC800DBB2FB7300233B7400237B740023BB74EB
:100CD8000023FB743B1D10221946A120FFF72AFFB1
:100CE80000BF2037BD4680BD80B584B000AF7860B6
:100CF8000B46FB70FB78062B05D008220121A220A9
:100D0800FFF770FF46E07B6801331B78FB737B6855
:100D180002331B781AB27B6803331B781BB21B02A1
:100D28001BB213431BB2BB817B6804331B781AB216
:100D38007B6805331B781BB21B021BB213431BB223
:100D48007B81FB7B012B05D1BB89002B08D17B89DB
:100D5800002B05D1FB7B062B08D17B89002B05D006
:100D680008220521A220FFF73DFF13E07A89B989FF
:100D7800FB7B184601F06EFB03467B727B7A1846B4
:100D8800FFF748FF03463B723B7A08221946A22028
:100D9800FFF728FF1037BD4680BD80B483B000AF91
:100DA80078600B467B807B88DAB27B681A707B8818
:100DB8001B0A9AB27B680133D2B21A7000BF0C3793
:100DC800BD465DF8047B704780B483B000AF78609F
:100DD80039603B68DAB27B681A703B681A0A7B682C
:100DE8000133D2B21A703B681A0C7B680233D2B254
:100DF8001A703B681A0E7B680333D2B21A7000BFB0
:100E08000C37BD465DF8047B704780B582B000AFF3
:100E1800786039603B6819467868FFF7D5FF00BFEE
:100E28000837BD4680BD80B58CB000AF07F1180308
:100E3800184605F0C3F900233B7007237B70BB7E7F
:100E4800BB70FB7EFB70FA693B46043311461846BB
:100E5800FFF7DBFF3A6A3B46083311461846FFF7AF
:100E6800D4FF7A6A3B460C3311461846FFF7ACFFAD
:100E78003A8D3B46103311461846FFF78EFF7A8DA0
:100E88003B46123311461846FFF787FF97F82C3078
:100E98003B7597F82D307B7597F82E30BB753B4620
:100EA80017221946A120FFF745FE00BF3037BD467F
:100EB80080BD80B485B000AF78600B46FB70FB78CE
:100EC8007A6813441B781946FB7801337A6813440F
:100ED8001B781B0241EA0302FB78023379680B4452
:100EE8001B781B041A43FB78033379680B441B787F
:100EF8001B061343FB60FB6818461437BD465DF8B4
:100F0800047B704780B483B000AF0346FB71FB7964
:100F1800092B21D801A252F823F000BF4D0F000879
:100F2800610F0008610F0008610F0008610F0008D9
:100F3800550F0008610F00085D0F0008590F0008E1
:100F4800510F0008002308E0092306E0052304E008
:100F5800082302E0072300E00A2318460C37BD46A1
:100F68005DF8047B704700BF80B584B000AF78603F
:100F78000B46FB70FB78012B05D807220121A22024
:100F8800FFF730FE7CE07B6801331B78BB73BB7BCB
:100F9800013B042B64D801A252F823F0B90F0008D2
:100FA800E10F00080910000825100008411000088A
:100FB800FB78062B05D007220121A220FFF712FE9D
:100FC8005EE002217868FFF774FFB860B86805F042
:100FD8007BF90346FB7349E0FB78062B05D0072213
:100FE8000121A220FFF7FEFD4AE002217868FFF701
:100FF80060FFB860B86805F072F90346FB7335E026
:10100800FB78022B05D007220121A220FFF7EAFD79
:1010180036E005F07AF90346FB7327E0FB78022BEC
:1010280005D007220121A220FFF7DCFD28E005F00A
:1010380074F90346FB7319E0FB78062B05D00722E9
:101048000121A220FFF7CEFD1AE002217868FFF700
:1010580030FFB860B86805F04DF90346FB7305E04A
:1010680007220521A220FFF7BDFD09E0FB7B1846FA
:10107800FFF748FF034607221946A220FFF7B2FDF3
:101088001037BD4680BD00BF80B500AF05F062FADD
:101098000346002B0CBF01230023DBB2184680BD9A
:1010A80080B5A0B000AF07F11C03184605F03AFA66
:1010B80000233B7009237B703B7FBB707B7FFB70F9
:1010C800002387F87F30BB7F03F00103002B05D096
:1010D80097F87F3043F0010387F87F30BB7F03F038
:1010E8000803002B05D097F87F3043F0020387F8F8
:1010F8007F30BB7F03F01003002B05D097F87F30BB
:1011080043F0040387F87F3097F83630002B05D07A
:1011180097F87F3043F0080387F87F30BB7F5BB2D6
:10112800002B05DA97F87F3043F0100387F87F30FB
:1011380097F84E30002B05D097F87F3043F0200306
:1011480087F87F3097F84C30082B05D197F87F3017
:1011580043F0400387F87F3097F85030002B05D0D4
:1011680097F87F3063F07F0387F87F3097F87F30F8
:101178003B7197F834307B7197F84C30BB7197F816
:101188002030FB71B7F92430A7F87C30B7F87C30F1
:10119800DBB23B72B7F87C301B0A9BB2DBB27B72C6
:1011A800FB8CDBB2BB72FB8C1B0A9BB2DBB2FB7203
:1011B8003B8FDBB23B733B8F1B0A9BB2DBB27B736B
:1011C8007B8FDBB2BB737B8F1B0A9BB2DBB2FB73DB
:1011D800BB6AA7F87A30B7F87A30DBB23B74B7F855
:1011E8007A301B0A9BB2DBB27B747B6DA7F8783030
:1011F800B7F87830DBB2BB74B7F878301B0A9BB20B
:10120800DBB2FB74B7F93C30A7F87630B7F8763024
:10121800DBB23B75B7F876301B0A9BB2DBB27B7545
:101228003B6EA7F87430B7F87430DBB2BB75B7F80B
:1012380074301B0A9BB2DBB2FB75FB6ADBB23B76F0
:10124800FB6A1B0ADBB27B76FB6A1B0CDBB2BB7644
:10125800FB6A1B0EDBB2FB763B461C221946A1201B
:10126800FFF768FC00BF8037BD4680BD80B584B0FD
:1012780000AF78600B46FB70FB78022B05D0092283
:101288000121A220FFF7AEFC35E07B6801331B7813
:10129800FB73FB7B002B08D0FB7B012B05D00922BD
:1012A8000521A220FFF79EFC25E0FB7B184605F0F0
:1012B8001FF90346BB73BB7B002B05D10922002114
:1012C800A220FFF78FFC16E0BB7B012B05D109227A
:1012D8000521A220FFF786FC0DE0BB7B022B05D180
:1012E80009220721A220FFF77DFC04E009220A2138
:1012F800A220FFF777FC1037BD4680BD80B400AF51
:10130800064B5B6903F40053002B14BF0123002331
:10131800DBB21846BD465DF8047B7047000C0240FE
:1013280080B582B000AF0346FB71FB791A464FF4D3
:1013380000510B4806F0B4FB094B5B6903F40053FA
:10134800002B14BF01230023DBB21A46FB799A4213
:101358000CBF01230023DBB218460837BD4680BD09
:10136800000C024080B5AAB000AF78600B46FB7055
:10137800FB78002B05D100220121A120FFF732FCC8
:1013880010E27B681B7887F8A73097F8A730013BF5
:10139800082B00F2FF8101A252F823F0C9130008BC
:1013A800631400089D140008771500089D160008AE
:1013B800A71500086D1700086717000885170008AB
:1013C800002387F88C30012387F88D3002F074FAF7
:1013D8000346002B01D0012300E0002387F88E305C
:1013E80002F076FAC7F8980002F066FA0346002B76
:1013F80003D002F085FA034602E002F075FA0346CC
:10140800A7F89630D7F89830DBB287F88F30D7F83E
:1014180098301B0ADBB287F89030D7F898301B0C4D
:10142800DBB287F89130D7F898301B0EDBB287F81B
:101438009230B7F89630DBB287F89330B7F8963029
:101448001B0A9BB2DBB287F8943007F18C030922A0
:101458001946A120FFF76EFBA4E1002387F8883026
:10146800022387F8893000F013FE034687F88A3094
:1014780000F01AFE0346002B01D0012300E00023F0
:1014880087F88B3007F1880304221946A120FFF75B
:1014980051FB87E107F10C03184602F08BFD034668
:1014A80083F00103DBB2002B05D003220A21A1201F
:1014B800FFF798FB76E1002387F87C30032387F851
:1014C8007D303B7B87F87E303B7B012B01D13B692C
:1014D80000E00023C7F8A0303B7B012B02D17B69D9
:1014E8009BB200E00023A7F89E30D7F8A030DBB20B
:1014F80087F87F30D7F8A0301B0ADBB287F8803036
:10150800D7F8A0301B0CDBB287F88130D7F8A030B1
:101518001B0EDBB287F88230B7F89E30DBB287F853
:101528008330B7F89E301B0A9BB2DBB287F8843051
:101538003B6AB3F5803F02D23B6A9BB201E04FF6AB
:10154800FF73A7F89C30B7F89C30DBB287F885307A
:10155800B7F89C301B0A9BB2DBB287F8863007F1DC
:101568007C030B221946A120FFF7E4FA1AE10023B5
:1015780087F87830042387F87930FFF7BFFE0346F1
:10158800002B01D0012300E0002387F87A3007F10F
:10159800780303221946A120FFF7CCFA02E107F1EC
:1015A8006403184603F074FC034683F00103DBB2BE
:1015B800002B05D006220A21A120FFF713FBF1E03A
:1015C800002387F85030062387F8513097F86430A5
:1015D80087F8523097F86530002B01D0012300E0DE
:1015E800002387F85330B7F86630DBB287F85430F9
:1015F800B7F866301B0A9BB2DBB287F85530B7F8EC
:101608006830DBB287F85630B7F868301B0A9BB2EF
:10161800DBB287F85730B7F86A30DBB287F8583052
:10162800B7F86A301B0A9BB2DBB287F85930FB6EF9
:10163800DBB287F85A30FB6E1B0ADBB287F85B30E7
:10164800FB6E1B0CDBB287F85C30FB6E1B0EDBB24B
:1016580087F85D30B7F87030DBB287F85E30B7F8DE
:1016680070301B0A9BB2DBB287F85F30B7F8723074
:10167800DBB287F86030B7F872301B0A9BB2DBB276
:1016880087F8613007F1500312221946A120FFF7AD
:1016980051FA87E007F13C03184602F0D3FF0346EE
:1016A80083F00103DBB2002B05D005220A21A1201B
:1016B800FFF798FA76E0002387F82C30052387F89F
:1016C8002D3097F83C3087F82E30FB8FDBB287F847
:1016D8002F30FB8F1B0A9BB2DBB287F83030B7F88C
:1016E8004030DBB287F83130B7F840301B0A9BB284
:1016F800DBB287F832307B6CDBB287F833307B6C37
:101708001B0ADBB287F834307B6C1B0CDBB287F822
:1017180035307B6C1B0EDBB287F83630B7F94830B2
:10172800DBB287F83730B7F948309BB21B0A9BB257
:10173800DBB287F83830B7F84A30DBB287F839308F
:10174800B7F84A301B0A9BB2DBB287F83A3007F188
:101758002C030F221946A120FFF7ECF922E0FFF72E
:101768007FFA1FE0FB78012B05D007220121A12079
:10177800FFF738FA16E0FFF756FB13E0FB78012B6A
:1017880005D009220121A120FFF72CFA0AE0FFF772
:1017980087FC07E097F8A7301A460421A120FFF735
:1017A80021FA00BFA837BD4680BD00BF80B58CB008
:1017B80000AF78600B46FB70FB78002B05D1002248
:1017C8000121A220FFF70EFADEE17B681B7887F87B
:1017D8002F3097F82F30013B082B00F2CD8101A262
:1017E80052F823F0111800088F1900082F1B000861
:1017F800F9190008231B0008751A0008471B000880
:101808003B1B00086F1B0008FB78072B05D801223B
:101818000121A220FFF7E6F9B6E17B6801331B78C6
:1018280087F8293097F82930012B05D9012205219D
:10183800A220FFF7D7F9A7E197F82930012B5AD151
:101848007B6802331B781A467B6803331B781B02BC
:101858001A437B6804331B781B041A437B680533DF
:101868001B781B061343FB617B6806331B781AB28F
:101878007B6807331B781BB21B021BB213431BB2D6
:101888007B83FB69002B08D0FB69BA4A934204D8D2
:101898007B8B42F21072934205D901220521A220C6
:1018A800FFF7A0F970E1F86901F0A2FF034683F0A1
:1018B8000103DBB2002B09D17B8B184601F0AAFF8C
:1018C800034683F00103DBB2002B05D00122062179
:1018D800A220FFF787F957E1012001F0AFFF034687
:1018E80083F00103DBB2002B41D001220621A220A4
:1018F800FFF778F948E17B6802331B781A467B6862
:1019080003331B781B021A437B6804331B781B04C0
:101918001A437B6805331B781B0613437B627B687D
:1019280006331B781AB27B6807331B781BB21B027D
:101938001BB213431BB27B847B6A002B02D17B8CC6
:10194800002B05D001220521A220FFF74BF91BE14E
:10195800002001F073FF034683F00103DBB2002B84
:1019680005D001220621A220FFF73CF90CE1002353
:101978003B7601237B7607F1180302221946A22041
:10198800FFF7D8F800E1FB78012B05D802220121E6
:10199800A220FFF727F9F7E07B6801331B7887F867
:1019A8002A3097F82A30022B05D902220521A220D5
:1019B800FFF718F9E8E097F82A30022B02D100F077
:1019C8003BFB09E097F82A30012B0CBF01230023C9
:1019D800DBB2184600F044FB00233B7502237B75FD
:1019E80007F1140302221946A220FFF7A3F8CBE05F
:1019F800FB78012B05D804220121A220FFF7F2F879
:101A0800C2E07B6801331B7887F82B3097F82B30BE
:101A1800002B09D097F82B30012B05D00422052183
:101A2800A220FFF7DFF8AFE097F82B30012B0CBFAF
:101A380001230023DBB21846FFF772FC034683F04C
:101A48000103DBB2002B05D004220621A220FFF7F8
:101A5800C9F899E000233B7404237B7407F1100351
:101A680002221946A220FFF765F88DE0FFF70CFB6C
:101A7800034683F00103DBB2002B05D006220B21BD
:101A8800A220FFF7AFF87FE0FB78032B05D80622EA
:101A98000121A220FFF7A6F876E07B6801331B78C6
:101AA80087F82E3097F82E30012B05D9062205210C
:101AB800A220FFF797F867E07B6802331B781AB219
:101AC8007B6803331B781BB21B021BB213431BB288
:101AD800BB8597F82E30012B0CBF01230023DBB206
:101AE800BA8D1146184603F033F9034683F0010313
:101AF800DBB2002B05D006220521A220FFF772F8E1
:101B080042E000233B7306237B7307F10C03022298
:101B18001946A220FFF70EF836E005220721A22079
:101B2800FFF760F830E003220721A220FFF75AF8F8
:101B38002AE0FB7819467868FFF7D6F824E0FFF723
:101B4800A3FA034683F00103DBB2002B05D007227A
:101B58000B21A220FFF746F816E0FB7819467868B3
:101B6800FFF702FA10E0FB7819467868FFF77EFB6A
:101B78000AE000BFA086010097F82F301A4604211A
:101B8800A220FFF72FF800BF3037BD4680BD00BF49
:101B980080B584B000AF264B1B78012B3FD9244B6E
:101BA8001B78222B3BD8234B1B787B73214B5B780C
:101BB8003B733B7B023BFB72FB7A202B31D87A7B51
:101BC8003B7B1344FB730023BB7309E0BB7B0233ED
:101BD800184AD25CFB7B1344FB73BB7B0133BB739A
:101BE800BA7BFB7A9A42F1D3FB7A0233114AD35C6F
:101BF800FA7B9A4217D1104B7B607B7BA12B05D1D6
:101C0800FB7A19467868FFF7ADFB0DE07B7BA22BCA
:101C18000AD1FB7A19467868FFF7C8FD04E000BFCF
:101C280002E000BF00E000BF1037BD4680BD00BF26
:101C3800C9020020A4020020A602002080B584B0BA
:101C480000AF0346FB7105F057F803463C4A1360A2
:101C58003C4B1B78042B6FD801A252F823F000BF2D
:101C68007D1C0008971C0008B31C0008EB1C00082A
:101C78001D1D0008FB797E2B5BD1324B01221A70A7
:101C8800314B00221A70314B00221A7051E02E4B52
:101C98001B785A1CD1B22C4A117019462C4AFB7970
:101CA8005354284B02221A7046E0284AFB791370D5
:101CB800264B1B78012B03D9244B1B78222B02D9E6
:101CC800FEF710FF38E0204B1B785A1CD1B21E4A91
:101CD800117019461E4AFB7953541A4B03221A7085
:101CE8002AE01A4B1B78023BFB73174B1B785A1CD4
:101CF800D1B2154A11701946154AFB795354124B43
:101D08001B781A46FB7B02339A4214D30D4B0422EC
:101D18001A7010E00C4B1B785A1CD1B20A4A117089
:101D280019460B4AFB795354FFF732FFFEF7DAFEE8
:101D380002E000BF00E000BF00BF1037BD4680BD15
:101D4800CC020020CA020020C8020020C9020020DC
:101D5800A402002080B500AF084B00221A80084B6F
:101D680000221A80074B00221A70FEF7BBFE0122E0
:101D78000549064806F068FC00BF80BD1C0200202B
:101D88001E020020A1020020A002002094010020D1
:101D980080B582B000AF164B1B78002B12D004F030
:101DA800ABFF0246134B1B68D31A322B0AD9FEF736
:101DB80099FE07E0FEF776FE0346FB71FB791846AD
:101DC800FFF73CFFFEF71CFE034683F00103DBB27E
:101DD800002BEFD1084B1B78DBB2002B04D0064B4D
:101DE80000221A70FEF77EFE00BF0837BD4680BD90
:101DF800CA020020CC020020A102002080B500AF5A
:101E0800FEF714FE0346002B03D0084B01221A707C
:101E180005E0074B1B78DBB21846FEF721FE0122CE
:101E28000349044806F010FC00BF80BDA102002051
:101E3800A00200209401002080B582B000AF786035
:101E48007B681B68064A934205D10122054906486A
:101E580006F0FAFB00E000BF0837BD4680BD00BFB2
:101E680000100140A00200209401002080B582B03B
:101E780000AF0346FB71084AFB791370FB7983F0C6
:101E88000103DBB21A464FF48071044805F008FEDE
:101E980000BF0837BD4680BDD102002000100240B7
:101EA80080B582B000AF00F0C6FA0346012B01D11D
:101EB800002311E000F0C7FA0346FB71FB79022BFF
:101EC80001D1022308E0FB79032B02D0FB79042B14
:101ED80001D1032300E0012318460837BD4680BD21
:101EE80080B483B000AF0346FB71FB79002B02D1AD
:101EF8004FF47A730BE0FB79022B02D14FF4FA739B
:101F080005E0FB79032B01D1C82300E00023184624
:101F18000C37BD465DF8047B7047000080B582B081
:101F280000AF03463960FB71094AFB791370094A0F
:101F38003B681360FB79012B03D10020FFF796FF64
:101F480002E00120FFF792FF00BF0837BD4680BDC1
:101F5800D3020020D402002098B500AF094B00221C
:101F68001A70094B00221A70FFF79AFF03461C46A5
:101F780004F0C2FE034619462046FFF7CFFF00BF14
:101F880098BD00BFD0020020D202002080B584B0E6
:101F980000AF244B1B78012B05D1234B1B78184627
:101FA800FFF764FF3BE004F0A7FEF860FFF778FF57
:101FB8000346FB721D4B1B78FA7A9A4205D0FB7ACE
:101FC800F9681846FFF7AAFF29E0184B1B7818464E
:101FD800FFF786FF78607B68002B06D10020FFF7AB
:101FE80045FF134AFB68136019E0114B1B68FA6838
:101FF800D31A7A689A4212D80D4AFB6813600D4BBF
:102008001B78002B14BF01230023DBB283F00103EC
:10201800DBB203F00103DBB21846FFF727FF1037E6
:10202800BD4680BDD0020020D2020020D30200208D
:10203800D4020020D102002098B500AF074B00223F
:102048001A70FFF72DFF03461C4604F055FE0346A1
:1020580019462046FFF762FF00BF98BDD002002056
:1020680080B582B000AF0346FB71074B01221A709E
:10207800064AFB791370FB791846FFF7F7FE00BF95
:102088000837BD4680BD00BFD0020020D202002024
:1020980080B400AF034B1B781846BD465DF8047B3F
:1020A800704700BFD002002080B400AF034B1B78FC
:1020B8001846BD465DF8047B704700BFD10200207A
:1020C80080B483B000AF786039607B68AA221A7048
:1020D8007B68012283F825207B68002283F826206C
:1020E8007B68AA2283F827207B683A689A627B6813
:1020F800012283F82C2000BF0C37BD465DF8047B15
:10210800704780B582B000AF7860786800F004F856
:1021180000BF0837BD4680BD80B483B000AF78608B
:102128007B68002B13D07B68002283F825207B680E
:10213800002283F826207B68002283F827207B680A
:1021480000229A627B68002283F82C2000E000BFFE
:102158000C37BD465DF8047B704780B582B000AF90
:10216800786039607B68002B07D07B6893F82C3047
:1021780083F00103DBB2002B01D000230BE07B6866
:102188009B6A3A68D31A312B01D8002303E0786898
:10219800FFF7C2FF012318460837BD4680BD80B54A
:1021A80086B000AFF8607A603B600B46FB72FB6854
:1021B800002B02D03B68002B01D102239DE07968F7
:1021C800F868FFF7CAFFFB6893F82C3083F0010327
:1021D800DBB2002B08D0FB7AAA2B03D17968F86808
:1021E800FFF76EFF002388E0FB6893F82530242B67
:1021F8000BD9F868FFF790FFFB7AAA2B03D179680F
:10220800F868FFF75DFF022377E0FB6893F8253055
:102218001946FB68FA7A5A54FB687A689A62FB682E
:1022280093F82530032B14D1FB7A202B0BD9F868AF
:10223800FFF772FFFB7AAA2B03D17968F868FFF7DA
:102248003FFF022359E0FB7A0533DAB2FB6883F8D3
:102258002620FB6893F82630002B3CD0FB6893F8C7
:102268002520FB6893F82630013BDBB29A4232D135
:10227800FB6893F82730FA7A9A4202D00323FB7559
:102288001AE0FB685A783B681A70FB689A783B68D2
:102298005A70FB68DA783B689A703B689B78002B29
:1022A80008D03B68D81CFB68191D3B689B781A4608
:1022B800FDF7D0FF0123FB75F868FFF72DFFFB7DC5
:1022C800012B06D0FB7AAA2B03D17968F868FFF7AF
:1022D800F7FEFB7D11E0FB6893F82720FB7A53405B
:1022E800DAB2FB6883F82720FB6893F825300133BE
:1022F800DAB2FB6883F82520002318461837BD4654
:1023080080BD80B485B000AF786039600023FB736E
:102318007B68002B04D13B68002B01D0002311E01F
:102328000023BB6009E07A68BB6813441A78FB7B1A
:102338005340FB73BB680133BB60BA683B689A4281
:10234800F1D3FB7B18461437BD465DF8047B704714
:1023580090B585B000AF3A601A460346FB710B464C
:10236800BB7113467B713B6A002B08D07B79202B0D
:1023780005D83B68002B04D17B79002B01D00023C2
:102388002EE07B790533FB7397F82420FB7B9A4278
:1023980001D2002324E03B6AAA221A703B6A013367
:1023A800FA791A703B6A0233BA791A703B6A0333B6
:1023B8007A791A707B79002B06D03B6A04337A79D4
:1023C80039681846FDF746FFFB7B591EFB7B013B2E
:1023D8003A6AD418386AFFF794FF03462370FB7BE8
:1023E80018461437BD4690BD80B582B000AF00F0E6
:1023F80095FE0346FB71FB79002B01D100230AE00F
:10240800FB79012B01D1012305E0FB79022B01D1D6
:10241800022300E0032318460837BD4680BD80B577
:1024280000AF00F015FE00BF80BD80B500AF00F022
:102438004FFE00BF80BD80B400AF02231846BD46E2
:102448005DF8047B704780B500AFFFF7CDFF03460A
:10245800184680BD80B483B000AF0346FB710B46BD
:10246800BB8013467B80042318460C37BD465DF8B5
:10247800047B704780B582B000AF78607B68002B22
:102488001FD07B6802221A70FFF7AEFF03461A4678
:102498007B685A7000F04EFE03461A467B689A70B5
:1024A8007B689A787B68DA707B6800221A717B688F
:1024B80000225A717B680022DA807B6800221A8128
:1024C80000E000BF0837BD4680BD80B483B000AFD0
:1024D8000346FB80FB8801339BB2DBB29BB21846F4
:1024E8000C37BD465DF8047B7047000080B584B0AA
:1024F80000AF0346FB710F4B1B88FB81FB89184615
:10250800FFF7E3FF0346BB810B4B1B889BB2BA89DD
:102518009A4205D1094B9B680133084A936006E04B
:10252800FB890749FA79CA54024ABB8913801037D4
:10253800BD4680BDDC030020DE0300200C04002023
:10254800DC02002080B582B000AF1A4B93F83E3011
:10255800DBB2222B04D1184B00221A70012325E08C
:10256800144B93F83E30DBB2202B04D0124B0122DF
:102578001A7000231AE0012210490E4806F064F888
:102588000346FB71FB79002B04D10B4B00221A7018
:1025980001230BE0084B01221A70FB79022B04D0AF
:1025A800074BDB680133064AD36000231846083717
:1025B800BD4680BDD8010020E0030020D8020020DD
:1025C8000C04002080B500AF1F4B00221A701F4B6F
:1025D80000221A801E4B00221A801E4B00221A70FD
:1025E8001D4B00221A701D4B00221A701C4B002232
:1025F8001A701C4B00221A601B4B00221A701B4BCE
:1026080000221A60194B00225A60184B00229A6067
:10261800164B0022DA60154B00221A61134B002278
:102628005A61124B00229A61104B0022DA61FFF7BF
:1026380089FF034683F00103DBB2002B02D0054B70
:1026480001221A7000BF80BDD8020020DC030020E0
:10265800DE030020E0030020090400200A04002013
:102668002C040020300400202D0400200C0400203D
:1026780080B582B000AF0E4B1B78DBB2002B01D0C7
:10268800FFF760FF0B4B1B78DBB2002B0BD004F07D
:1026980033FB7860084B1B687A68D31A012B02D980
:1026A800044B00221A7000BF0837BD4680BD00BF2A
:1026B800E00300202D0400203004002080B584B001
:1026C80000AF78600B46FB707B68002B05D0FB7869
:1026D800002B02D0FB78252B06D9294B5B690133E7
:1026E800274A5361002346E0264B1B78DBB2002BB8
:1026F80005D1254B93F83D30DBB2202B01D00023C8
:1027080039E00023FB7309E0FB7B7A681A44FB7B02
:1027180011781E4AD154FB7B0133FB73FA7BFB789B
:102728009A42F1D31A4B00221A70FB78013B174AE0
:10273800D25C184B1A70184B00221A70114B0122E8
:102748001A70FB789BB21A4610490F4805F037FFFC
:102758000346BB73BB7B002B0CD00A4B00221A70BC
:102768000D4B00221A70064B5B690133044A536112
:10277800002300E0012318461037BD4680BD00BF86
:102788000C04002009040020D8010020E4030020E4
:102798000A0400202C0400202D04002080B400AF7F
:1027A8000A4B1B78DBB2002B05D1094B93F83D305F
:1027B800DBB2202B01D0012300E0002303F001034A
:1027C800DBB21846BD465DF8047B7047090400205B
:1027D800D801002080B400AF074B1B78DBB2002B78
:1027E80001D1002303E0044B00221A70012318468C
:1027F800BD465DF8047B70470A04002080B584B0AC
:1028080000AF78607B68002B07D0104B1B889AB20A
:102818000F4B1B889BB29A4201D1002311E00C4B4D
:102828001B88FB81FB890B4AD35CDAB27B681A7080
:10283800FB891846FFF749FE03461A46044B1A80DF
:10284800012318461037BD4680BD00BFDC030020B9
:10285800DE030020DC02002080B584B000AF264BE8
:102868001B78FB7304F048FAB860244B1B680133EB
:10287800224A1360224B1B78DBB2002B05D01F4B7A
:102888005B6801331D4A536027E01E4B1B78DBB29F
:10289800002B1ED01C4B1B68BA68D31A7B607B6860
:1028A800012B0ED8194B1B78DBB2FA7B9A4208D160
:1028B800144B00221A70114BDB6901330F4AD361A4
:1028C8000BE0104B00221A70FB7B1846FFF70EFE38
:1028D80003E0FB7B1846FFF709FEFFF733FE0346CC
:1028E80083F00103DBB2002B02D0094B01221A70DE
:1028F80000BF1037BD4680BDD80200200C04002060
:10290800090400202D040020300400202C0400209D
:10291800E003002080B500AF04F0EEF90346064A54
:102928001360064B01221A70054B00221A70054BE2
:1029380001221A7000BF80BD300400202D04002041
:10294800090400200A04002080B483B000AF786036
:10295800094A7B689361084B1B690133064A136176
:10296800064B01221A70064B00221A7000BF0C3762
:10297800BD465DF8047B70470C040020E00300208E
:102988002D04002080B487B000AFF860B96013460A
:10299800FB710023FB750EE0FB7DFA6813441A787F
:1029A800FB7DB9680B441B789A4201D0002307E0ED
:1029B800FB7D0133FB75FA7DFB799A42ECD3012349
:1029C80018461C37BD465DF8047B704780B483B059
:1029D80000AF78607B681B78012B05D17B685B783A
:1029E800022B01D1012300E0002303F00103DBB235
:1029F80018460C37BD465DF8047B704780B582B039
:102A080000AF78607B689B78042B0BD17B6803331D
:102A1800042208491846FFF7B5FF0346002B01D0EA
:102A2800012300E0002303F00103DBB21846083756
:102A3800BD4680BDD0BC000880B582B000AF7860CC
:102A48007B689B78042B0BD17B68033304220849ED
:102A58001846FFF797FF0346002B01D0012300E03B
:102A6800002303F00103DBB218460837BD4680BDDA
:102A7800D4BC000880B588B002AFF8607B600B4614
:102A8800FB721346BB721D4B1B78002B03D11C4BEA
:102A98001B78002B06D01B4BDB6B0133194AD36321
:102AA800002327E0FB7A25220192174A0092FA6850
:102AB80001210220FFF74CFC0346FB75FB7D002B30
:102AC80006D1104B9B6B01330E4A9363002311E030
:102AD8000E4AFB7D13700E4ABB7A13700D4A7B6851
:102AE8001360064B01221A70064B1B6B0133054A13
:102AF8001363012318461837BD4680BD920600208F
:102B080093060020A40600206C06002091060020F1
:102B1800980600209406002080B483B000AF0C4BC8
:102B28001B78FB710A4B00221A70FB79012B03D129
:102B3800084B01221A7005E0FB79022B02D1054BE4
:102B480002221A7000BF0C37BD465DF8047B70473F
:102B5800980600206404002080B500AFFFF73AFE15
:102B6800034683F00103DBB2002B11D10A4B1B781B
:102B780083F00103DBB2002B0CD1074B00221A7043
:102B8800064B5B6B0133054A5363FFF7C5FF02E051
:102B980000BF00E000BF80BD93060020A40600200F
:102BA80080B582B000AF78601B4B1B7883F00103BF
:102BB800DBB2002B27D1194B1B78002B23D1184BE4
:102BC8001B687A68D31A012B1FD9FFF7E7FD034664
:102BD800002B1CD1134B1B7819461348FFF76EFDC9
:102BE800034683F00103DBB2002B05D00F4B9B6B30
:102BF80001330E4A93630BE0074B00221A70074B10
:102C080001221A7004E000BF02E000BF00E000BF2C
:102C18000837BD4680BD00BF9206002093060020FD
:102C280094060020910600206C060020A4060020CF
:102C380080B582B000AF78607B68012204210B4820
:102C4800FFF718FF034683F00103DBB2002B08D11E
:102C5800074A7B681360074B1B690133054A1361F8
:102C680000E000BF0837BD4680BD00BFD4BC0008E7
:102C78009C060020A406002080B582B000AF7860D2
:102C8800144B1B687A68D31AB3F5FA7F08D3124B32
:102C980000221A70114B9B690133104A936115E0A9
:102CA8007B68022204210E48FFF7E4FE034683F006
:102CB8000103DBB2002B08D10A4A7B681360074B7B
:102CC8005B690133054A536100E000BF0837BD4620
:102CD80080BD00BF9C06002064040020A4060020DC
:102CE800D0BC0008A006002080B584B000AF786092
:102CF80039607B681B791BB21B021AB27B685B794F
:102D08001BB213431BB2FB817B689B791BB21B026E
:102D18001AB27B68DB791BB213431BB2BB81FB89F8
:102D2800B3F5807F05D9134B9B6A0133114A93622F
:102D38001CE07B68D81C7B6899783B680022FFF709
:102D480099FE034683F00103DBB2002B0DD1FB890A
:102D58000949BA8921F81320084A3B681360054BD2
:102D6800DB690133034AD36100E000BF1037BD4679
:102D780080BD00BFA406002068040020A006002033
:102D880080B586B000AF786039607B681B791BB26C
:102D98001B021AB27B685B791BB213431BB2FB821E
:102DA800FB8AB3F5807F05D91A4B9B6A0133194A10
:102DB80093622BE0FB8A184A32F81330BB82062351
:102DC8003B737B681B797B737B685B79BB73BB8ABE
:102DD8001B0A9BB2DBB2FB73BB8ADBB23B7407F105
:102DE8000C003B6800220521FFF744FE034683F0F0
:102DF8000103DBB2002B08D1084A3B681360054B7E
:102E08001B6A0133034A136200E000BF1837BD464E
:102E180080BD00BFA406002068040020A006002092
:102E280080B582B000AF786039607B689B78052BED
:102E380005D0174B5B6A0133154A536224E07B685F
:102E4800DB78032B04D139687868FFF74DFF1BE066
:102E58007B68DB78062B12D17B689B79002B03D12A
:102E68007B68DB79002B05D0094B5B6A0133084A84
:102E7800536209E039687868FFF782FF04E0044B81
:102E8800DB6A0133024AD3620837BD4680BD00BF02
:102E9800A406002080B582B000AF786039607868F9
:102EA800FFF794FD034683F00103DBB2002B05D046
:102EB8001E4B5B6A01331D4A536233E01C4B1B787F
:102EC800002B03D11B4B1B78002B05D0174BDB6B5A
:102ED8000133164AD36325E07868FFF78FFD034670
:102EE800002B03D03868FFF7A3FE1BE0124B1B78BA
:102EF800012B09D17868FFF79FFD0346002B03D00B
:102F08003868FFF7B9FE0DE00B4B1B78022B04D194
:102F180039687868FFF784FF04E0044B5B6A013383
:102F2800024A53620837BD4680BD00BFA406002090
:102F380092060020930600206404002080B58CB01F
:102F480000AF78602DE097F82E1007F108037A6833
:102F58001A48FFF724F9034687F82F3097F82F30DF
:102F6800012B0BD1164B1B680133154A136007F16F
:102F7800080379681846FFF78DFF12E097F82F309D
:102F8800032B05D10E4B5B6801330D4A536008E0F3
:102F980097F82F30022B04D1094B9B680133084A5C
:102FA800936007F12E031846FFF728FC0346002B11
:102FB800C9D100BF00BF3037BD4680BD34040020F2
:102FC800A406002080B483B000AF78601A4B1B7849
:102FD800002B2BD1194B1B78002B27D1184B1B78B2
:102FE800012B0FD1174B1B687A68D31AB3F5FA7FF8
:102FF8001DD3134B00221A70134B9B690133124ADD
:10300800936114E00E4B1B78022B10D10F4B1B68F9
:103018007A68D31AB3F5FA7F09D3094B03221A70D9
:10302800094B1B6C0133084A136400E000BF0C37DE
:10303800BD465DF8047B7047920600209306002089
:10304800640400209C060020A4060020A00600209E
:1030580080B500AF1348FFF754F840F20222002170
:10306800114808F03DFD44220021104808F038FDC1
:103078000F4B00221A700F4B00221A700E4B0022C1
:103088001A700E4B00221A700D4B00221A600D4B5D
:1030980000221A700C4B00221A600C4B00221A6096
:1030A80000BF80BD3404002068040020A40600206E
:1030B8006404002091060020920600209306002058
:1030C80094060020980600209C060020A0060020F8
:1030D80080B582B000AF03F00FFE786079680D48C4
:1030E800FFF73BF80346002B04D00B4BDB6801339A
:1030F800094AD360FFF730FD7868FFF71FFF78684B
:10310800FFF74EFD7868FFF75DFF00BF0837BD4643
:1031180080BD00BF34040020A406002080B400AFA6
:10312800034B1B781846BD465DF8047B704700BF0B
:103138006404002080B400AF094B1B78002B03D136
:10314800084B1B78002B01D0012300E0002303F07B
:103158000103DBB21846BD465DF8047B704700BF2B
:1031680092060020930600202DE9B04F9AB000AFD8
:1031780078643964FA637B6C002B03D07A6C764BE5
:103188009A4201D90023E1E07B6C00223B637A6319
:10319800D7E90C234FF000004FF00001190441EA71
:1031A8001241100402460B46396BB2EB010A796BE7
:1031B80063EB010BC7E914ABD7E91423674951182E
:1031C800B96243F10003FB62D7E91423D7E90A0186
:1031D800FDF726F802460B46C7E91823D7E9182356
:1031E800134305D14FF001024FF00003C7E918233C
:1031F800D7E91823B2F1011F73F1000301D30023AB
:10320800A4E07B6C00223B627A627B6ED7E908AB54
:10321800524602FB03F23B6E594601FB03F31A4484
:103228003B6E5146A3FB014553191D46C7E912459C
:10323800C7E91245D7E912014FF000024FF0000329
:10324800420842EAC1724B0845495118B96143F135
:103258000003FB61D7E91223D7E90601FCF7E0FF79
:1032680002460B46C7E91623D7E91623022A73F14B
:10327800000346D2D7E91823B2F5803F73F1000363
:1032880001D3002362E0D7E91823511C396043F1C8
:1032980000037B60D7E90034C7E918347B6C00224F
:1032A8003B617A617B6ED7E90445224602FB03F253
:1032B8003B6E294601FB03F313443A6E2146A2FBF9
:1032C80001894B449946C7E91289C7E91289D7E9A8
:1032D80012014FF000024FF00003420842EAC172A7
:1032E8004B081F495118B96043F10003FB60D7E947
:1032F8001223D7E90201FCF793FF02460B46C7E900
:103308001623D7E91623022A73F1000306D3D7E957
:103318001623B2F5803F73F1000301D3002315E0B3
:10332800D7E91823134306D0D7E91823B2F1011FB0
:1033380073F1000301D3002308E03B6E5A1E3B6C77
:103348001A60BB6D5A1EFB6B1A600123184668375A
:10335800BD46BDE8B08F00BFA0860100FFBC0105D7
:1033680000BD01052DE9B04F88B000AFF860798144
:10337800F96800208846814618F1010A49F1000BD6
:10338800C7E904AB798900200C460546396905FB75
:1033980001F0796904FB01F101443869A0FB0423B9
:1033A80019440B4641F288315118396043F1000342
:1033B8007B6042F210724FF00003D7E90001FCF77E
:1033C8002FFF02460B46C7E90623D7E90623B2F5C5
:1033D800803F73F1000305D34FF6FF724FF00003EF
:1033E800C7E90623BB6918462037BD46BDE8B08F3C
:1033F8002DE9B04FB4B000AFC7F884000B46A7F86A
:103408008230B7F8822042F210739A4201D9002321
:10341800C6E107F1880207F18C031946D7F8840042
:10342800FFF7A2FE034683F00103DBB2002B01D0B5
:103438000023B5E1D7F88820B7F88230194610463E
:10344800FFF790FFC7F8CC00D7F88C300133002283
:10345800BB67FA67D7F88830013300223B677A6781
:10346800D7E91E010B463A6F02FB03F27B6FC7E9EF
:103478001E01014601FB03F31344BA6F396FA2FB27
:1034880001894B449946C7E93089C7E93089D7E9AA
:1034980030234FF000004FF00001500840EAC3709D
:1034A8005908C24BC318BB6641F10003FB66D7E954
:1034B8003023D7E91A01FCF7B3FE02460B46134640
:1034C800C7F8BC30D7F8883000223B667A66D7E95F
:1034D80018120B460133BB62134643F10003FB622B
:1034E800D7E90A23C7E92C23D7F8CC300022BB65DB
:1034F800FA65D7E9168942464B464FF000004FF06F
:103508000001990041EA9271900002460B4641463B
:103518005418494643EB01054FF000024FF00003F1
:10352800EB0043EA5473E20014461D464346B4EBED
:10353800030A404649460B4665EB030B4FF0000271
:103548004FF000034FEA0B1343EA1A734FEA0A12CB
:1035580092469B4603461AEB03033B620B464BEB32
:1035680003037B624FF000024FF00003D7E90845E0
:1035780029460B01214643EA117321460A011446E4
:103588001D46D7E92C234FF000004FF000015008EA
:1035980040EAC370590823183B6545EB01037B6576
:1035A800D7E92C23D7E91401FCF73AFE02460B466B
:1035B8001346A7F8AE30D7F8BC300022BB64FA64D3
:1035C800D7F8843000223B647A64D7E91245234651
:1035D800D7E9100102469B1ABB612B460A4663EBEA
:1035E8000203FB61D7E90634C7E92834D7E9280183
:1035F80002460B464FF000044FF000055D0145EA16
:10360800D265540122462B46141A3C6163EB010330
:103618007B614FF000024FF00003D7E904894C4664
:103628006302444643EAD4534446620214461D46A4
:1036380023461B18BB602B4641EB0303FB604FF08E
:1036480000024FF00003D7E902894C46A301444623
:1036580043EA94634446A2014446141B3C604C462A
:1036680063EB04037B60D7E9004523461B18BB6363
:103678002B4641EB0303FB63D7F8843000223B63FE
:103688007A63D7E90C23D7E90E01FCF779FD0246E6
:103698000B46C7E92823D7F8A030C7F89C30444B1D
:1036A8001B68C7F89830434B1B68C7F89430424BE7
:1036B8001B68C7F890300021404806F023F93F4BBB
:1036C8001B68D7F88C209A623C4B1B68D7F8882077
:1036D800DA62D7F88830394AD360384B1B68D7F894
:1036E800CC205A63354B1B6800225A62334B1B6847
:1036F80001225A61314B1B686FF001021A610021E7
:103708002E4806F037F80346002B25D02B4B1B68B4
:10371800D7F898209A62294B1B68D7F89420DA6268
:10372800264AD7F89430D360244B1B68D7F89020EA
:103738005A63224B1B6800225A62204B1B680122E5
:103748005A611E4B1B686FF001021A6100211B4869
:1037580006F010F8002323E0194AD7F884301360E4
:10376800184AD7F8BC301360174AD7F89C30136052
:10377800164AB7F882301380154AB7F8AE3013806E
:10378800D7F88C300A4A1360D7F88830094A136092
:10379800094AD7F8CC3013600E4B01221A70012366
:1037A8001846D037BD46BDE8B08F00BF00BD010543
:1037B8000C0000201000002014000020D41200206B
:1037C8000000002004000020E80600200800002077
:1037D8000A0000201900002080B500AF41F28831AE
:1037E8004FF47A70FFF704FE0346184680BD0000C8
:1037F80080B582B000AF7860054B1B8819467868A1
:10380800FFF7F6FD034618460837BD4680BD00BFE2
:103818000800002080B582B000AF0346FB80064B4D
:103828001B68FA8811461846FFF7E2FD034618465A
:103838000837BD4680BD00BF0000002080B582B0BB
:1038480000AF0346FB71154AFB791370FB79002B17
:1038580009D0134B1B68134A128811461846FFF704
:10386800C7FD034616E0104B1B7883F00103DBB25B
:10387800002B01D001230DE00C4B1B6800225A637A
:103888000B4B00221A600B4B00221A80064B0122B8
:103898001A70012318460837BD4680BD180000205D
:1038A800000000200800002019000020D412002089
:1038B800140000200A00002080B400AF034B1B78DE
:1038C8001846BD465DF8047B704700BF180000200D
:1038D80080B400AF034B1B681846BD465DF8047BF7
:1038E800704700BF0400002080B400AF034B1B8862
:1038F8001846BD465DF8047B704700BF08000020ED
:1039080080B400AF034B1B881846BD465DF8047BA6
:10391800704700BF0A00002080B485B000AF78600F
:103928007968002901D100231CE011487968B0FBAF
:10393800F1F100200A460346C7E90223D7E902232A
:10394800B2F57A7F73F1000308D3D7E90223094956
:103958008A4273F1000301D2012300E0002303F03F
:103968000103DBB218461437BD465DF8047B704787
:1039780000CA9A3B414B4C0080B500AF3F4B1B68D7
:103988001A6A41F211131340002B0FD13B4B1B68ED
:103998001A6A40F244431340002B07D1374B1B6887
:1039A8001A68364B1B6822F001021A60334B1B68F9
:1039B800DA68324B1B6822F00102DA602F4B1B6871
:1039C80000225A622D4B1B6801225A612B4B1B683F
:1039D8006FF001021A61294B1B686FF002021A612D
:1039E800264B1B686FF400721A61254B00221A607F
:1039F800244B00221A70244B00221A70234B0022F9
:103A08001A70234B00221A60224B00221A70224B94
:103A180000221A70214B00221A604FF400712048CE
:103A280004F026F80346012B0CBF01230023DBB268
:103A38001A461C4B1A701C4B00221A701A4B002293
:103A48009A770E4B1B68DA680C4B1B6842F0010230
:103A5800DA600021094806F01FF80346002B09D058
:103A6800064B1B68DA68054B1B6822F00102DA6016
:103A7800002300E00123184680BD00BF4412002047
:103A8800EC0600200A0700200B0700200C07002086
:103A980020070020FC06002008070020F006002070
:103AA8000010024009070020280700202DE9B04F28
:103AB80090B000AF7861796909687148814240F037
:103AC800D980796909680969B963B96B01F400712A
:103AD80000292BD07B691B686FF400721A61694B4F
:103AE8001B680133674A1360664B1B68664A13609C
:103AF800664B00221A70664B00221A70654B002232
:103B08001A70654B00221A70644B00221A704FF429
:103B18000071634803F0ACFF0346012B0CBF01237F
:103B28000023DBB21A465F4B1A70A4E07969096872
:103B3800496B79635C490968F963B96B01F0010164
:103B4800002906D0796BB1F5004F02D2F96B01312B
:103B5800F963F96B0020884681464FEA18434FEA1B
:103B68000842796B00200C46054642EA0401B96018
:103B78002B43FB60D7E90234C7E90A3403F0BCF8E9
:103B880003464A4A1360474B1B78002B66D1404BCB
:103B98001B78002B56D03F4B1B78002B52D0444B40
:103BA800D3E90023D7E90A01841A3C6061EB0303D7
:103BB8007B60D7E90034C7E908343E4BD3E90023DA
:103BC800D7E90A01B0EB020A61EB030BC7E906ABC0
:103BD800D7E9082313432FD0D7E90823012B2BD289
:103BE800D7E90623D7E90801904271EB030323D3F1
:103BF8003B6A1846FFF790FE0346002B1CD02E4B5D
:103C08001B6801332C4A13603B6A2C4A1360BB695A
:103C18002B4A13601B4B1B681B4A1360234B1B6802
:103C2800284A13601D4B01221A701B4B01221A707F
:103C3800164B01221A7005E0144B00221A70174B1C
:103C480000221A701A49D7E90A23C1E90023104B48
:103C580001221A70134B01221A700CE01549D7E99A
:103C68000A23C1E900230B4B01221A700D4B0022D5
:103C78001A7000E000BF4037BD46BDE8B08F00BFF6
:103C88000000014020070020000700200A0700204C
:103C98000B0700200C070020FC0600200807002066
:103CA8000010024009070020EC060020240700202D
:103CB8001007002018070020F0060020F406002056
:103CC800F80600200407002080B483B000AF7860B5
:103CD8007B681B68074A934205D1074B1B68013371
:103CE800054A136000E000BF0C37BD465DF8047B51
:103CF800704700BF00000140EC0600202DE9B04FDE
:103D08009AB000AF9F4B1B68FB659F4B1B7887F8E9
:103D18005B309E4B1B687B659D4B1B683B659D4BD1
:103D28001B68FB649C4B1B68BB649C4B1B7887F827
:103D38004730944B1A68FB6D934240F01D8102F0A6
:103D4800DBFF38643A6CBB6C9A4203D33A6CBB6CA9
:103D5800D31A00E00023FB63914B1B6903F4007343
:103D6800002B01D0012300E0002387F83B3097F8AF
:103D78005B3083F00103DBB2002B06D197F84730A4
:103D880083F00103DBB2002B36D0FB6B40F6C41284
:103D980093421CD997F83B30002B03D0814B022269
:103DA8001A7002E07F4B03221A707E4A97F83B3064
:103DB800D3777C4B00229A777A4AFB6B53617A4B14
:103DC8001B68784A9361794A3B6C1360D5E0754B60
:103DD80000221A70734A97F83B30D377714B002250
:103DE8009A77704AFB6B53616F4B1B686D4A9361FE
:103DF8006E4A3B6C1360C0E0FA6B40F6C4139A42FB
:103E08001BD997F83B30002B03D0664B02221A705F
:103E180002E0644B03221A70624A97F83B30D3776A
:103E2800604B00229A775F4AFB6B53615D4AFB6CDB
:103E380093615E4A3B6C13609FE05D4A7B6DB2FB09
:103E4800F3F300221C461546C7E90C453B6D0022DA
:103E5800BB60FA60D7E90234C7E90A34D7E90A45F2
:103E680022462B464FF000004FF00001990041EA2E
:103E78009271900002460B4612EB040843EB0509C9
:103E88004FF000024FF000034FEAC90343EA5873AA
:103E98004FEAC80290469946B8EB040A69EB050B4D
:103EA8004FF000024FF000034FEA0B1343EA1A7376
:103EB8004FEA0A1292469B461AEB04033B604BEB0F
:103EC80005037B604FF000024FF00003D7E900457F
:103ED80029460B01214643EA117321460A01796DEF
:103EE8004908002039627862D7E908452146511807
:103EF800B961294643EB0101F9617B6D00223B6101
:103F08007A61D7E90423D7E90601FCF789F9024663
:103F18000B46C7E91823D7E9182342F211718A42E0
:103F280073F1000305D342F210724FF00003C7E9A2
:103F380018231C4B01221A703B6B1A4A53603B6EC4
:103F4800184A9360174A7B6DD360BB6A154A1361A0
:103F5800144AFB6B5361134AFB6C9361114BA72204
:103F68009A83104B01229A770E4A97F83B30D37701
:103F78000E4A3B6C136000E000BF6837BD46BDE8E1
:103F8800B08F00BFF0060020FC060020F4060020D9
:103F9800F80600200007002004070020080700207A
:103FA80000100240280700202007002048070020B2
:103FB80000CA9A3BB0B483B000AF78607B68002B2E
:103FC80001D100230AE07B68074A1C4615460FCD3D
:103FD8000FC495E80F0084E80F00012318460C373A
:103FE800BD46B0BC704700BF2807002080B584B02C
:103FF80000AF3B4600221A605A609A60DA60294B8B
:10400800294A1A60274B4FF480325A60254B002208
:104018009A60244B01221A61224B00221A76214B06
:10402800002283F820201F4B4FF08052DA621D4B8C
:104038004FF0C0629A621B4B0022DA60194B0222D1
:10404800DA61184B012283F83020164B01225A619D
:10405800144806F05FFE0346002B01D0FCF740FB36
:1040680000233B6001237B600723BB603B46194666
:104078000C4807F007F80346002B01D0FCF730FB8B
:1040880009233B6002237B603B461946054806F03E
:10409800F9FF0346002B01D0FCF722FB00BF1037C5
:1040A800BD4680BD4C0700200020014080B58AB085
:1040B80000AF786007F1140300221A605A609A6012
:1040C800DA601A617B681B683C4A934271D100230D
:1040D8003B613B4B5B6C3A4A43F480735364384B07
:1040E8005B6C03F480733B613B690023FB60344BDA
:1040F8001B6B334A43F001031363314B1B6B03F013
:104108000103FB60FB680023BB602D4B1B6B2C4A33
:1041180043F0020313632A4B1B6B03F00203BB60DB
:10412800BB6801237B610323BB610023FB6107F1AB
:1041380014031946234803F0FFFA02237B61032383
:10414800BB610023FB6107F1140319461E4803F005
:10415800F3FA1E4B1E4A1A601C4B00225A601B4B76
:1041680000229A60194B0022DA60184B4FF48062E3
:104178001A61164B4FF400625A61144B4FF4005207
:104188009A61124B4FF48072DA61104B00221A6266
:104198000E4B00225A620D4802F0CCFE0346002B5B
:1041A80001D0FCF79DFA7B68084A9A63074A7B6846
:1041B800936300BF2837BD4680BD00BF0020014083
:1041C800003802400000024000040240940700202A
:1041D8001064024080B400AF01231846BD465DF864
:1041E800047B7047000000002DE9B04F8AB000AF93
:1041F8000346B960FB81BB68002B02D0FB89002B0A
:1042080001D1002343E024A3D3E90023C7E908230D
:10421800FB895B089BB29BB200221C461546D7E976
:10422800082314EB020A45EB030BFB8900223B60D1
:104238007A60D7E9002350465946FBF7F1FF02465A
:104248000B46C7E9062346F298224FF00003C7E958
:104258000423D7E90623D7E90401904271EB03034D
:1042680001D3002313E0D7E90601D7E90423B0EB13
:10427800020861EB0309C7E90689D7E90623012B80
:1042880001D3002303E0BA69BB681A60012318460A
:104298002837BD46BDE8B08FF0D870020000000096
:1042A80080B485B000AF0346FB80FB8840F6E4424B
:1042B80002FB03F3FB60FB6803F2FF72074BA3FBEF
:1042C8000213D21A52081344DB0AFB60FB689BB244
:1042D80018461437BD465DF8047B7047010110008D
:1042E80080B588B000AF786039607B68002B02D059
:1042F8003B68002B01D1002350E03B6807EE903A61
:10430800B8EE677ADFED276AC7EE267AC7ED077A37
:1043180097ED070A07F056F987ED060A97ED067A32
:10432800DFED216AC7EE267A9FED207A37EE877A8D
:10433800F7EE006AC6EE877AC7ED057AD7ED057AFB
:104348009FED1B7A77EEC77AC7ED047AD7ED047A2A
:104358009FED187A67EE877A97ED047AB5EEC07A02
:10436800F1EE10FA02DBB6EE007A01E0BEEE007A5A
:1043780077EE277AFDEEE77A17EE903AFB60FB6856
:1043880013F5004F03DBFB68B3F5004F01DB002397
:1043980004E0FB681AB27B681A80012318462037AC
:1043A800BD4680BD00209E4500F06F45279D6B3BB4
:1043B800339388430000C84280B584B000AF78606A
:1043C8000023FB607B68002B01D100230EE007F17E
:1043D8000C031946786800F07FFE034683F001035A
:1043E800DBB2002B01D0002300E001231846103770
:1043F800BD4680BD80B400AF064B00221A74054B41
:1044080003225A74034B00225A8200BFBD465DF84E
:10441800047B7047F407002080B483B000AF0346E4
:10442800FB80154B01221A74B7F90630134A9342E0
:1044380007DA114B01225A740F4B4FF23C625A8231
:1044480013E0B7F9063041F27072934207DD0A4B68
:1044580002225A74084B41F270725A8205E0064BE8
:1044680000225A74044AFB88538200BF0C37BD46A9
:104478005DF8047B704700BFF40700203CF6FFFF9F
:1044880080B500AF1C4B00221A701B4B00225A80CB
:10449800194B00229A80184B00229A60164B002272
:1044A8009A81154B4FF6FF72DA81134B00221A746A
:1044B800114B03225A74104B00225A820F4B0022D0
:1044C8001A600F4B00221A600E4B00221A70FFF779
:1044D80081FE034683F00103DBB2002B06D0064BB6
:1044E80006221A70FFF786FF002303E0054B01221E
:1044F8001A700123184680BDF40700200808002020
:104508000C0800201008002080B584B000AF494B8B
:104518001B7883F00103DBB2002B40F0858002F0AA
:10452800EBFBF860444B1B68FA68D31AF92B7DD96A
:10453800414AFB68136000237B8107F10A03184690
:10454800FFF73AFF034683F00103DBB2002B05D0E7
:104558003A4B02221A70FFF74DFF68E07A89374B11
:104568005A807B891846FFF79BFE03461A46334B51
:104578009A8000237B607B893A1D11461846FFF715
:1045880033FE034683F00103DBB2002B12D02B4B22
:1045980000229A60294B00229A817B89002B03D143
:1045A800264B03221A7002E0244B04221A70FFF7EC
:1045B80021FF3CE07B68214A936000237B807A6876
:1045C800BB1C11461846FFF78BFE034683F0010318
:1045D800DBB2002B08D0194B00229A81174B052219
:1045E8001A70FFF707FF22E0B7F90220134B9A81F0
:1045F800B7F902301846FFF70FFF104B5B7C002B12
:1046080006D10E4B01221A700D4AFB6813600EE0AA
:104618000A4B5B7C012B03D1084B03221A7006E07E
:10462800064B04221A7002E000BF00E000BF1037FA
:10463800BD4680BD1008002008080020F4070020AF
:104648000C080020B0B584B000AF78607B68002B00
:1046580001D100232AE002F04FFBB860154B1B780C
:10466800012B0CD1144B1B68BA689A4204D3124B25
:104678001B68BA68D31A00E00023FB6002E04FF61B
:10468800FF73FB60FB68B3F5803F02D2FB689BB207
:1046980001E04FF6FF73074AD3817B68054A1C4641
:1046A80015460FCD0FC42B68236001231846103719
:1046B800BD46B0BDF40700200C0800202DE9B04F1E
:1046C8008CB000AF0346FB83FB8B002298469146D3
:1046D80042464B469118B9605B41FB60D7E902231B
:1046E80012EB080443EB09054FF000024FF00003FA
:1046F8006B0143EAD4636201A118396045EB0303F7
:104708007B60D7E900120B4613EB080A134643EB0C
:10471800090B41F288331AEB03033B614BF10003A9
:104728007B6142F210724FF00003D7E90401FBF7F6
:1047380077FD02460B46C7E90A23D7E90A23B2F5F3
:10474800803F73F1000305D34FF6FF724FF000036B
:10475800C7E90A23094B1B68BA6A5A63074B1B68E7
:104768005B6B7B62BB6A7A6A9A420CBF01230023A7
:10477800DBB218463037BD46BDE8B08F1C130020A9
:104788002DE9B04F86B000AFF860F9680020884680
:104798008146404649464FF000044FF000050D01A0
:1047A80045EA1075040120462946B0EB080261EB82
:1047B8000903911839605B417B60D7E9002312F542
:1047C800FA7A43F1000B4FF47A724FF00003504627
:1047D8005946FBF725FD02460B46C7E90423D7E9EE
:1047E8000423B2F5803F73F1000301D23B8A01E054
:1047F8004FF6FF7318461837BD46BDE8B08F000066
:1048080080B500AF02F078FA0246064B1B68D31A4F
:1048180040F2CF72934294BF01230023DBB21846C3
:1048280080BD00BF2C08002080B483B000AF786042
:10483800084B1B687A68D31A40F28F12934294BFD0
:1048480001230023DBB218460C37BD465DF8047B14
:10485800704700BF3408002080B500AF204B00220D
:104868001A70204B00221A701F4B42F210721A80E5
:104878001E4B00221A801E4B00221A601D4B00227C
:104888001A801D4B00221A601C4B00221A601C4B18
:1048980000221A601B4B00221A601B4B00221A7060
:1048A8001A4B00221A701A4B00221A70194B1B68F7
:1048B80000225A630021174804F05CFF0346002BCE
:1048C80004D0074B05221A70002307E0114B1B6820
:1048D80000225A630C4B01221A700123184680BD2E
:1048E80011080020120800201408002016080020D3
:1048F8001C08002020080020240800202808002088
:104908002C0800203408002030080020310800203E
:10491800320800201C13002080B500AF0020FFF7EC
:10492800CDFE034683F00103DBB2002B06D0104B0B
:1049380005221A700F4B00221A7017E00E4B002246
:104948001A800C4B00221A70094B00221A700B4B6C
:1049580000221A600A4B00221A800A4B00221A60B1
:10496800094B00221A70094B00221A7080BD00BF43
:104978001108002012080020160800201C0800203A
:1049880020080020240800203108002032080020D8
:1049980080B5A4B000AF0346FB8042F21070FFF769
:1049A8008DFE034683F00103DBB2002B0AD0002002
:1049B800FFF784FE244B05221A70244B00221A703C
:1049C80000233CE000F0D0FF07F10C03184601F08B
:1049D800EBFA0346002B03D0BB691D4A136002E0C3
:1049E8001B4B00221A601B4B42F210721A80174BA5
:1049F80001221A7002F080F90346174A1360124B1D
:104A080001221A7002F078F90346144A1360144B15
:104A180000221A60134B00221A80134B00221A60DE
:104A2800124B00221A70124B00221A7002F064F91D
:104A38000346104A1360104AFB8813800123184666
:104A48009037BD4680BD00BF110800201208002025
:104A58002808002016080020180800202C0800202C
:104A68001C0800202008002024080020310800200D
:104A780032080020340800201408002080B582B0D5
:104A880000AF0346FB801D4B1B88FA889A4201D170
:104A980001232EE0194AFB881380194B1B78012B40
:104AA80001D1012325E0FB881846FFF707FE0346DE
:104AB80083F00103DBB2002B0AD00020FFF7FEFDD4
:104AC8000F4B05221A700F4B00221A70002310E0BA
:104AD8000D4AFB88138000F047FF0C4B00221A7028
:104AE80002F00AF903460A4A1360054B02221A70BB
:104AF800012318460837BD4680BD00BF14080020B2
:104B08001108002012080020160800203108002093
:104B18003408002080B5A2B000AF804B1B7883F02A
:104B28000103DBB2002B40F0ED807D4B1B78012B9D
:104B38002BD102F0E1F802467A4B1B68D31AB3F581
:104B4800FA6FC0F0E180784B1B881846FFF7B6FD76
:104B5800034683F00103DBB2002B09D00020FFF7E6
:104B6800ADFD6F4B05221A70704B00221A70D2E00F
:104B78006D4B1A886E4B1A80694B04221A7002F02A
:104B8800BBF803466B4A1360BEE0684B1B7883F0A2
:104B98000103DBB2002B40F0B980654B1B88002B6A
:104BA80000F0B68002F0A8F8C7F884003B46184623
:104BB80001F0FAF90346002B5AD03B78012B57D164
:104BC800FA685D4B1B689A421BD07B685B4A13608E
:104BD8007B681846FFF7D4FD03461A46584B1A80DF
:104BE800584AD7F884301360FB68534A1360564B11
:104BF80001221A70554B01221A70494B02221A7071
:104C080088E0524B1B78002B14D04E4B1B68D7F80A
:104C18008420D31AB3F57A7F0CD3414B03221A7040
:104C2800464B00221A60464B00221A80464B00224F
:104C38001A706FE0454B1B7883F00103DBB2002B41
:104C480068D0D7F88400FFF7EFFD034683F001032F
:104C5800DBB2002B5ED0324B03221A70374B002296
:104C68001A60374B00221A80374B00221A7051E025
:104C7800354B00221A70354B1B78002B14D0314B62
:104C88001B68D7F88420D31AB3F57A7F0CD3244B4A
:104C980003221A70294B00221A60294B00221A801D
:104CA800294B00221A7036E0284B1B7883F0010349
:104CB800DBB2002B16D0D7F88400FFF7B5FD03460A
:104CC80083F00103DBB2002B0CD0154B03221A70C2
:104CD8001A4B00221A601A4B00221A801A4B002223
:104CE8001A7018E0124B1B88002B14D0FFF788FDB0
:104CF800034683F00103DBB2002B0CD0084B0422DF
:104D08001A7008E000BF06E000BF04E000BF02E040
:104D180000BF00E000BF8837BD4680BD30080020D6
:104D2800110800201808002014080020120800208C
:104D38001608002034080020280800201C0800203D
:104D48002008002024080020310800203208002014
:104D580080B5A4B000AF03460A46FB711346BB807A
:104D6800404B1B7883F00103DBB2002B01D00023FA
:104D780074E0FB7983F00103DBB2002B08D0BB8819
:104D8800002B01D0002369E0FFF7C6FD012365E091
:104D9800BB88002B45D1344B1B7883F00103DBB271
:104DA800002B10D000F0E0FD07F10C03184601F0CD
:104DB800FBF80346002B03D0BB692C4A136002E0C2
:104DC8002A4B00221A600020FFF778FC034683F084
:104DD8000103DBB2002B07D0254B05221A70224BAA
:104DE80000221A70002339E0224B00221A801E4B41
:104DF80001221A701E4B00221A701F4B00221A80C3
:104E08001E4B00221A601E4B00221A801D4B0022E6
:104E18001A601D4B00221A701C4B00221A700123C5
:104E28001CE0BB88B3F57A7F04D3BB8842F21072CA
:104E3800934201D9002311E00B4B1B7883F0010347
:104E4800DBB2002B05D0BB881846FFF7A1FD03464F
:104E580004E0BB881846FFF711FE03461846903752
:104E6800BD4680BD30080020120800202808002018
:104E78001108002016080020140800201C08002033
:104E880020080020240800203108002032080020D3
:104E980080B584B000AF78607B68002B01D1002317
:104EA80042E0234B1A787B681A70224B1A787B6889
:104EB8005A70214B1A887B685A80204B1A887B6865
:104EC8009A807B6842F21072DA801D4B1A687B6800
:104ED8009A601C4B1A887B689A811B4B1B78002BA5
:104EE80001D0012200E000227B681A74104B1B7865
:104EF800002B0AD0154B1B68002B06D001F0FCFED6
:104F08000246124B1B68D31A01E04FF6FF73FB6091
:104F1800FB68B3F5803F02D2FB689AB201E04FF616
:104F2800FF727B68DA81012318461037BD4680BDC1
:104F3800110800201208002014080020160800207C
:104F48001C08002020080020310800202408002028
:104F580080B500AF184B00221A70184B00221A7047
:104F6800174B00221A60174B00221A60164B0022BA
:104F78001A6016494FF000024FF00003C1E9002300
:104F8800134B00221A604FF480621249124805F050
:104F980005FF0346002B01D000230BE00F4804F067
:104FA80027FB0346002B04D00B4806F007F8002324
:104FB80000E00123184680BD381000203910002079
:104FC8003C10002040100020441000204810002011
:104FD80050100020380800204C0700208C120020B8
:104FE8002DE9B00F85B000AF344B1B687B60344BA4
:104FF8001B687A689A425BD0324B1B78DBB2002B75
:1050080027D0304B00221A700023FB601AE0FB689F
:1050180001332D4A32F813309BB200221C46154644
:105028002A4BD3E9002314EB020A45EB030B274B69
:10503800C3E900AB264B1B680133254A1360FB68A4
:105048000233FB60FB68B3F5007FE0D31C4A7B6842
:105058001360204B1B78DBB2002B2AD01D4B00229B
:105068001A704FF40073BB601AE0BB680133164A2C
:1050780032F813309BB2002218461146134BD3E97D
:10508800002310EB020841EB0309104BC3E9008928
:105098000F4B1B6801330E4A1360BB680233BB60B9
:1050A800BB68B3F5806FE0D3054A7B68136000E006
:1050B80000BF1437BD46BDE8B00F70474010002050
:1050C8004410002038100020380800204810002024
:1050D80050100020391000202DE9B04F82B000AFE9
:1050E800786039607B68002B02D03B68002B01D1C7
:1050F800002331E01B4B1B68002B01D100232BE060
:10510800184B1B685B0800221C461546164BD3E952
:10511800002314EB020845EB0309124B1B6800221D
:105128009A46934652465B4640464946FBF778F80E
:1051380002460B4692B27B681A800A4B1A683B6893
:105148001A6009494FF000024FF00003C1E900233B
:10515800044B00221A60012318460837BD46BDE8F3
:10516800B08F00BF501000204810002080B485B0D8
:1051780000AFF860B9607A60FB68002B05D0BB68A7
:10518800002B02D07B68002B01D100230BE0FB68C9
:10519800084A1A60BB684FF480621A60064B1A68A6
:1051A8007B681A60012318461437BD465DF8047BF6
:1051B800704700BF380800204010002080B400AFBE
:1051C800034B1B681846BD465DF8047B704700BF5B
:1051D8003C10002080B483B000AF78607B681B6807
:1051E8000B4A93420DD10B4B1B78DBB2002B04D03A
:1051F800094B1B680133084A1360064B01221A70D9
:1052080000E000BF0C37BD465DF8047B704700BF67
:1052180000200140381000203C10002080B483B0EA
:1052280000AF78607B681B680D4A934212D10D4B22
:105238001B78DBB2002B04D00B4B1B6801330A4AE6
:105248001360084B01221A70084B1B680133074A88
:10525800136000E000BF0C37BD465DF8047B704763
:1052680000200140391000203C1000204010002090
:1052780080B400AF1E494FF000024FF00003C1E9AF
:1052880000231C4B00221A601B494FF000024FF00C
:105298000003C1E90023194B00221A60184B40F69D
:1052A800FF721A80174B00221A80174B00221A60CF
:1052B800164B00221A60164B00221A60154B00226A
:1052C8001A60154B00221A60144B00221A60144B06
:1052D80000221A60134B00221A60134B00221A6036
:1052E800124B00221A6000BFBD465DF8047B704770
:1052F8005011002058110020601100206811002072
:105308006C1100206E110020701100207411002013
:10531800781100207C1100208011002084110020C9
:10532800881100208C110020901100209411002079
:105338002DE9B00383B000AF0346FB80FB88002251
:105348001C4615460A4BD3E9002314EB020845EB2B
:105358000309074BC3E90089064B1B680133054A5B
:10536800136000BF0C37BD46BDE8B003704700BFEF
:1053780050110020581100202DE9B00383B000AF70
:105388000346FB800B467B7113463B71FB8800226A
:105398001C4615463D4BD3E9002314EB020845EBA8
:1053A80003093A4BC3E90089394B1B680133384A72
:1053B8001360384B1B88FA889A4202D2354AFB8818
:1053C8001380354B1B88FA889A4202D9324AFB88E7
:1053D8001380324B1B88FA889A4217D3304B1B68CC
:1053E80001332F4A13602F4B1B6801332D4A13607A
:1053F8002C4B1A682C4B1B689A4203D9294B1B6803
:10540800294A1360294B00221A6002E0254B00222A
:105418001A60274B1B88FA889A4217D8254B1B68B5
:105428000133244A1360214B1B6801331F4A136060
:105438001E4B1A68204B1B689A4203D91B4B1B68EA
:105448001D4A1360174B00221A6002E0174B002216
:105458001A607B79002B07D13B79012B04D1174BBC
:105468001B680133154A13607B79002B07D13B7900
:10547800022B04D1124B1B680133114A136000BF81
:105488000C37BD46BDE8B003704700BF601100206F
:10549800681100206C1100206E11002046110020B8
:1054A80070110020781100207C110020801100204C
:1054B8004411002074110020841100209011002054
:1054C800941100202DE9F04F8DB000AF9B4B1B6865
:1054D800002B1ED0994B1B685B080022184611460A
:1054E800974BD3E9002386183E6241EB03037B62A6
:1054F800924B1B680022BB61FA61D7E90623D7E902
:105508000801FAF78DFE02460B4693B28D4A1386C0
:1055180002E08C4A002313868B4B1A688B4B1B685E
:105528009A4208D3884B1B689AB2884B1B689BB277
:10553800D31A9BB200E00023824A5386844B1B682F
:10554800002B20D0824B1B685B080022BB62FA62EA
:10555800804BD3E90023B96A89183961F96A43EBAA
:10556800010179617A4B1B680022BB60FA60D7E9B8
:105578000223D7E90401FAF753FE02460B4692B21A
:10558800704B1A8702E06F4B00221A87724B1A88F9
:105598006C4B9A86714B1A886A4BDA866F4B1A885D
:1055A8006D4B1B889A4206D36C4B1A886A4B1B8832
:1055B800D31A9BB200E00023624A5387684B1B68EA
:1055C800604AD363674B1B685E4A1364664B1B686B
:1055D8005C4A5364654B1B685A4A9364644B1B6866
:1055E800584AD364634B1B68564A1365624B1B6861
:1055F800544A5365614B1B68524A9365604B1A784D
:10560800504B83F85C205F4B1A784E4B83F85D2033
:105618005D4B1B684B4A13664D4B1B68002298462E
:10562800914642464B464FF000004FF000015901A9
:1056380041EAD261500102460B46B2EB080463EB23
:1056480009054FF000024FF00003AB0043EA9473E2
:10565800A20014461D4614EB080A45EB090B4FF04F
:1056680000024FF000034FEACB0343EA5A734FEAB4
:10567800CA0292469B4652465B4641F2883151180F
:10568800396043F100037B6042F210724FF000036F
:10569800D7E90001FAF7C4FD02460B46294B5A66C2
:1056A8003A4B1B68274A9366394B1B68254AD366D1
:1056B800384B1B68234A1367224B1B78012B06D1F2
:1056C800354B1B68002B02D0344B1B6800E00023CD
:1056D8001C4A5367324B1A881A4BA3F87820314B6F
:1056E8001A88184BA3F87A202F4B1A88154BA3F861
:1056F8007C202E4B1A88134BA3F87E202B4B1A883C
:10570800294B1B889A4206D3284B1A88264B1B889C
:10571800D31A9BB200E000230A4AA2F88030244B37
:105728001B78002B01D0012200E00022054B83F8F2
:10573800822000BF3437BD46BDE8F08F58110020E5
:1057480050110020541000200411002000110020E6
:1057580068110020601100206C1100206E110020DB
:1057680070110020741100207C1100208411002089
:10577800881100208C110020901100209411002025
:10578800E1100020E0100020E8100020081100209F
:105798000C1100201C110020481100204C11002081
:1057A8004411002046110020401100204211002021
:1057B8003E11002080B487B000AF03463A60FB80FA
:1057C8000B46BB803B68002B00F08E80494B1B7852
:1057D80083F00103DBB2002B09D0474AFB88138012
:1057E800464ABB881380434B01221A701BE0FB8892
:1057F800414A12889B1AFB60FB689B109AB23E4B89
:105808001B8813449AB23C4B1A80BB883B4A1288C7
:105818009B1AFB60FB689B109AB2384B1B88134499
:105828009AB2364B1A80354B1A88334B1B889A42EA
:1058380006D3324B1B881A462F4B1B88D31A00E01D
:105848000023BB60BB68B3F5C87F09D2294B00228F
:105858001A702B4B00221A802A4B00221A8044E02F
:10586800254B1B881946BA6813469B001344DA0077
:10587800D31A254AA2FB03235B090B447B611E4B09
:105888001B881946BA6813469B0113441E4AA2FB9B
:1058980003235B090B443B617B69B3F5805F02D34B
:1058A80040F6FF737B613B69B3F5805F02D340F636
:1058B800FF733B617A693B699A420BD27B699AB262
:1058C8000F4B1A803B699AB20E4B1A80094B012282
:1058D8001A700AE0074B00221A70094B00221A803E
:1058E800084B00221A8000E000BF1C37BD465DF857
:1058F800047B70473E110020401100204211002017
:1059080044110020461100201F85EB5180B400AFE0
:105918000E4B00221A700E4B00221A700D4B0022FB
:105928001A600D4B00221A600C4B00221A700C49A9
:105938004FF000024FF00003C1E90023094B002299
:105948001A6000BFBD465DF8047B7047E010002078
:10595800E1100020E4100020E8100020F8100020DA
:10596800F0100020FC10002080B582B000AFFFF7D7
:10597800CDFF1B4B00221A600023FB7107E0FB7967
:10598800184A002122F81310FB790133FB71FB79C7
:10599800092BF4D9144B00221A60144B00221A70F8
:1059A800134B00221A70134B00221A70124B00225C
:1059B8001A80124B00221A80114B00221A80114BB8
:1059C80000221A80104B00221A700F4B00225A60D6
:1059D8000D4B00229A6000BF0837BD4680BD00BF4E
:1059E8002011002024110020381100203C11002033
:1059F8003D1100203E1100204011002042110020DE
:105A08004411002046110020541000202DE9B04315
:105A180086B000AFC7E90001464B1B7883F001034D
:105A2800DBB2002B08D04449D7E90023C1E90023A1
:105A3800404B01221A7079E03F4BD3E90023D7E9A4
:105A48000001841A61EB0305C7E90445D7E904237B
:105A5800532A73F1000305D2384B1B680133374AC8
:105A6800136063E0D7E9042340F2E9318A4273F115
:105A7800000312D3324B00221A60324B1B680133E9
:105A8800304A1360304B1B6801332F4A13602A4990
:105A9800D7E90023C1E9002348E02749D7E90023D3
:105AA800C1E90023264B1B68B3F1FF3F04D0244B08
:105AB8001B680133224A13603B69244A1360204B58
:105AC8001B68022B32D9224A4FF00003C7E9022390
