:020000040800F2
:1000000000C001201D040008DB540008EB54000868
:10001000FB5400080B5500081B55000800000000A9
:100020000000000000000000000000002B55000848
:1000300039550008000000004755000855550008D4
:10004000790400087904000879040008790400089C
:10005000790400087904000879040008790400088C
:10006000790400087904000879040008790400087C
:10007000790400087904000879040008790400086C
:10008000790400087904000879040008790400085C
:10009000790400087904000879040008790400084C
:1000A0007904000861550008790400087D550008AE
:1000B000790400087904000879040008790400082C
:1000C000790400087904000879040008790400081C
:1000D00079040008915500087904000879040008A3
:1000E00079040008790400087904000879040008FC
:1000F00079040008790400087904000879040008EC
:1001000079040008790400087904000879040008DB
:100110007904000879040008CD5500087904000826
:10012000B95500087904000879040008790400082A
:1001300079040008790400087904000879040008AB
:10014000790400087904000879040008790400089B
:10015000790400087904000879040008A55500080E
:10016000790400087904000879040008790400087B
:1001700079040008790400087904000800000000F0
:0801800079040008790400086D
:100188007BB972B90029BEBF00204FF0004106E0DC
:1001980008BF00281CBF6FF000414FF0FF3000F08F
:1001A80057B8ADF1080C6DE904CE002909DB002B26
:1001B8001ADB0AF0E9FADDF804E0DDE9022304B00D
:1001C8007047404261EB4101002B1BDB0AF0DCFA6F
:1001D800DDF804E0DDE9022304B0404261EB4101AF
:1001E800524263EB43037047524263EB43030AF006
:1001F800CBFADDF804E0DDE9022304B0404261EB0C
:1002080041017047524263EB43030AF0BDFADDF83F
:1002180004E0DDE9022304B0524263EB4303704774
:1002280053B94AB9002908BF00281CBF4FF0FF3155
:100238004FF0FF3000F00CB8ADF1080C6DE904CEBA
:100248000AF0A2FADDF804E0DDE9022304B0704701
:10025800704700BF844641EA000313F003036DD1E1
:10026800403A41D351F8043B40F8043B51F8043B71
:1002780040F8043B51F8043B40F8043B51F8043B78
:1002880040F8043B51F8043B40F8043B51F8043B68
:1002980040F8043B51F8043B40F8043B51F8043B58
:1002A80040F8043B51F8043B40F8043B51F8043B48
:1002B80040F8043B51F8043B40F8043B51F8043B38
:1002C80040F8043B51F8043B40F8043B51F8043B28
:1002D80040F8043B51F8043B40F8043B51F8043B18
:1002E80040F8043B403ABDD2303211D351F8043BB8
:1002F80040F8043B51F8043B40F8043B51F8043BF8
:1003080040F8043B51F8043B40F8043B103AEDD266
:100318000C3205D351F8043B40F8043B043AF9D2B7
:10032800043208D0D2071CBF11F8013B00F8013B8A
:1003380001D30B8803806046704700BF082A13D397
:100348008B078DD010F003038AD0C3F10403D21AAF
:10035800DB071CBF11F8013B00F8013B80D331F8E3
:10036800023B20F8023B7BE7043AD9D3013A11F863
:10037800013B00F8013BF9D20B7803704B784370CE
:100388008B788370604670470348044B834202D0E1
:10039800034B03B118477047740100207401002013
:1003A800000000000548064B1B1AD90F01EBA301FA
:1003B800491002D0034B03B118477047740100205D
:1003C800740100200000000010B5064C237843B9E2
:1003D800FFF7DAFF044B13B10448AFF300800123A1
:1003E800237010BD78010020000000001CAC00083C
:1003F80008B5054B1BB105490548AFF30080BDE8BA
:100408000840FFF7CFBF00BF000000007C010020BC
:100418001CAC0008DFF834D00D480E490E4A002302
:1004280002E0D458C4500433C4188C42F9D30B4AA0
:100438000B4C002301E013600432A242FBD30948AD
:1004480080470948804709480047000000C001204C
:10045800000000207401002074AC0008780100201E
:1004680030150020755B0008FDAA00087B04000811
:10047800FEE780B500AF05F08BFB00F04DF800F00B
:1004880033F900F099FA00F0B5F900F0DDF905F05C
:1004980063F905F0A1F803F0C3FB05F0D5F905F001
:1004A8000FF901F0E3FA01F019FF01F044FE01F041
:1004B800DFFB02F0ABFF034683F00103DBB2002B46
:1004C80001D000F009F903F071F8034683F0010345
:1004D800DBB2002B01D000F0FFF803F0A3FD03F01E
:1004E80061FF04F03FFA04F093FE01F0DDFA01F039
:1004F80039FF01F026FE01F0D5FB03F019FA03F0ED
:10050800CBFD04F0A3F804F075FA04F0BFFC04F086
:10051800D7FE00BFE9E7000080B594B000AF07F14F
:1005280020033022002118460AF08CFA07F10C0348
:1005380000221A605A609A60DA601A610023BB6070
:10054800284B1B6C274A43F080531364254B1B6CC4
:1005580003F08053BB60BB6800237B60224B1B68A1
:10056800214A43F4804313601F4B1B6803F4804304
:100578007B607B6801233B624FF480337B620223FC
:10058800BB634FF48003FB6308233B64A8237B64AD
:100598000223BB640423FB6407F12003184606F01A
:1005A8004BFA0346002B01D000F096F80F23FB60AE
:1005B80002233B6100237B614FF4A053BB614FF4DE
:1005C8008053FB6107F10C030521184606F0ACFCCB
:1005D8000346002B01D000F07FF800BF5037BD461E
:1005E80080BD00BF003802400070004080B582B076
:1005F80000AF78607B681B68084A934202D101F01B
:1006080089FA06E07B681B68054A934201D101F02C
:1006180075FF00BF0837BD4680BD00BF0010014010
:100628000014014080B582B000AF78607B681B6819
:10063800044A934201D101F093FF00BF0837BD4639
:1006480080BD00BF0014014080B582B000AF786063
:100658007B681B680A4A934203D1786801F078FAEC
:1006680009E07B681B68074A934204D17B681B6CCE
:10067800184601F087FF00BF0837BD4680BD00BFA0
:10068800001001400014014080B582B000AF7860CE
:10069800786803F025F800BF0837BD4680BD000024
:1006A80080B582B000AF78607B681B68084A9342C7
:1006B80003D1786803F022F906E07B681B68054AD5
:1006C800934201D104F040FE00BF0837BD4680BD0B
:1006D800000001400010004080B500AF72B600BFB6
:1006E80004F039FE00BFFDE780B58AB000AF07F11E
:1006F800140300221A605A609A60DA601A610023B3
:100708003B61394B1B6B384A43F080031363364B0C
:100718001B6B03F080033B613B690023FB60324B9A
:100728001B6B314A43F0010313632F4B1B6B03F020
:100738000103FB60FB680023BB602B4B1B6B2A4A41
:1007480043F002031363284B1B6B03F00203BB60E7
:10075800BB6800237B60244B1B6B234A43F01003C8
:100768001363214B1B6B03F010037B607B68002332
:100778003B601D4B1B6B1C4A43F0080313631A4B69
:100788001B6B03F008033B603B6800224FF4807149
:10079800164806F037F901224FF40051144806F0C4
:1007A80031F94FF480737B610123BB610023FB6146
:1007B80000233B6207F1140319460C4805F06EFF4D
:1007C8004FF400537B610123BB610023FB610023CD
:1007D8003B6207F114031946054805F05FFF00BFA7
:1007E8002837BD4680BD00BF0038024000100240D7
:1007F800000C024080B500AF114B124A1A60104B32
:100808004FF416525A600E4B00229A600C4B00228D
:10081800DA600B4B00221A61094B0C225A61084B13
:1008280000229A61064B0022DA61054806F09AFD1B
:100838000346002B01D0FFF74FFF00BF80BD00BF6C
:10084800940100200010014080B500AF114B124AFE
:100858001A60104B4FF416425A600E4B00229A60F1
:100868000C4B0022DA600B4B00221A61094B0C2258
:100878005A61084B00229A61064B0022DA6105484A
:1008880006F070FD0346002B01D0FFF725FF00BFDF
:1008980080BD00BFD80100200014014080B58CB095
:1008A80000AF786007F11C0300221A605A609A6052
:1008B800DA601A617B681B683A4A934235D1002393
:1008C800BB61394B5B6C384A43F010035364364BB9
:1008D8005B6C03F01003BB61BB6900237B61324B87
:1008E8001B6B314A43F0010313632F4B1B6B03F05F
:1008F80001037B617B694FF4C063FB6102233B62A8
:1009080000237B620323BB620723FB6207F11C03FE
:100918001946264805F0C2FE00220A21252005F0C6
:1009280084FA252005F09DFA38E07B681B68204A88
:10093800934233D100233B611B4B5B6C1A4A43F053
:1009480020035364184B5B6C03F020033B613B6945
:100958000023FB60144B1B6B134A43F0040313631F
:10096800114B1B6B03F00403FB60FB68C023FB61A6
:1009780002233B6200237B620323BB620823FB62E2
:1009880007F11C0319460B4805F088FE00220B21CD
:10099800472005F04AFA472005F063FA00BF3037D0
:1009A800BD4680BD001001400038024000000240F2
:1009B800001401400008024080B582B000AF002357
:1009C8007B600C4B1B6B0B4A43F480031363094B8E
:1009D8001B6B03F480037B607B6800220D213820A9
:1009E80005F023FA382005F03CFA00BF0837BD4669
:1009F80080BD00BF0038024080B400AF074B1B88A1
:100A08009AB2074B1B889BB29A420CBF0123002362
:100A1800DBB21846BD465DF8047B70471C02002017
:100A28001E02002080B400AF094B1B889BB2013323
:100A380003F07F03074A128892B293420CBF012346
:100A48000023DBB21846BD465DF8047B704700BF43
:100A58001C0200201E02002080B485B000AF0346AF
:100A6800FB710C4B1B889BB201339BB203F07F03D5
:100A7800FB81084B1B889BB21946074AFB795354E4
:100A8800044AFB89138000BF1437BD465DF8047B18
:100A9800704700BF1C0200202002002080B483B0F1
:100AA80000AF0C4B1B889BB21A460B4B9B5CFB712F
:100AB800084B1B889BB201339BB203F07F039AB2A9
:100AC800044B1A80FB7918460C37BD465DF8047B49
:100AD800704700BF1E0200202002002080B400AF33
:100AE800064B00221A70064B00221A70054B002292
:100AF8001A7000BFBD465DF8047B7047CA0200202B
:100B0800C8020020C902002080B582B000AF78601A
:100B18000B467B807A8864237968034806F06FFC6B
:100B280000BF0837BD4680BD9401002080B58CB059
:100B380000AF03463960FB711346BB71BB79202BAC
:100B480001D9002346E0BB79043387F82D307E2392
:100B58003B72FB797B72BB790233DBB2BB727A7A68
:100B6800BB7A134487F82F30002387F82E301AE019
:100B780097F82E303A681A4497F82E3003331278D3
:100B880030333B4403F8282C97F82E303A68134446
:100B98001A7897F82F30134487F82F3097F82E30AB
:100BA800013387F82E3097F82E20BB799A42DFD38D
:100BB800BB79033330333B4497F82F2003F8282CB4
:100BC80097F82D309AB207F1080311461846FFF737
:100BD8009BFF012318463037BD4680BD80B584B0E1
:100BE80000AF0346FB710B46BB7113467B71BB79A3
:100BF8003B737B797B7307F10C01FB790222184662
:100C0800FFF794FF00BF1037BD4680BD80B483B0A6
:100C180000AF0346FB71FB79042B15D801A252F8EB
:100C280023F000BF410C0008450C0008490C0008DF
:100C3800490C00084D0C0008002306E0092304E0D5
:100C4800052302E0072300E0062318460C37BD46BB
:100C58005DF8047B704700BF80B588B000AF07F12E
:100C68001403184601F092FA00233B7108237B71A4
:100C78003B7DBB717B7DFB71BB7D002B01D00123CC
:100C880000E000233B72FB7D002B01D0012300E034
:100C980000237B723B7EBB727B7EFB727B8BDBB25D
:100CA8003B737B8B1B0A9BB2DBB27B73BB8BDBB2C8
:100CB800BB73BB8B1B0A9BB2DBB2FB7300233B7479
:100CC80000237B740023BB740023FB743B1D10229C
:100CD8001946A120FFF72AFF00BF2037BD4680BD77
:100CE80080B584B000AF78600B46FB70FB78062BAC
:100CF80005D008220121A220FFF770FF46E07B689B
:100D080001331B78FB737B6802331B781AB27B684C
:100D180003331B781BB21B021BB213431BB2BB81EC
:100D28007B6804331B781AB27B6805331B781BB2C7
:100D38001B021BB213431BB27B81FB7B012B05D12A
:100D4800BB89002B08D17B89002B05D1FB7B062BA7
:100D580008D17B89002B05D008220521A220FFF7A6
:100D68003DFF13E07A89B989FB7B184601F0FEF94B
:100D780003467B727B7A1846FFF748FF03463B72AF
:100D88003B7A08221946A220FFF728FF1037BD46F4
:100D980080BD80B483B000AF78600B467B807B88D1
:100DA800DAB27B681A707B881B0A9AB27B680133B7
:100DB800D2B21A7000BF0C37BD465DF8047B70478D
:100DC80080B483B000AF786039603B68DAB27B6882
:100DD8001A703B681A0A7B680133D2B21A703B68F2
:100DE8001A0C7B680233D2B21A703B681A0E7B6801
:100DF8000333D2B21A7000BF0C37BD465DF8047BCE
:100E0800704780B582B000AF786039603B6819469A
:100E18007868FFF7D5FF00BF0837BD4680BD80B5AD
:100E28008CB000AF07F11803184604F09BFA0023B2
:100E38003B7007237B70BB7EBB70FB7EFB70FA693F
:100E48003B46043311461846FFF7DBFF3A6A3B4638
:100E5800083311461846FFF7D4FF7A6A3B460C332D
:100E680011461846FFF7ACFF3A8D3B461033114642
:100E78001846FFF78EFF7A8D3B4612331146184607
:100E8800FFF787FF97F82C303B7597F82D307B7567
:100E980097F82E30BB753B4617221946A120FFF75D
:100EA80045FE00BF3037BD4680BD80B485B000AF79
:100EB80078600B46FB70FB787A6813441B781946F8
:100EC800FB7801337A6813441B781B0241EA03025A
:100ED800FB78023379680B441B781B041A43FB78B0
:100EE800033379680B441B781B061343FB60FB68CC
:100EF80018461437BD465DF8047B704780B483B04C
:100F080000AF0346FB71FB79092B21D801A252F8E7
:100F180023F000BF450F0008590F0008590F0008BB
:100F2800590F0008590F00084D0F0008590F000805
:100F3800550F0008510F0008490F0008002308E06A
:100F4800092306E0052304E0082302E0072300E064
:100F58000A2318460C37BD465DF8047B704700BF6E
:100F680080B584B000AF78600B46FB70FB78012B2E
:100F780005D807220121A220FFF730FE7CE07B681C
:100F880001331B78BB73BB7B013B042B64D801A2E4
:100F980052F823F0B10F0008D90F0008011000081B
:100FA8001D10000839100008FB78062B05D0072211
:100FB8000121A220FFF712FE5EE002217868FFF708
:100FC80074FFB860B86804F053FA0346FB7349E04D
:100FD800FB78062B05D007220121A220FFF7FEFD92
:100FE8004AE002217868FFF760FFB860B86804F04B
:100FF8004AFA0346FB7335E0FB78022B05D007223B
:101008000121A220FFF7EAFD36E004F052FA034678
:10101800FB7327E0FB78022B05D007220121A220D1
:10102800FFF7DCFD28E004F04CFA0346FB7319E0F7
:10103800FB78062B05D007220121A220FFF7CEFD61
:101048001AE002217868FFF730FFB860B86804F04A
:1010580025FA0346FB7305E007220521A220FFF7C6
:10106800BDFD09E0FB7B1846FFF748FF0346072252
:101078001946A220FFF7B2FD1037BD4680BD00BF5C
:1010880080B400AF064B5B6903F40053002B14BF18
:1010980001230023DBB21846BD465DF8047B704788
:1010A800000C024080B582B000AF0346FB71FB79AB
:1010B8001A464FF400510B4805F0A4FC094B5B6934
:1010C80003F40053002B14BF01230023DBB21A469C
:1010D800FB799A420CBF01230023DBB2184608377C
:1010E800BD4680BD000C024080B5A8B000AF786056
:1010F8000B46FB70FB78002B05D100220121A120B3
:10110800FFF76CFD01E27B681B7887F89F3097F842
:101118009F30013B072B00F2F08101A252F823F027
:1011280049110008E31100081D120008F712000811
:101138001D14000827130008EB140008E514000824
:10114800002387F88430012387F8853002F0CEF930
:101158000346002B01D0012300E0002387F88630E6
:1011680002F0D0F9C7F8900002F0C0F90346002B4E
:1011780003D002F0DFF9034602E002F0CFF903469C
:10118800A7F88E30D7F89030DBB287F88730D7F8D9
:1011980090301B0ADBB287F88830D7F890301B0CE8
:1011A800DBB287F88930D7F890301B0EDBB287F8AE
:1011B8008A30B7F88E30DBB287F88B30B7F88E30CC
:1011C8001B0A9BB2DBB287F88C3007F18403092233
:1011D8001946A120FFF7AAFC97E1002387F8803081
:1011E800022387F8813000F0DFFD034687F882305C
:1011F80000F0E6FD0346002B01D0012300E00023A8
:1012080087F8833007F1800304221946A120FFF7ED
:101218008DFC7AE107F10C03184602F0E5FC034661
:1012280083F00103DBB2002B05D003220A21A120A1
:10123800FFF7D4FC69E1002387F87430032387F8AB
:1012480075303B7B87F876303B7B012B01D13B69BE
:1012580000E00023C7F898303B7B012B02D17B6963
:101268009BB200E00023A7F89630D7F89830DBB29D
:1012780087F87730D7F898301B0ADBB287F87830D0
:10128800D7F898301B0CDBB287F87930D7F898304C
:101298001B0EDBB287F87A30B7F89630DBB287F8E6
:1012A8007B30B7F896301B0A9BB2DBB287F87C30EC
:1012B8003B6AB3F5803F02D23B6A9BB201E04FF62E
:1012C800FF73A7F89430B7F89430DBB287F87D3015
:1012D800B7F894301B0A9BB2DBB287F87E3007F16F
:1012E80074030B221946A120FFF720FC0DE100230F
:1012F80087F87030042387F87130FFF7C1FE034682
:10130800002B01D0012300E0002387F8723007F199
:10131800700303221946A120FFF708FCF5E007F146
:101328006003184603F0C8FA034683F00103DBB2F2
:10133800002B05D006220A21A120FFF74FFCE4E08C
:10134800002387F84C30062387F84D3097F8603033
:1013580087F84E3097F86130002B01D0012300E068
:10136800002387F84F30B7F86230DBB287F8503087
:10137800B7F862301B0A9BB2DBB287F85130B7F876
:101388006430DBB287F85230B7F864301B0A9BB27E
:10139800DBB287F85330B7F86630DBB287F85430E1
:1013A800B7F866301B0A9BB2DBB287F85530BB6EC4
:1013B800DBB287F85630BB6E1B0ADBB287F85730B2
:1013C800BB6E1B0CDBB287F85830BB6E1B0EDBB252
:1013D80087F85930B7F86C30DBB287F85A30B7F86D
:1013E8006C301B0A9BB2DBB287F85B30B7F86E3003
:1013F800DBB287F85C30B7F86E301B0A9BB2DBB201
:1014080087F85D3007F14C0312221946A120FFF737
:101418008DFB7AE007F13C03184602F0D1FE034643
:1014280083F00103DBB2002B05D005220A21A1209D
:10143800FFF7D4FB69E0002387F82C30052387F8F1
:101448002D3097F83C3087F82E30FB8FDBB287F8C9
:101458002F30FB8F1B0A9BB2DBB287F83030B7F80E
:101468004030DBB287F83130B7F840301B0A9BB206
:10147800DBB287F832307B6CDBB287F833307B6CB9
:101488001B0ADBB287F834307B6C1B0CDBB287F8A5
:1014980035307B6C1B0EDBB287F83630B7F9483035
:1014A800DBB287F83730B7F948301B121BB2DBB212
:1014B80087F83830B7F84A30DBB287F83930B7F8F0
:1014C8004A301B0A9BB2DBB287F83A3007F12C038B
:1014D8000F221946A120FFF729FB16E0FFF7BCFBF6
:1014E80013E0FB78012B05D007220121A120FFF78B
:1014F80075FB0AE0FFF793FC07E097F89F301A4660
:101508000421A120FFF76AFB00BFA037BD4680BDBC
:1015180080B58CB000AF78600B46FB70FB78002B71
:1015280005D100220121A220FFF758FBB7E17B6813
:101538001B7887F82F3097F82F30013B072B00F2E4
:10154800A68101A252F823F071150008EF160008D1
:10155800731800085917000867180008D5170008FD
:101568008B1800087F180008FB78072B05D8012284
:101578000121A220FFF732FB91E17B6801331B7840
:1015880087F8293097F82930012B05D90122052140
:10159800A220FFF723FB82E197F82930012B5AD1CB
:1015A8007B6802331B781A467B6803331B781B025F
:1015B8001A437B6804331B781B041A437B68053382
:1015C8001B781B061343FB617B6806331B781AB232
:1015D8007B6807331B781BB21B021BB213431BB279
:1015E8007B83FB69002B08D0FB69AE4A934204D881
:1015F8007B8B42F21072934205D901220521A22069
:10160800FFF7ECFA4BE1F86901F00CFF034683F0B1
:101618000103DBB2002B09D17B8B184601F014FFC4
:10162800034683F00103DBB2002B05D0012206211B
:10163800A220FFF7D3FA32E1012001F019FF034697
:1016480083F00103DBB2002B41D001220621A22046
:10165800FFF7C4FA23E17B6802331B781A467B68DC
:1016680003331B781B021A437B6804331B781B0463
:101678001A437B6805331B781B0613437B627B6820
:1016880006331B781AB27B6807331B781BB21B0220
:101698001BB213431BB27B847B6A002B02D17B8C69
:1016A800002B05D001220521A220FFF797FAF6E0CA
:1016B800002001F0DDFE034683F00103DBB2002BBE
:1016C80005D001220621A220FFF788FAE7E00023CF
:1016D8003B7601237B7607F1180302221946A220E4
:1016E800FFF724FADBE0FB78012B05D80222012161
:1016F800A220FFF773FAD2E07B6801331B7887F8E2
:101708002A3097F82A30022B05D902220521A22077
:10171800FFF764FAC3E097F82A30022B02D100F0F1
:1017280017FB09E097F82A30012B0CBF012300238F
:10173800DBB2184600F020FB00233B7502237B75C3
:1017480007F1140302221946A220FFF7EFF9A6E0D9
:10175800FB78012B05D804220121A220FFF73EFACD
:101768009DE07B6801331B7887F82B3097F82B3086
:10177800002B09D097F82B30012B05D00422052126
:10178800A220FFF72BFA8AE097F82B30012B0CBF29
:1017980001230023DBB21846FFF784FC034683F0DD
:1017A8000103DBB2002B05D004220621A220FFF79B
:1017B80015FA74E000233B7404237B7407F11003CB
:1017C80002221946A220FFF7B1F968E0FB78032B43
:1017D80005D806220121A220FFF700FA5FE07B6806
:1017E80001331B7887F82E3097F82E30012B05D956
:1017F80006220521A220FFF7F1F950E07B680233A9
:101808001B781AB27B6803331B781BB21B021BB20E
:1018180013431BB2BB8597F82E30012B0CBF012355
:101828000023DBB2BA8D1146184602F0AFFF03461B
:1018380083F00103DBB2002B05D006220521A2208C
:10184800FFF7CCF92BE000233B7306237B7307F1EA
:101858000C0302221946A220FFF768F91FE00522AF
:101868000721A220FFF7BAF919E003220721A220D5
:10187800FFF7B4F913E0FB7819467868FFF730FAF8
:101888000DE0FB7819467868FFF76AFB07E097F8E0
:101898002F301A460421A220FFF7A0F900BF3037E5
:1018A800BD4680BDA086010080B584B000AF264B40
:1018B8001B78012B3FD9244B1B78222B3BD8234B79
:1018C8001B787B73214B5B783B733B7B023BFB7242
:1018D800FB7A202B31D87A7B3B7B1344FB730023A4
:1018E800BB7309E0BB7B0233184AD25CFB7B134411
:1018F800FB73BB7B0133BB73BA7BFB7A9A42F1D390
:10190800FB7A0233114AD35CFA7B9A4217D1104B07
:101918007B607B7BA12B05D1FB7A19467868FFF7A2
:10192800E3FB0DE07B7BA22B0AD1FB7A1946786892
:10193800FFF7EEFD04E000BF02E000BF00E000BFDB
:101948001037BD4680BD00BFC9020020A402002098
:10195800A602002080B584B000AF0346FB7104F0F6
:101968007DF903463C4A13603C4B1B78042B6FD827
:1019780001A252F823F000BF95190008AF1900081A
:10198800CB190008031A0008351A0008FB797E2BCA
:101998005BD1324B01221A70314B00221A70314B45
:1019A80000221A7051E02E4B1B785A1CD1B22C4AD7
:1019B800117019462C4AFB795354284B02221A708D
:1019C80046E0284AFB791370264B1B78012B03D974
:1019D800244B1B78222B02D9FFF780F838E0204BE4
:1019E8001B785A1CD1B21E4A117019461E4AFB793F
:1019F80053541A4B03221A702AE01A4B1B78023BE5
:101A0800FB73174B1B785A1CD1B2154A1170194633
:101A1800154AFB795354124B1B781A46FB7B023349
:101A28009A4214D30D4B04221A7010E00C4B1B7809
:101A38005A1CD1B20A4A117019460B4AFB79535401
:101A4800FFF732FFFFF74AF802E000BF00E000BFEF
:101A580000BF1037BD4680BDCC020020CA0200205E
:101A6800C8020020C9020020A402002080B500AFEF
:101A7800084B00221A80084B00221A80074B0022CC
:101A88001A70FFF72BF801220549064805F08EFD6C
:101A980000BF80BD1C0200201E020020A102002001
:101AA800A00200209401002080B582B000AF164B40
:101AB8001B78002B12D004F0D1F80246134B1B6898
:101AC800D31A322B0AD9FFF709F807E0FEF7E6FF29
:101AD8000346FB71FB791846FFF73CFFFEF78CFFC6
:101AE800034683F00103DBB2002BEFD1084B1B78D0
:101AF800DBB2002B04D0064B00221A70FEF7EEFF73
:101B080000BF0837BD4680BDCA020020CC020020B5
:101B1800A102002080B500AFFEF784FF0346002B2A
:101B280003D0084B01221A7005E0074B1B78DBB283
:101B38001846FEF791FF01220349044805F036FDD7
:101B480000BF80BDA1020020A00200209401002057
:101B580080B582B000AF78607B681B68064A934204
:101B680005D101220549064805F020FD00E000BF27
:101B78000837BD4680BD00BF00100140A00200200C
:101B88009401002080B582B000AF0346FB71084A7B
:101B9800FB791370FB7983F00103DBB21A464FF42B
:101BA8008071044804F02EFF00BF0837BD4680BD91
:101BB800D10200200010024080B582B000AF00F0D2
:101BC800C6FA0346012B01D1002311E000F0C7FA41
:101BD8000346FB71FB79022B01D1022308E0FB7954
:101BE800032B02D0FB79042B01D1032300E001234E
:101BF80018460837BD4680BD80B483B000AF0346A1
:101C0800FB71FB79002B02D14FF47A730BE0FB795F
:101C1800022B02D14FF4FA7305E0FB79032B01D1B3
:101C2800C82300E0002318460C37BD465DF8047B46
:101C38007047000080B582B000AF03463960FB7181
:101C4800094AFB791370094A3B681360FB79012B39
:101C580003D10020FFF796FF02E00120FFF792FF73
:101C680000BF0837BD4680BDD3020020D402002043
:101C780098B500AF094B00221A70094B00221A7060
:101C8800FFF79AFF03461C4603F0E8FF0346194690
:101C98002046FFF7CFFF00BF98BD00BFD00200204D
:101CA800D202002080B584B000AF244B1B78012BF2
:101CB80005D1234B1B781846FFF764FF3BE003F080
:101CC800CDFFF860FFF778FF0346FB721D4B1B78CA
:101CD800FA7A9A4205D0FB7AF9681846FFF7AAFF04
:101CE80029E0184B1B781846FFF786FF78607B6859
:101CF800002B06D10020FFF745FF134AFB6813604D
:101D080019E0114B1B68FA68D31A7A689A4212D8FC
:101D18000D4AFB6813600D4B1B78002B14BF012381
:101D28000023DBB283F00103DBB203F00103DBB273
:101D38001846FFF727FF1037BD4680BDD0020020A8
:101D4800D2020020D3020020D4020020D1020020B9
:101D580098B500AF074B00221A70FFF72DFF034616
:101D68001C4603F07BFF034619462046FFF762FF37
:101D780000BF98BDD002002080B582B000AF0346F6
:101D8800FB71074B01221A70064AFB791370FB7925
:101D98001846FFF7F7FE00BF0837BD4680BD00BFF5
:101DA800D0020020D202002080B400AF034B1B7881
:101DB8001846BD465DF8047B704700BFD00200207E
:101DC80080B400AF034B1B781846BD465DF8047B12
:101DD800704700BFD102002080B483B000AF7860A4
:101DE80039607B68AA221A707B68012283F8252053
:101DF8007B68002283F826207B68AA2283F82720A4
:101E08007B683A689A627B68012283F82C2000BFBD
:101E18000C37BD465DF8047B704780B582B000AFD3
:101E28007860786800F004F800BF0837BD4680BDC8
:101E380080B483B000AF78607B68002B13D07B68D8
:101E4800002283F825207B68002283F826207B68FF
:101E5800002283F827207B6800229A627B68002290
:101E680083F82C2000E000BF0C37BD465DF8047BEA
:101E7800704780B582B000AF786039607B68002B0E
:101E880007D07B6893F82C3083F00103DBB2002B7A
:101E980001D000230BE07B689B6A3A68D31A042BB5
:101EA80001D8002303E07868FFF7C2FF0123184632
:101EB8000837BD4680BD80B586B000AFF8607A604F
:101EC8003B600B46FB72FB68002B02D03B68002B83
:101ED80001D102239DE07968F868FFF7CAFFFB6823
:101EE80093F82C3083F00103DBB2002B08D0FB7A87
:101EF800AA2B03D17968F868FFF76EFF002388E002
:101F0800FB6893F82530242B0BD9F868FFF790FF6E
:101F1800FB7AAA2B03D17968F868FFF75DFF0223E3
:101F280077E0FB6893F825301946FB68FA7A5A542B
:101F3800FB687A689A62FB6893F82530032B14D102
:101F4800FB7A202B0BD9F868FFF772FFFB7AAA2BD4
:101F580003D17968F868FFF73FFF022359E0FB7A5D
:101F68000533DAB2FB6883F82620FB6893F826303D
:101F7800002B3CD0FB6893F82520FB6893F82630AB
:101F8800013BDBB29A4232D1FB6893F82730FA7AE8
:101F98009A4202D00323FB751AE0FB685A783B6823
:101FA8001A70FB689A783B685A70FB68DA783B6865
:101FB8009A703B689B78002B08D03B68D81CFB685C
:101FC800191D3B689B781A46FEF744F90123FB75F7
:101FD800F868FFF72DFFFB7D012B06D0FB7AAA2BB3
:101FE80003D17968F868FFF7F7FEFB7D11E0FB681D
:101FF80093F82720FB7A5340DAB2FB6883F827204E
:10200800FB6893F825300133DAB2FB6883F82520A2
:10201800002318461837BD4680BD80B485B000AF90
:10202800786039600023FB737B68002B04D13B6820
:10203800002B01D0002311E00023BB6009E07A687F
:10204800BB6813441A78FB7B5340FB73BB680133AE
:10205800BB60BA683B689A42F1D3FB7B18461437D9
:10206800BD465DF8047B704790B585B000AF3A6017
:102078001A460346FB710B46BB7113467B713B6ADC
:10208800002B08D07B79202B05D83B68002B04D186
:102098007B79002B01D000232EE07B790533FB737D
:1020A80097F82420FB7B9A4201D2002324E03B6A64
:1020B800AA221A703B6A0133FA791A703B6A023312
:1020C800BA791A703B6A03337A791A707B79002BD4
:1020D80006D03B6A04337A7939681846FEF7BAF8AD
:1020E800FB7B591EFB7B013B3A6AD418386AFFF721
:1020F80094FF03462370FB7B18461437BD4690BDFA
:1021080080B582B000AF00F023FE0346FB71FB7977
:10211800002B01D100230AE0FB79012B01D1012317
:1021280005E0FB79022B01D1022300E003231846C6
:102138000837BD4680BD80B500AF00F0A3FD00BFE5
:1021480080BD80B500AF00F0DDFD00BF80BD80B46C
:1021580000AF02231846BD465DF8047B704780B582
:1021680000AFFFF7CDFF0346184680BD80B483B0AB
:1021780000AF0346FB710B46BB8013467B800423EC
:1021880018460C37BD465DF8047B704780B582B0B1
:1021980000AF78607B68002B1FD07B6802221A7022
:1021A800FFF7AEFF03461A467B685A7000F0DCFD65
:1021B80003461A467B689A707B689A787B68DA705F
:1021C8007B6800221A717B6800225A717B680022A2
:1021D800DA807B6800221A8100E000BF0837BD461C
:1021E80080BD80B483B000AF0346FB80FB88013319
:1021F8009BB2DBB29BB218460C37BD465DF8047B38
:102208007047000080B584B000AF0346FB710F4BE8
:102218001B88FB81FB891846FFF7E3FF0346BB8158
:102228000B4B1B889BB2BA899A4205D1094B9B6814
:102238000133084A936006E0FB890749FA79CA54D2
:10224800024ABB8913801037BD4680BDDC030020DD
:10225800DE0300200C040020DC02002080B582B0E0
:1022680000AF1A4B93F83E30DBB2222B04D1184B47
:1022780000221A70012325E0144B93F83E30DBB29C
:10228800202B04D0124B01221A7000231AE00122DD
:1022980010490E4805F08AF90346FB71FB79002BBB
:1022A80004D10B4B00221A7001230BE0084B0122CA
:1022B8001A70FB79022B04D0074BDB680133064AFE
:1022C800D360002318460837BD4680BDD8010020DA
:1022D800E0030020D80200200C04002080B500AFE5
:1022E800194B00221A70194B00221A80184B002231
:1022F8001A80184B00221A70174B00221A70174BBD
:1023080000221A70164B00221A60154B00225A60E0
:10231800134B00229A60124B0022DA60104B002205
:102328001A610F4B00225A610D4B00229A61FFF788
:1023380095FF034683F00103DBB2002B02D0054B67
:1023480001221A7000BF80BDD8020020DC030020E3
:10235800DE030020E0030020090400200A04002016
:102368000C04002080B500AF044B1B78DBB2002BB7
:1023780001D0FFF773FF00BF80BD00BFE00300205E
:1023880080B584B000AF78600B46FB707B68002B8B
:1023980005D0FB78002B02D0FB78252B06D9234BE0
:1023A8005B690133214A536100233AE0204B1B78D3
:1023B800DBB2002B05D11F4B93F83D30DBB2202B4D
:1023C80001D000232DE00023FB7309E0FB7B7A6832
:1023D8001A44FB7B1178184AD154FB7B0133FB73F9
:1023E800FA7BFB789A42F1D3144B00221A70104BF7
:1023F80001221A70FB789BB21A460F490D4805F066
:1024080090F80346BB73BB7B002B09D0084B002216
:102418001A70064B5B690133044A5361002300E0DC
:10242800012318461037BD4680BD00BF0C040020AC
:1024380009040020D8010020E40300200A04002039
:1024480080B400AF0A4B1B78DBB2002B05D1094BD7
:1024580093F83D30DBB2202B01D0012300E00023AC
:1024680003F00103DBB21846BD465DF8047B7047F4
:1024780009040020D801002080B400AF074B1B7866
:10248800DBB2002B01D1002303E0044B00221A70B9
:1024980001231846BD465DF8047B70470A040020F6
:1024A80080B584B000AF78607B68002B07D0104BF4
:1024B8001B889AB20F4B1B889BB29A4201D100230A
:1024C80011E00C4B1B88FB81FB890B4AD35CDAB209
:1024D8007B681A70FB891846FFF783FE03461A4685
:1024E800044B1A80012318461037BD4680BD00BF33
:1024F800DC030020DE030020DC02002080B582B06F
:1025080000AF134B1B78FB71124B1B680133114A48
:102518001360114B1B78DBB2002B05D00D4B5B68A9
:1025280001330C4A536003E0FB791846FFF76AFE53
:10253800FFF794FE034683F00103DBB2002B02D0C1
:10254800064B01221A7000BF0837BD4680BD00BF88
:10255800D80200200C04002009040020E003002019
:1025680080B400AF054B00221A70054B01221A7087
:1025780000BFBD465DF8047B704700BF090400201A
:102588000A04002080B483B000AF7860084A7B68F2
:102598009361074B1B690133054A1361054B0122FF
:1025A8001A7000BF0C37BD465DF8047B704700BF4A
:1025B8000C040020E003002080B487B000AFF8606E
:1025C800B9601346FB710023FB750EE0FB7DFA68CA
:1025D80013441A78FB7DB9680B441B789A4201D0E2
:1025E800002307E0FB7D0133FB75FA7DFB799A42F6
:1025F800ECD3012318461C37BD465DF8047B7047B1
:1026080080B483B000AF78607B681B78012B05D15C
:102618007B685B78022B01D1012300E0002303F0E3
:102628000103DBB218460C37BD465DF8047B7047E2
:1026380080B582B000AF78607B689B78042B0BD1A3
:102648007B680333042208491846FFF7B5FF0346A1
:10265800002B01D0012300E0002303F00103DBB2CB
:1026680018460837BD4680BD34AC000880B582B036
:1026780000AF78607B689B78042B0BD17B680333B1
:10268800042208491846FFF797FF0346002B01D09C
:10269800012300E0002303F00103DBB218460837EA
:1026A800BD4680BD38AC000880B588B002AFF86080
:1026B8007B600B46FB721346BB721D4B1B78002BCD
:1026C80003D11C4B1B78002B06D01B4BDB6B013353
:1026D800194AD363002327E0FB7A25220192174A7F
:1026E8000092FA6801210220FFF7BEFC0346FB7541
:1026F800FB7D002B06D1104B9B6B01330E4A936375
:10270800002311E00E4AFB7D13700E4ABB7A13704A
:102718000D4A7B681360064B01221A70064B1B6B2F
:102728000133054A1363012318461837BD4680BD97
:1027380086060020870600209806002060060020F4
:10274800850600208C0600208806002080B483B00F
:1027580000AF0C4B1B78FB710A4B00221A70FB79F7
:10276800012B03D1084B01221A7005E0FB79022BDB
:1027780002D1054B02221A7000BF0C37BD465DF826
:10278800047B70478C0600205804002080B500AFF9
:10279800FFF772FE034683F00103DBB2002B11D171
:1027A8000A4B1B7883F00103DBB2002B0CD1074BDB
:1027B80000221A70064B5B6B0133054A5363FFF71F
:1027C800C5FF02E000BF00E000BF80BD8706002013
:1027D8009806002080B582B000AF78601B4B1B784C
:1027E80083F00103DBB2002B27D1194B1B78002B98
:1027F80023D1184B1B687A68D31A012B1FD9FFF70E
:102808001FFE0346002B1CD1134B1B781946134897
:10281800FFF7B6FD034683F00103DBB2002B05D0BA
:102828000F4B9B6B01330E4A93630BE0074B00225F
:102838001A70074B01221A7004E000BF02E000BFC3
:1028480000E000BF0837BD4680BD00BF86060020F7
:1028580087060020880600208506002060060020E4
:102868009806002080B582B000AF78607B680122AE
:1028780004210B48FFF718FF034683F00103DBB27E
:10288800002B08D1074A7B681360074B1B6901338B
:10289800054A136100E000BF0837BD4680BD00BF90
:1028A80038AC0008900600209806002080B582B059
:1028B80000AF7860144B1B687A68D31AB3F5FA7FB7
:1028C80008D3124B00221A70114B9B690133104A2E
:1028D800936115E07B68022204210E48FFF7E4FEAD
:1028E800034683F00103DBB2002B08D10A4A7B6858
:1028F8001360074B5B690133054A536100E000BF71
:102908000837BD4680BD00BF90060020580400204F
:102918009806002034AC00089406002080B584B0E6
:1029280000AF786039607B681B791BB21B021AB252
:102938007B685B791BB213431BB2FB817B689B7975
:102948001BB21B021AB27B68DB791BB213431BB2A2
:10295800BB81FB89B3F5807F05D9134B9B6A013393
:10296800114A93621CE07B68D81C7B6899783B68A5
:102978000022FFF799FE034683F00103DBB2002B28
:102988000DD1FB890949BA8921F81320084A3B6807
:102998001360054BDB690133034AD36100E000BFD4
:1029A8001037BD4680BD00BF980600205C0400209B
:1029B8009406002080B586B000AF786039607B68E7
:1029C8001B791BB21B021AB27B685B791BB21343DB
:1029D8001BB2FB82FB8AB3F5807F05D91A4B9B6A31
:1029E8000133194A93622BE0FB8A184A32F81330F4
:1029F800BB8206233B737B681B797B737B685B799F
:102A0800BB73BB8A1B0A9BB2DBB2FB73BB8ADBB20C
:102A18003B7407F10C003B6800220521FFF744FED8
:102A2800034683F00103DBB2002B08D1084A3B6858
:102A38001360054B1B6A0133034A136200E000BFB1
:102A48001837BD4680BD00BF980600205C040020F2
:102A58009406002080B582B000AF786039607B684A
:102A68009B78052B05D0174B5B6A0133154A5362D7
:102A780024E07B68DB78032B04D139687868FFF79A
:102A88004DFF1BE07B68DB78062B12D17B689B79B6
:102A9800002B03D17B68DB79002B05D0094B5B6ADF
:102AA8000133084A536209E039687868FFF782FF02
:102AB80004E0044BDB6A0133024AD3620837BD469F
:102AC80080BD00BF9806002080B582B000AF786056
:102AD80039607868FFF794FD034683F00103DBB2A1
:102AE800002B05D01E4B5B6A01331D4A536233E04D
:102AF8001C4B1B78002B03D11B4B1B78002B05D0DC
:102B0800174BDB6B0133164AD36325E07868FFF770
:102B18008FFD0346002B03D03868FFF7A3FE1BE0A8
:102B2800124B1B78012B09D17868FFF79FFD0346EC
:102B3800002B03D03868FFF7B9FE0DE00B4B1B786C
:102B4800022B04D139687868FFF784FF04E0044B4E
:102B58005B6A0133024A53620837BD4680BD00BF35
:102B680098060020860600208706002058040020CA
:102B780080B58CB000AF78602DE097F82E1007F183
:102B880008037A681A48FFF796F9034687F82F3042
:102B980097F82F30012B0BD1164B1B680133154AC0
:102BA800136007F1080379681846FFF78DFF12E0F4
:102BB80097F82F30032B05D10E4B5B6801330D4A74
:102BC800536008E097F82F30022B04D1094B9B681B
:102BD8000133084A936007F12E031846FFF760FC9B
:102BE8000346002BC9D100BF00BF3037BD4680BDAA
:102BF800280400209806002080B483B000AF7860D5
:102C08001A4B1B78002B2BD1194B1B78002B27D183
:102C1800184B1B78012B0FD1174B1B687A68D31AF6
:102C2800B3F5FA7F1DD3134B00221A70134B9B691F
:102C38000133124A936114E00E4B1B78022B10D11A
:102C48000F4B1B687A68D31AB3F5FA7F09D3094B7F
:102C580003221A70094B1B6C0133084A136400E005
:102C680000BF0C37BD465DF8047B70478606002020
:102C780087060020580400209006002098060020AF
:102C88009406002080B500AF1348FFF7C6F840F25D
:102C980002220021114807F0D5FE442200211048E5
:102CA80007F0D0FE0F4B00221A700F4B00221A704B
:102CB8000E4B00221A700E4B00221A700D4B002288
:102CC8001A600D4B00221A700C4B00221A600C4B34
:102CD80000221A6000BF80BD280400205C04002088
:102CE800980600205804002085060020860600204B
:102CF80087060020880600208C0600209006002009
:102D08009406002080B582B000AF02F0A7FF78607B
:102D180079680D48FFF7ADF80346002B04D00B4B3C
:102D2800DB680133094AD360FFF730FD7868FFF7A5
:102D38001FFF7868FFF74EFD7868FFF75DFF00BF5B
:102D48000837BD4680BD00BF280400209806002033
:102D580080B400AF034B1B781846BD465DF8047B72
:102D6800704700BF5804002080B400AF094B1B789F
:102D7800002B03D1084B1B78002B01D0012300E066
:102D8800002303F00103DBB21846BD465DF8047B5F
:102D9800704700BF86060020870600202DE9B04F47
:102DA8009AB000AF78643964FA637B6C002B03D067
:102DB8007A6C764B9A4201D90023E1E07B6C0022C1
:102DC8003B637A63D7E90C234FF000004FF0000112
:102DD800190441EA1241100402460B46396BB2EB62
:102DE800010A796B63EB010BC7E914ABD7E914232C
:102DF80067495118B96243F10003FB62D7E914230C
:102E0800D7E90A01FDF70CFA02460B46C7E9182371
:102E1800D7E91823134305D14FF001024FF00003FF
:102E2800C7E91823D7E91823B2F1011F73F100038A
:102E380001D30023A4E07B6C00223B627A627B6EA4
:102E4800D7E908AB524602FB03F23B6E594601FB39
:102E580003F31A443B6E5146A3FB014553191D4623
:102E6800C7E91245C7E91245D7E912014FF0000238
:102E78004FF00003420842EAC1724B084549511815
:102E8800B96143F10003FB61D7E91223D7E90601D1
:102E9800FDF7C6F902460B46C7E91623D7E91623FC
:102EA800022A73F1000346D2D7E91823B2F5803F0E
:102EB80073F1000301D3002362E0D7E91823511C02
:102EC800396043F100037B60D7E90034C7E918345F
:102ED8007B6C00223B617A617B6ED7E90445224610
:102EE80002FB03F23B6E294601FB03F313443A6EDF
:102EF8002146A2FB01894B449946C7E91289C7E9D3
:102F08001289D7E912014FF000024FF0000342087E
:102F180042EAC1724B081F495118B96043F10003D6
:102F2800FB60D7E91223D7E90201FDF779F90246D8
:102F38000B46C7E91623D7E91623022A73F10003C3
:102F480006D3D7E91623B2F5803F73F1000301D306
:102F5800002315E0D7E91823134306D0D7E918232F
:102F6800B2F1011F73F1000301D3002308E03B6EA7
:102F78005A1E3B6C1A60BB6D5A1EFB6B1A6001230C
:102F880018466837BD46BDE8B08F00BFA08601006F
:102F9800FFBC010500BD01052DE9B04F88B000AFA9
:102FA800F8607981F96800208846814618F1010A9D
:102FB80049F1000BC7E904AB798900200C460546A6
:102FC800396905FB01F0796904FB01F101443869AD
:102FD800A0FB042319440B4641F28831511839608B
:102FE80043F100037B6042F210724FF00003D7E90F
:102FF8000001FDF715F902460B46C7E90623D7E994
:103008000623B2F5803F73F1000305D34FF6FF7234
:103018004FF00003C7E90623BB6918462037BD46B1
:10302800BDE8B08F2DE9B04FB4B000AFC7F8840049
:103038000B46A7F88230B7F8822042F210739A4202
:1030480001D90023C6E107F1880207F18C0319466C
:10305800D7F88400FFF7A2FE034683F00103DBB232
:10306800002B01D00023B5E1D7F88820B7F88230CB
:1030780019461046FFF790FFC7F8CC00D7F88C30F8
:1030880001330022BB67FA67D7F888300133002282
:103098003B677A67D7E91E010B463A6F02FB03F2DA
:1030A8007B6FC7E91E01014601FB03F31344BA6FA6
:1030B800396FA2FB01894B449946C7E93089C7E9B2
:1030C8003089D7E930234FF000004FF00001500855
:1030D80040EAC3705908C24BC318BB6641F10003EC
:1030E800FB66D7E93023D7E91A01FDF799F80246BC
:1030F8000B461346C7F8BC30D7F8883000223B6629
:103108007A66D7E918120B460133BB62134643F1BE
:103118000003FB62D7E90A23C7E92C23D7F8CC3090
:103128000022BB65FA65D7E9168942464B464FF03F
:1031380000004FF00001990041EA927190000246A8
:103148000B4641465418494643EB01054FF000022F
:103158004FF00003EB0043EA5473E20014461D46A7
:103168004346B4EB030A404649460B4665EB030B5E
:103178004FF000024FF000034FEA0B1343EA1A73B3
:103188004FEA0A1292469B4603461AEB03033B6238
:103198000B464BEB03037B624FF000024FF000033A
:1031A800D7E9084529460B01214643EA1173214610
:1031B8000A0114461D46D7E92C234FF000004FF0B2
:1031C8000001500840EAC370590823183B6545EBD5
:1031D80001037B65D7E92C23D7E91401FDF720F813
:1031E80002460B461346A7F8AE30D7F8BC3000228B
:1031F800BB64FA64D7F8843000223B647A64D7E968
:1032080012452346D7E9100102469B1ABB612B469B
:103218000A4663EB0203FB61D7E90634C7E92834A1
:10322800D7E9280102460B464FF000044FF000058D
:103238005D0145EAD265540122462B46141A3C61C9
:1032480063EB01037B614FF000024FF00003D7E905
:1032580004894C466302444643EAD4534446620216
:1032680014461D4623461B18BB602B4641EB03033F
:10327800FB604FF000024FF00003D7E902894C468B
:10328800A301444643EA94634446A2014446141BFE
:103298003C604C4663EB04037B60D7E9004523465A
:1032A8001B18BB632B4641EB0303FB63D7F8843041
:1032B80000223B637A63D7E90C23D7E90E01FCF7B8
:1032C8005FFF02460B46C7E92823D7F8A030C7F8A6
:1032D8009C30444B1B68C7F89830434B1B68C7F8B1
:1032E8009430424B1B68C7F890300021404805F0E5
:1032F800BBFA3F4B1B68D7F88C209A623C4B1B6883
:10330800D7F88820DA62D7F88830394AD360384B42
:103318001B68D7F8CC205A63354B1B6800225A62C9
:10332800334B1B6801225A61314B1B686FF0010255
:103338001A6100212E4805F0CFF90346002B25D04D
:103348002B4B1B68D7F898209A62294B1B68D7F833
:103358009420DA62264AD7F89430D360244B1B684D
:10336800D7F890205A63224B1B6800225A62204BE0
:103378001B6801225A611E4B1B686FF001021A611B
:1033880000211B4805F0A8F9002323E0194AD7F8C3
:1033980084301360184AD7F8BC301360174AD7F83E
:1033A8009C301360164AB7F882301380154AB7F874
:1033B800AE301380D7F88C300A4A1360D7F88830BB
:1033C800094A1360094AD7F8CC3013600E4B012222
:1033D8001A7001231846D037BD46BDE8B08F00BF2C
:1033E80000BD01050C000020100000201400002082
:1033F800841100200000002004000020DC060020CA
:10340800080000200A0000201900002080B500AF45
:1034180041F288314FF47A70FFF704FE03461846EC
:1034280080BD000080B582B000AF7860054B1B8876
:1034380019467868FFF7F6FD034618460837BD4673
:1034480080BD00BF0800002080B582B000AF0346F1
:10345800FB80064B1B68FA8811461846FFF7E2FD09
:10346800034618460837BD4680BD00BF000000204F
:1034780080B582B000AF0346FB71154AFB79137023
:10348800FB79002B09D0134B1B68134A128811468D
:103498001846FFF7C7FD034616E0104B1B7883F06C
:1034A8000103DBB2002B01D001230DE00C4B1B689C
:1034B80000225A630B4B00221A600B4B00221A8021
:1034C800064B01221A70012318460837BD4680BDF5
:1034D800180000200000002008000020190000202B
:1034E80084110020140000200A00002080B400AFDE
:1034F800034B1B781846BD465DF8047B704700BF38
:103508001800002080B400AF034B1B681846BD4666
:103518005DF8047B704700BF0400002080B400AF52
:10352800034B1B881846BD465DF8047B704700BFF7
:103538000800002080B400AF034B1B881846BD4626
:103548005DF8047B704700BF0A00002080B485B096
:1035580000AF78607968002901D100231CE0114888
:103568007968B0FBF1F100200A460346C7E9022357
:10357800D7E90223B2F57A7F73F1000308D3D7E9BC
:10358800022309498A4273F1000301D2012300E0B2
:10359800002303F00103DBB218461437BD465DF87B
:1035A800047B704700CA9A3B414B4C0080B500AF82
:1035B8003F4B1B681A6A41F211131340002B0FD1BD
:1035C8003B4B1B681A6A40F244431340002B07D157
:1035D800374B1B681A68364B1B6822F001021A60C9
:1035E800334B1B68DA68324B1B6822F00102DA6041
:1035F8002F4B1B6800225A622D4B1B6801225A610F
:103608002B4B1B686FF001021A61294B1B686FF086
:1036180002021A61264B1B686FF400721A61254B6F
:1036280000221A60244B00221A70244B00221A70C0
:10363800234B00221A70234B00221A60224B0022CF
:103648001A70224B00221A70214B00221A604FF484
:103658000071204803F0BEF90346012B0CBF01237B
:103668000023DBB21A461C4B1A701C4B00221A703E
:103678001A4B00229A770E4B1B68DA680C4B1B68B2
:1036880042F00102DA600021094805F0B7F9034663
:10369800002B09D0064B1B68DA68054B1B6822F023
:1036A8000102DA60002300E00123184680BD00BF54
:1036B800F4100020E0060020FE060020FF0600208F
:1036C8000007002018070020F0060020FC06002054
:1036D800E406002000100240FD060020200700201C
:1036E8002DE9B04F90B000AF7861796909687148E9
:1036F800814240F0D980796909680969B963B96B71
:1037080001F4007100292BD07B691B686FF40072EB
:103718001A61694B1B680133674A1360664B1B6863
:10372800664A1360664B00221A70664B00221A70B4
:10373800654B00221A70654B00221A70644B0022F8
:103748001A704FF40071634803F044F90346012BE3
:103758000CBF01230023DBB21A465F4B1A70A4E0AA
:1037680079690968496B79635C490968F963B96BD8
:1037780001F00101002906D0796BB1F5004F02D2A2
:10378800F96B0131F963F96B0020884681464FEAED
:1037980018434FEA0842796B00200C46054642EA76
:1037A8000401B9602B43FB60D7E90234C7E90A3446
:1037B80002F054FA03464A4A1360474B1B78002B21
:1037C80066D1404B1B78002B56D03F4B1B78002B03
:1037D80052D0444BD3E90023D7E90A01841A3C604C
:1037E80061EB03037B60D7E90034C7E908343E4B3B
:1037F800D3E90023D7E90A01B0EB020A61EB030B16
:10380800C7E906ABD7E9082313432FD0D7E9082324
:10381800012B2BD2D7E90623D7E90801904271EB97
:10382800030323D33B6A1846FFF790FE0346002B99
:103838001CD02E4B1B6801332C4A13603B6A2C4A60
:103848001360BB692B4A13601B4B1B681B4A136030
:10385800234B1B68284A13601D4B01221A701B4B0F
:1038680001221A70164B01221A7005E0144B00222F
:103878001A70174B00221A701A49D7E90A23C1E9AE
:103888000023104B01221A70134B01221A700CE00E
:103898001549D7E90A23C1E900230B4B01221A7005
:1038A8000D4B00221A7000E000BF4037BD46BDE84E
:1038B800B08F00BF0000014018070020F406002068
:1038C800FE060020FF06002000070020F00600206A
:1038D800FC06002000100240FD060020E006002043
:1038E8001C0700200807002010070020E40600201D
:1038F800E8060020EC060020F806002080B483B01B
:1039080000AF78607B681B68074A934205D1074B74
:103918001B680133054A136000E000BF0C37BD4641
:103928005DF8047B704700BF00000140E0060020FE
:103938002DE9B04F9AB000AF9F4B1B68FB659F4BBA
:103948001B7887F85B309E4B1B687B659D4B1B681B
:103958003B659D4B1B68FB649C4B1B68BB649C4B85
:103968001B7887F84730944B1A68FB6D934240F0F8
:103978001D8102F073F938643A6CBB6C9A4203D328
:103988003A6CBB6CD31A00E00023FB63914B1B69B4
:1039980003F40073002B01D0012300E0002387F813
:1039A8003B3097F85B3083F00103DBB2002B06D184
:1039B80097F8473083F00103DBB2002B36D0FB6B5E
:1039C80040F6C41293421CD997F83B30002B03D021
:1039D800814B02221A7002E07F4B03221A707E4A42
:1039E80097F83B30D3777C4B00229A777A4AFB6B67
:1039F80053617A4B1B68784A9361794A3B6C136030
:103A0800D5E0754B00221A70734A97F83B30D3778C
:103A1800714B00229A77704AFB6B53616F4B1B689E
:103A28006D4A93616E4A3B6C1360C0E0FA6B40F6D6
:103A3800C4139A421BD997F83B30002B03D0664B2E
:103A480002221A7002E0644B03221A70624A97F845
:103A58003B30D377604B00229A775F4AFB6B536108
:103A68005D4AFB6C93615E4A3B6C13609FE05D4A64
:103A78007B6DB2FBF3F300221C461546C7E90C45E3
:103A88003B6D0022BB60FA60D7E90234C7E90A340B
:103A9800D7E90A4522462B464FF000004FF00001B7
:103AA800990041EA9271900002460B4612EB040815
:103AB80043EB05094FF000024FF000034FEAC9033A
:103AC80043EA58734FEAC80290469946B8EB040A8D
:103AD80069EB050B4FF000024FF000034FEA0B13A0
:103AE80043EA1A734FEA0A1292469B461AEB0403FA
:103AF8003B604BEB05037B604FF000024FF0000387
:103B0800D7E9004529460B01214643EA11732146AE
:103B18000A01796D4908002039627862D7E90845B9
:103B280021465118B961294643EB0101F9617B6DC2
:103B380000223B617A61D7E90423D7E90601FCF743
:103B48006FFB02460B46C7E91823D7E9182342F250
:103B580011718A4273F1000305D342F210724FF0DB
:103B68000003C7E918231C4B01221A703B6B1A4A41
:103B780053603B6E184A9360174A7B6DD360BB6AEB
:103B8800154A1361144AFB6B5361134AFB6C93612A
:103B9800114BA7229A83104B01229A770E4A97F865
:103BA8003B30D3770E4A3B6C136000E000BF6837A8
:103BB800BD46BDE8B08F00BFE4060020F006002037
:103BC800E8060020EC060020F4060020F806002095
:103BD800FC060020001002402007002018070020E3
:103BE8004007002000CA9A3BB0B483B000AF7860A9
:103BF8007B68002B01D100230AE07B68074A1C463A
:103C080015460FCD0FC495E80F0084E80F00012377
:103C180018460C37BD46B0BC704700BF20070020CF
:103C280080B584B000AF3B4600221A605A609A60A3
:103C3800DA60294B294A1A60274B4FF480325A60C0
:103C4800254B00229A60244B01221A61224B002244
:103C58001A76214B002283F820201F4B4FF0805208
:103C6800DA621D4B4FF0C0629A621B4B0022DA6089
:103C7800194B0222DA61184B012283F83020164BC7
:103C880001225A61144805F0F7FF0346002B01D0C2
:103C9800FCF722FD00233B6001237B600723BB6008
:103CA8003B4619460C4806F09FF90346002B01D005
:103CB800FCF712FD09233B6002237B603B46194653
:103CC800054806F091F90346002B01D0FCF704FDE6
:103CD80000BF1037BD4680BD4407002000200140CA
:103CE80080B58AB000AF786007F1140300221A602B
:103CF8005A609A60DA601A617B681B683C4A934292
:103D080071D100233B613B4B5B6C3A4A43F48073AF
:103D18005364384B5B6C03F480733B613B6900234D
:103D2800FB60344B1B6B334A43F001031363314B85
:103D38001B6B03F00103FB60FB680023BB602D4B8A
:103D48001B6B2C4A43F0020313632A4B1B6B03F0D3
:103D58000203BB60BB6801237B610323BB610023B3
:103D6800FB6107F114031946234802F097FC02236C
:103D78007B610323BB610023FB6107F11403194630
:103D88001E4802F08BFC1E4B1E4A1A601C4B002278
:103D98005A601B4B00229A60194B0022DA60184BBC
:103DA8004FF480621A61164B4FF400625A61144B4B
:103DB8004FF400529A61124B4FF48072DA61104B43
:103DC80000221A620E4B00225A620D4802F064F873
:103DD8000346002B01D0FCF77FFC7B68084A9A63F6
:103DE800074A7B68936300BF2837BD4680BD00BF84
:103DF8000020014000380240000002400004024058
:103E08008C0700201064024080B400AF01231846DC
:103E1800BD465DF8047B70472DE9B04F8AB000AF0E
:103E28000346B960FB81BB68002B02D0FB89002BDD
:103E380001D1002343E024A3D3E90023C7E90823E1
:103E4800FB895B089BB29BB200221C461546D7E94A
:103E5800082314EB020A45EB030BFB8900223B60A5
:103E68007A60D7E9002350465946FCF7D9F902464B
:103E78000B46C7E9062346F298224FF00003C7E92C
:103E88000423D7E90623D7E90401904271EB030321
:103E980001D3002313E0D7E90601D7E90423B0EBE7
:103EA800020861EB0309C7E90689D7E90623012B54
:103EB80001D3002303E0BA69BB681A6001231846DE
:103EC8002837BD46BDE8B08FF0D87002000000006A
:103ED80080B485B000AF0346FB80FB8840F6E4421F
:103EE80002FB03F3FB60FB6803F2FF72074BA3FBC3
:103EF8000213D21A52081344DB0AFB60FB689BB218
:103F080018461437BD465DF8047B70470101100060
:103F180080B588B000AF786039607B68002B02D02C
:103F28003B68002B01D1002350E03B6807EE903A34
:103F3800B8EE677ADFED276AC7EE267AC7ED077A0B
:103F480097ED070A06F0F0FA87ED060A97ED067A6C
:103F5800DFED216AC7EE267A9FED207A37EE877A61
:103F6800F7EE006AC6EE877AC7ED057AD7ED057ACF
:103F78009FED1B7A77EEC77AC7ED047AD7ED047AFE
:103F88009FED187A67EE877A97ED047AB5EEC07AD6
:103F9800F1EE10FA02DBB6EE007A01E0BEEE007A2E
:103FA80077EE277AFDEEE77A17EE903AFB60FB682A
:103FB80013F5004F03DBFB68B3F5004F01DB00236B
:103FC80004E0FB681AB27B681A8001231846203780
:103FD800BD4680BD00209E4500F06F45279D6B3B88
:103FE800339388430000C84280B584B000AF78603E
:103FF8000023FB607B68002B01D100230EE007F152
:104008000C031946786800F071FD034683F001033C
:10401800DBB2002B01D0002300E001231846103743
:10402800BD4680BD80B500AF174B00221A70164BF5
:1040380000225A80144B00229A80134B00229A6067
:10404800114B00229A81104B4FF6FF72DA810F4B09
:1040580000221A600E4B00221A600E4B00221A70C2
:10406800FFF7D2FE034683F00103DBB2002B04D036
:10407800054B06221A70002303E0064B01221A7032
:104088000123184680BD00BFEC070020FC07002074
:10409800000800200408002080B584B000AF444B1D
:1040A8001B7883F00103DBB2002B7BD101F0D6FD36
:1040B800F860404B1B68FA68D31AF92B74D93D4A4B
:1040C800FB68136000237B8107F10A031846FFF79A
:1040D8008BFF034683F00103DBB2002B03D0364B82
:1040E80002221A7061E07A89334B5A807B8918461C
:1040F800FFF7EEFE03461A462F4B9A8000237B609B
:104108007B893A1D11461846FFF786FE034683F061
:104118000103DBB2002B10D0274B00229A60264BFC
:1041280000229A817B89002B03D1234B03221A702A
:104138003BE0214B04221A7037E07B681E4A9360EB
:1041480000237B807A68BB1C11461846FFF7E0FE07
:10415800034683F00103DBB2002B06D0164B002286
:104168009A81154B05221A701FE0B7F90220124BED
:104178009A81B7F90230002B03DA0F4B03221A7029
:1041880013E0B7F9023041F27072934203DD0A4B33
:1041980004221A7009E0084B01221A70074AFB68CA
:1041A800136002E000BF00E000BF1037BD4680BDCD
:1041B80004080020FC070020EC070020000800206D
:1041C80090B585B000AF78607B68002B01D10023E3
:1041D80029E001F043FDB860154B1B78012B0CD189
:1041E800144B1B68BA689A4204D3124B1B68BA680E
:1041F800D31A00E00023FB6002E04FF6FF73FB6078
:10420800FB68B3F5803F02D2FB689BB201E04FF632
:10421800FF73074AD3817B68054A1C4613460FCBB8
:1042280084E80F00012318461437BD4690BD00BF2F
:10423800EC070020000800202DE9B04F8CB000AF3B
:104248000346FB83FB8B00229846914642464B4629
:104258009118B9605B41FB60D7E9022312EB0804AF
:1042680043EB09054FF000024FF000036B0143EAEE
:10427800D4636201A118396045EB03037B60D7E979
:1042880000120B4613EB080A134643EB090B41F2E5
:1042980088331AEB03033B614BF100037B6142F265
:1042A80010724FF00003D7E90401FBF7B9FF02468B
:1042B8000B46C7E90A23D7E90A23B2F5803F73F111
:1042C800000305D34FF6FF724FF00003C7E90A2336
:1042D800094B1B68BA6A5A63074B1B685B6B7B62A6
:1042E800BB6A7A6A9A420CBF01230023DBB21846E4
:1042F8003037BD46BDE8B08FCC1100202DE9B04F56
:1043080086B000AFF860F9680020884681464046CC
:1043180049464FF000044FF000050D0145EA1075BD
:10432800040120462946B0EB080261EB0903911805
:1043380039605B417B60D7E9002312F5FA7A43F1D3
:10434800000B4FF47A724FF0000350465946FBF7C2
:1043580067FF02460B46C7E90423D7E90423B2F5F1
:10436800803F73F1000301D23B8A01E04FF6FF73EF
:1043780018461837BD46BDE8B08F000080B500AFBD
:1043880001F06CFC0246064B1B68D31A40F2CF7250
:10439800934294BF01230023DBB2184680BD00BFBF
:1043A8002008002080B500AF1C4B00221A701C4B5F
:1043B80000221A701B4B42F210721A801A4B00220C
:1043C8001A801A4B00221A60194B00221A80194BC6
:1043D80000221A60184B00221A60184B00221A603B
:1043E800174B00221A70174B1B6800225A630021D2
:1043F800144804F071F90346002B04D0074B05223A
:104408001A70002307E00F4B1B6800225A630C4BFD
:1044180001221A700123184680BD00BF050800203C
:1044280006080020080800200A08002010080020BC
:1044380014080020180800201C080020200800206C
:1044480024080020CC11002080B582B000AF78602D
:104458000F4B1B88002B15D0FFF790FF0346002B4E
:1044680012D10C4B1B687A68D31AB3F5FA7F0CD3B8
:10447800094B03221A70094B00221A60084B0022CC
:104488001A8002E000BF00E000BF0837BD4680BDCB
:104498000A0800201808002005080020100800203D
:1044A8001408002080B500AF0020FFF7C5FE0346C2
:1044B80083F00103DBB2002B06D00D4B05221A70E6
:1044C8000C4B00221A7011E00B4B00221A80094B8A
:1044D80000221A70064B00221A70084B00221A603C
:1044E800074B00221A80074B00221A6080BD00BFCC
:1044F80005080020060800200A08002010080020EF
:10450800140800201808002080B58EB000AF0346BC
:10451800FB8042F21070FFF78FFE034683F0010321
:10452800DBB2002B0AD00020FFF786FE1E4B0522C7
:104538001A701E4B00221A70002331E000F0A2FB13
:1045480007F10803184600F0FDFD0346002B03D0D1
:104558007B69174A136002E0154B00221A60154B5D
:1045680042F210721A80114B01221A7001F076FB88
:104578000346114A13600C4B01221A7001F06EFBBE
:1045880003460E4A13600E4B00221A600D4B0022A0
:104598001A800D4B00221A600C4AFB8813800123F5
:1045A80018463837BD4680BD05080020060800209B
:1045B8001C0800200A0800200C0800202008002001
:1045C80010080020140800201808002008080020FF
:1045D80080B582B000AF0346FB80184AFB88138081
:1045E800174B1B78012B01D1012322E0FB881846C9
:1045F800FFF722FE034683F00103DBB2002B0AD04B
:104608000020FFF719FE0E4B05221A700D4B0022F1
:104618001A7000230DE00C4AFB881380FB8842F2D5
:104628000F72934201D9022200E00422044B1A704F
:10463800012318460837BD4680BD00BF0808002082
:1046480005080020060800200A08002080B58EB062
:1046580000AF444B1B7883F00103DBB2002B76D10B
:10466800414B1B78012B2DD101F0F8FA02463F4B44
:104678001B68D31AB3F5FA6F6BD33D4B1B881846EA
:10468800FFF7DAFD034683F00103DBB2002B09D004
:104698000020FFF7D1FD344B05221A70354B00225C
:1046A8001A705BE0324B1A88334B1A80304B1B88E8
:1046B80042F20F72934201D9022200E004222A4BEF
:1046C8001A7046E02B4B1B7883F00103DBB2002BFA
:1046D80041D1294B1B88002B3FD001F0BFFA7863EA
:1046E8003B1D184600F02EFD0346002B2BD03B79CE
:1046F800012B28D13A69214B1B689A421FD0BB680D
:104708001F4A1360BB681846FFF7F8FD03461A46B0
:104718001C4B1A801C4A7B6B13603B69174A136059
:10472800114B1B78032B0AD1134B1B8842F20F72D3
:10473800934201D9022200E004220B4B1A70786BD5
:10474800FFF782FE0AE0786BFFF77EFE06E000BF07
:1047580004E000BF02E000BF00E000BF3837BD46FC
:1047680080BD00BF24080020050800200C08002098
:1047780008080020060800200A0800201C0800205D
:1047880010080020140800201808002080B58EB0FA
:1047980000AF03460A46FB711346BB803D4B1B78AE
:1047A80083F00103DBB2002B01D000236EE0FB791C
:1047B80083F00103DBB2002B08D0BB88002B01D0AB
:1047C800002363E0FFF76EFE01235FE0BB88002B48
:1047D8003FD1314B1B7883F00103DBB2002B10D0A3
:1047E80000F050FA07F10803184600F0ABFC034646
:1047F800002B03D07B69294A136002E0274B002273
:104808001A600020FFF718FD034683F00103DBB2AE
:10481800002B07D0224B05221A701F4B00221A705A
:10482800002333E01F4B00221A801B4B01221A7011
:104838001B4B00221A701C4B00221A801B4B0022B3
:104848001A601B4B00221A801A4B00221A6001239F
:104858001CE0BB88B3F57A7F04D3BB8842F21072A0
:10486800934201D9002311E00B4B1B7883F001031D
:10487800DBB2002B05D0BB881846FFF745FE034680
:1048880004E0BB881846FFF7A3FE034618463837EE
:10489800BD4680BD24080020060800201C08002012
:1048A800050800200A080020080800201008002039
:1048B800140800201808002080B584B000AF786084
:1048C8007B68002B01D1002339E01F4B1A787B68E5
:1048D8001A701E4B1A787B685A701D4B1A887B68B1
:1048E8005A801C4B1A887B689A807B6842F2107247
:1048F800DA80194B1A687B689A60184B1A887B68AB
:104908009A81114B1B78002B0AD0154B1B68002B82
:1049180006D001F0A3F90246114B1B68D31A01E037
:104928004FF6FF73FB60FB68B3F5803F02D2FB686C
:104938009AB201E04FF6FF727B68DA8101231846CC
:104948001037BD4680BD00BF0508002006080020BE
:10495800080800200A080020100800201408002079
:104968001808002080B500AF184B00221A70184BA9
:1049780000221A70174B00221A60174B00221A6087
:10498800164B00221A6016494FF000024FF0000340
:10499800C1E90023134B00221A604FF480621249C8
:1049A800124805F0ADF90346002B01D000230BE0B7
:1049B8000F4803F0CFFD0346002B04D00B4805F049
:1049C800AFFA002300E00123184680BD281000201C
:1049D800291000202C100020301000203410002056
:1049E800381000204010002028080020440700202C
:1049F8003C1100202DE9B00F85B000AF344B1B6887
:104A08007B60344B1B687A689A425BD0324B1B78C8
:104A1800DBB2002B27D0304B00221A700023FB603A
:104A28001AE0FB6801332D4A32F813309BB200229A
:104A38001C4615462A4BD3E9002314EB020A45EB22
:104A4800030B274BC3E900AB264B1B680133254AF0
:104A58001360FB680233FB60FB68B3F5007FE0D3AB
:104A68001C4A7B681360204B1B78DBB2002B2AD0D2
:104A78001D4B00221A704FF40073BB601AE0BB682C
:104A88000133164A32F813309BB2002218461146F9
:104A9800134BD3E9002310EB020841EB0309104B39
:104AA800C3E900890F4B1B6801330E4A1360BB68CA
:104AB8000233BB60BB68B3F5806FE0D3054A7B68FF
:104AC800136000E000BF1437BD46BDE8B00F704763
:104AD8003010002034100020281000202808002062
:104AE8003810002040100020291000202DE9B04F78
:104AF80082B000AF786039607B68002B02D03B68D9
:104B0800002B01D1002331E01B4B1B68002B01D186
:104B180000232BE0184B1B685B0800221C46154637
:104B2800164BD3E9002314EB020845EB0309124B9B
:104B38001B6800229A46934652465B4640464946C1
:104B4800FBF76EFB02460B4692B27B681A800A4B53
:104B58001A683B681A6009494FF000024FF00003D9
:104B6800C1E90023044B00221A60012318460837C4
:104B7800BD46BDE8B08F00BF4010002038100020AF
:104B880080B485B000AFF860B9607A60FB68002B2C
:104B980005D0BB68002B02D07B68002B01D1002315
:104BA8000BE0FB68084A1A60BB684FF480621A6021
:104BB800064B1A687B681A60012318461437BD46ED
:104BC8005DF8047B704700BF2808002030100020E3
:104BD80080B400AF034B1B681846BD465DF8047BE4
:104BE800704700BF2C10002080B483B000AF7860FD
:104BF8007B681B680B4A93420DD10B4B1B78DBB2C9
:104C0800002B04D0094B1B680133084A1360064B7C
:104C180001221A7000E000BF0C37BD465DF8047B26
:104C2800704700BF00200140281000202C100020F1
:104C380080B483B000AF78607B681B680D4A9342EC
:104C480012D10D4B1B78DBB2002B04D00B4B1B6829
:104C580001330A4A1360084B01221A70084B1B687B
:104C68000133074A136000E000BF0C37BD465DF80A
:104C7800047B704700200140291000202C100020E0
:104C88003010002080B483B000AF214B00221A708E
:104C9800204B00221A70204B00221A601F4B002262
:104CA8001A601F4B00221A701E494FF000024FF085
:104CB8000003C1E900231C4B00221A601B4B002291
:104CC8001A600023FB7107E0FB79194A002122F8DA
:104CD8001310FB790133FB71FB79092BF4D9154BC0
:104CE80000221A60144B00221A70144B00221A700A
:104CF800134B00221A70124B00225A60104B0022EC
:104D08009A6000BF0C37BD465DF8047B704700BF52
:104D18007C1000207D1000208010002084100020CE
:104D2800901000208810002094100020B810002057
:104D3800BC100020D0100020D4100020D510002076
:104D4800441000202DE9B04386B000AFC7E9000148
:104D5800444B1B7883F00103DBB2002B08D0424997
:104D6800D7E90023C1E900233E4B01221A7075E000
:104D78003D4BD3E90023D7E90001841A61EB030511
:104D8800C7E90445D7E90423532A73F1000305D280
:104D9800364B1B680133354A13605FE0D7E90423BB
:104DA80040F2E9318A4273F1000312D3304B0022FA
:104DB8001A60304B1B6801332E4A13602E4B1B6858
:104DC80001332D4A13602849D7E90023C1E900239C
:104DD80044E02549D7E90023C1E90023244B1B6897
:104DE800B3F1FF3F04D0224B1B680133204A136004
:104DF8003B69224A13601E4B1B68022B2ED9204A9E
:104E08004FF00003C7E90223D7E904014FF000027D
:104E18004FF00003420842EAC1724B08D7E9020189
:104E280012EB000843EB0109D7E904234046494641
:104E3800FBF7F6F902460B46124B5A603B69114ADA
:104E48009360104B01221A700E4BDB6801330D4A38
:104E5800D3600D4B1B6801330B4A13601837BD46EE
:104E6800BDE8B0839010002088100020A810002012
:104E780094100020AC100020B0100020B8100020C2
:104E88008096980044100020B4100020B0B586B079
:104E980000AF3A1D07F1080107F10C031846FFF7A8
:104EA8006FFE034683F00103DBB2002B40F019814B
:104EB8007A688F4B1B689A4200F015817B688C4A90
:104EC80013608C4B40F6FF721A608B4B00221A60FD
:104ED80000237B61D5E0FA687B695B0013441B887B
:104EE8007B827A8A834B1B689A4202D27B8A814AE8
:104EF80013607A8A804B1B689A4202D97B8A7E4A61
:104F080013607E4B1B687E4A127811467D4A32F840
:104F180011209B1A794A1360794B1B781946794AF4
:104F28007B8A22F811307A8A744B1B681344734ABF
:104F38001360734B1B78591C734BA3FB0123DA08CE
:104F480013469B0013445B00CA1AD2B26C4B1A700A
:104F58006E4B1B78092B0BD86C4B1B780133DAB2DC
:104F68006A4B1A706A4B1B680133694A136085E003
:104F7800624B1B680533644AA2FB0323DB083B82B0
:104F8800644B1B78022B52D0022B72DC002B02D010
:104F9800012B26D06DE03B8AB3F5E16F0ED35E4B53
:104FA8001B78022B0AD05B4B01221A70584B1B68E6
:104FB8005A4A13605A4B01221A6055E03B8AB3F5EE
:104FC800617F51D8544B1B78012B4DD0514B022295
:104FD8001A704F4B1B68514A1360514B01221A60DB
:104FE80042E03B8AB3F5E16F18D34D4B1B680133A0
:104FF8004B4A13604A4B1B68132B37D9464B022286
:105008001A70464B1B6800221C4615462046294646
:10501800FFF798FE3F4B00221A7027E0414B1B68B0
:105028000133404A13603B4B00221A701EE03B8A52
:10503800B3F5617F0FD83A4B1B680133384A1360C8
:10504800374B1B68042B13D9334B01221A70314B91
:1050580000221A700CE0344B1B680133324A13608B
:105068002C4B00221A7003E000BF02E000BF00E0F2
:1050780000BF274B1B680133254A13607B69023345
:105088007B61BB687A699A42FFF425AF194B1B68AC
:105098009AB2264B1A82184B1B689AB2234B5A8233
:1050A800204B1A68204B1B681344204A5361204B3D
:1050B8001B681E4A93611F4B1B681C4AD3611E4B19
:1050C8001B681A4A13621D4B1B68184A93621C4BD3
:1050D8001B68164AD362FFF77BFD0346134A5362E7
:1050E80002E000BF00E000BF1837BD46B0BD00BFFA
:1050F80074100020981000209C100020D010002070
:10510800D4100020BC100020CDCCCCCCD510002071
:10511800781000207D1000207C10002080100020D6
:1051280084100020A0100020A410002044100020AB
:10513800B4100020A8100020AC100020B0100020EF
:10514800B8100020B0B483B000AF78607B68002B43
:1051580001D100230CE07B68084A1C4615460FCD98
:105168000FC40FCD0FC495E80F0084E80F0001238A
:1051780018460C37BD46B0BC704700BF441000202D
:1051880080B483B000AF0346FB71FB79002B04D0D9
:10519800074B4FF400429A6103E0054B4FF0004281
:1051A8009A6100BF0C37BD465DF8047B704700BFAD
:1051B8000008024080B400AF064B4FF460129A61B9
:1051C800054B4FF080429A6100BFBD465DF8047BF5
:1051D800704700BF000402400008024080B400AFDE
:1051E8000A4B1B78DBB2022B04D0084B1B78DBB2CE
:1051F800032B01D1012300E0002303F00103DBB2FC
:105208001846BD465DF8047B704700BFD6100020E5
:1052180080B400AF1A4BFE221A701A4B00221A7083
:10522800194B00221A60194B00221A60184B0022F1
:105238001A60184B00221A70174B00221A70174B6D
:1052480000221A70164B00221A70164B00221A7090
:10525800154B01221A70154B00221A70144B0022AC
:105268001A60144B00221A70134B00221A70134B49
:1052780000221A7000BFBD465DF8047B704700BF6E
:10528800D6100020D7100020D8100020DC100020F5
:10529800E0100020E4100020E5100020E6100020B7
:1052A800E7100020E8100020E9100020EA10002094
:1052B800EC100020F0100020F1100020F210002067
:1052C80080B582B000AF1B4B1B7883F00103DBB2C3
:1052D800002B2BD1184B1B78DBB2052B27D100F004
:1052E800BDFC0246154B1B68D31A632B1FD9EFF37D
:1052F80010833B603B687B6072B600BF0E4B1B7827
:10530800DBB2052B0DD10020FFF73AFFFFF752FF64
:105318000B4B00221A700B4B01221A70064B042209
:105328001A707B68002B02D162B600E000BF083714
:10533800BD4680BDF2100020D6100020EC100020E1
:10534800E5100020E910002080B400AF00BFBD4682
:105358005DF8047B704780B400AF00BFBD465DF8C0
:10536800047B704780B586B000AF78607B68002BFF
:1053780001D1002363E07B6800221A707B68072252
:105388005A70EFF31083FB60FB683B6172B600BF95
:105398002D4B1B78DAB27B689A702C4B1A687B68A5
:1053A8005A602B4B1A687B689A602A4B1A687B688C
:1053B800DA60294B1B78DAB27B681A75274B1B78A1
:1053C800DAB27B685A75264B1B78DAB27B689A7515
:1053D8000023FB75234B1B78DBB2002B03D0FB7D2E
:1053E80043F00103FB75FFF7F9FE0346002B0CD0D1
:1053F800FB7D43F00203FB751B4B1B78DBB2002BD4
:1054080003D0FB7D43F00403FB75184B1B78DBB21C
:10541800002B03D0FB7D43F00803FB757B68FA7D06
:10542800DA703B69002B01D162B600BF7B6840F29D
:10543800A4621A827B684FF496725A820123184636
:105448001837BD4680BD00BFD6100020D8100020F8
:10545800DC100020E0100020E6100020E7100020FB
:10546800E8100020D7100020EA100020E9100020E2
:1054780080B483B000AF7860072318460C37BD4668
:105488005DF8047B704780B483B000AF7860072371
:1054980018460C37BD465DF8047B704780B483B06E
:1054A80000AF7860072318460C37BD465DF8047BCB
:1054B800704780B400AF07231846BD465DF8047BEB
:1054C800704780B400AF07231846BD465DF8047BDB
:1054D800704780B500AF72B600BFFFF73CFF00BF52
:1054E800FDE780B500AF72B600BFFFF734FF00BF1D
:1054F800FDE780B500AF72B600BFFFF72CFF00BF15
:10550800FDE780B500AF72B600BFFFF724FF00BF0C
:10551800FDE780B500AF72B600BFFFF71CFF00BF04
:10552800FDE780B400AF00BFBD465DF8047B70475F
:1055380080B400AF00BFBD465DF8047B704780B4FF
:1055480000AF00BFBD465DF8047B704780B500AF73
:1055580000F070FB00BF80BD80B500AF034803F0CA
:1055680075FB034803F072FB00BF80BDF4100020F8
:10557800CC11002080B500AF024803F067FB00BFE4
:1055880080BD00BFF410002080B500AF024802F0D3
:105598003DF800BF80BD00BF9401002080B500AF7A
:1055A800024802F033F800BF80BD00BFD8010020D8
:1055B80080B500AF024800F007FE00BF80BD00BF05
:1055C8008C07002080B500AF024803F03FFB00BF06
:1055D80080BD00BF1412002080B58AB000AF07F16B
:1055E800180300221A605A609A60DA6007F1100303
:1055F80000221A605A603B4600221A605A609A607C
:10560800DA602D4B2D4A1A602B4BA7225A602A4B81
:1056180000229A60284B4FF6FF72DA60264B002270
:105628001A61254B00225A61234B00229A612248B5
:1056380002F040FF0346002B01D0FBF74DF84FF472
:105648008053BB6107F1180319461B4803F064FD3A
:105658000346002B01D0FBF73FF8174803F074F915
:105668000346002B01D0FBF737F800233B610023EA
:105678007B6107F1100319460F4804F06DFA0346E1
:10568800002B01D0FBF728F80A233B6001237B603D
:105698000023BB600F23FB603B46002219460648E7
:1056A80003F0DCFB0346002B01D0FBF715F800BF25
:1056B8002837BD4680BD00BFF4100020000001401F
:1056C80080B586B000AF07F1080300221A605A605F
:1056D8009A60DA603B4600221A605A601D4B4FF010
:1056E80080421A601B4B00225A601A4B00229A60B3
:1056F800184B42F2CF02DA60164B00221A61154BA2
:1057080000229A61134802F0D5FE0346002B01D00F
:10571800FAF7E2FF4FF48053BB6007F1080319461C
:105728000C4803F0F9FC0346002B01D0FAF7D4FF2C
:1057380020233B6000237B603B461946054804F064
:105748000BFA0346002B01D0FAF7C6FF00BF183743
:10575800BD4680BD3C11002080B58EB000AF07F17A
:10576800280300221A605A609A60DA6007F1200361
:1057780000221A605A603B1D00221A605A609A6023
:10578800DA601A615A619A612D4B2E4A1A602C4BC5
:1057980053225A602A4B00229A60294B4FF47A729E
:1057A800DA60274B00221A61254B80229A6124482F
:1057B80002F080FE0346002B01D0FAF78DFF4FF46C
:1057C8008053BB6207F1280319461D4803F0A4FC67
:1057D8000346002B01D0FAF77FFF194802F022FF99
:1057E8000346002B01D0FAF777FF00233B62002322
:1057F8007B6207F120031946114804F0ADF903460E
:10580800002B01D0FAF768FF60237B604FF4FA732E
:10581800BB600023FB6000237B613B1D002219460F
:10582800074803F0B7FB0346002B01D0FAF754FFF3
:10583800034800F013F900BF3837BD4680BD00BFEC
:10584800841100200008004080B588B000AF3B1DDF
:1058580000221A605A609A60DA601A615A619A6185
:105868001D4B1E4A1A601C4BA7225A601A4B002275
:105878009A60194B6322DA60174B00221A61164BA3
:1058880000229A61144802F015FE0346002B01D04D
:10589800FAF722FF104802F0C5FE0346002B01D09C
:1058A800FAF71AFF60237B600023BB600023FB60CC
:1058B80000237B613B1D00221946074803F06AFB61
:1058C8000346002B01D0FAF707FF034800F0C6F89B
:1058D80000BF2037BD4680BDCC11002000440140E8
:1058E80080B58EB000AF786007F1240300221A60FB
:1058F8005A609A60DA601A617B681B68514A934261
:105908003DD100233B62504B5B6C4F4A43F001038F
:1059180053644D4B5B6C03F001033B623B6A00230D
:10592800FB61494B1B6B484A43F010031363464B1A
:105938001B6B03F01003FB61FB694FF400737B6280
:105948000223BB620023FB6200233B6301237B63CA
:1059580007F1240319463D4800F0A0FE00220C215F
:10596800192000F062FA192000F07BFA00220C21BD
:105978001B2000F05AFA1B2000F073FA5EE07B68E7
:105988001B68B3F1804F0ED10023BB612E4B1B6CFB
:105998002D4A43F0010313642B4B1B6C03F00103E6
:1059A800BB61BB694AE07B681B68294A93420ED1F8
:1059B80000237B61244B1B6C234A43F004031364CC
:1059C800214B1B6C03F004037B617B6936E07B6829
:1059D8001B68204A934216D100233B611A4B5B6C2B
:1059E800194A43F400335364174B5B6C03F40033D8
:1059F8003B613B6900220C21192000F016FA19209E
:105A080000F02FFA1AE07B681B68134A934215D1FD
:105A18000023FB600C4B1B6C0B4A43F01003136410
:105A2800094B1B6C03F01003FB60FB6800220E217E
:105A3800362000F0FAF9362000F013FA00BF3837A4
:105A4800BD4680BD00000140003802400010024001
:105A580000080040004401400010004080B58AB0B2
:105A680000AF786007F1140300221A605A609A6048
:105A7800DA601A617B681B68244A93421ED10023AE
:105A88003B61234B1B6B224A43F002031363204BF9
:105A98001B6B03F002033B613B6940237B610223DC
:105AA800BB610023FB6100233B6202237B6207F199
:105AB80014031946174800F0F1FD23E07B681B68C2
:105AC800154A93421ED10023FB60114B1B6B104AF1
