:020000040800F2
:1000000000C001201D0400082D8100083D8100086A
:100010004D8100085D8100086D810008000000002E
:100020000000000000000000000000007D810008CA
:100030008B8100080000000099810008A78100085A
:10004000790400087904000879040008790400089C
:10005000790400087904000879040008790400088C
:10006000790400087904000879040008790400087C
:10007000790400087904000879040008790400086C
:10008000790400087904000879040008790400085C
:10009000790400087904000879040008790400084C
:1000A00079040008B581000879040008D1810008AE
:1000B000790400087904000879040008790400082C
:1000C000790400087904000879040008790400081C
:1000D00079040008E5810008790400087904000823
:1000E00079040008790400087904000879040008FC
:1000F00079040008790400087904000879040008EC
:1001000079040008790400087904000879040008DB
:1001100079040008790400082182000879040008A5
:100120000D820008790400087904000879040008A9
:1001300079040008790400087904000879040008AB
:10014000790400087904000879040008790400089B
:10015000790400087904000879040008F98100088E
:10016000790400087904000879040008790400087B
:1001700079040008790400087904000800000000F0
:0801800079040008790400086D
:100188007BB972B90029BEBF00204FF0004106E0DC
:1001980008BF00281CBF6FF000414FF0FF3000F08F
:1001A80057B8ADF1080C6DE904CE002909DB002B26
:1001B8001ADB0DF063F9DDF804E0DDE9022304B091
:1001C8007047404261EB4101002B1BDB0DF056F9F3
:1001D800DDF804E0DDE9022304B0404261EB4101AF
:1001E800524263EB43037047524263EB43030DF003
:1001F80045F9DDF804E0DDE9022304B0404261EB93
:1002080041017047524263EB43030DF037F9DDF8C3
:1002180004E0DDE9022304B0524263EB4303704774
:1002280053B94AB9002908BF00281CBF4FF0FF3155
:100238004FF0FF3000F00CB8ADF1080C6DE904CEBA
:100248000DF01CF9DDF804E0DDE9022304B0704785
:10025800704700BF844641EA000313F003036DD1E1
:10026800403A41D351F8043B40F8043B51F8043B71
:1002780040F8043B51F8043B40F8043B51F8043B78
:1002880040F8043B51F8043B40F8043B51F8043B68
:1002980040F8043B51F8043B40F8043B51F8043B58
:1002A80040F8043B51F8043B40F8043B51F8043B48
:1002B80040F8043B51F8043B40F8043B51F8043B38
:1002C80040F8043B51F8043B40F8043B51F8043B28
:1002D80040F8043B51F8043B40F8043B51F8043B18
:1002E80040F8043B403ABDD2303211D351F8043BB8
:1002F80040F8043B51F8043B40F8043B51F8043BF8
:1003080040F8043B51F8043B40F8043B103AEDD266
:100318000C3205D351F8043B40F8043B043AF9D2B7
:10032800043208D0D2071CBF11F8013B00F8013B8A
:1003380001D30B8803806046704700BF082A13D397
:100348008B078DD010F003038AD0C3F10403D21AAF
:10035800DB071CBF11F8013B00F8013B80D331F8E3
:10036800023B20F8023B7BE7043AD9D3013A11F863
:10037800013B00F8013BF9D20B7803704B784370CE
:100388008B788370604670470348044B834202D0E1
:10039800034B03B118477047740100207401002013
:1003A800000000000548064B1B1AD90F01EBA301FA
:1003B800491002D0034B03B118477047740100205D
:1003C800740100200000000010B5064C237843B9E2
:1003D800FFF7DAFF044B13B10448AFF300800123A1
:1003E800237010BD780100200000000010D900081B
:1003F80008B5054B1BB105490548AFF30080BDE8BA
:100408000840FFF7CFBF00BF000000007C010020BC
:1004180010D90008DFF834D00D480E490E4A0023E1
:1004280002E0D458C4500433C4188C42F9D30B4AA0
:100438000B4C002301E013600432A242FBD30948AD
:1004480080470948804709480047000000C001204C
:10045800000000207401002088D9000878010020DD
:100468009014002011880008F1D700087B040008C8
:10047800FEE780B500AF08F0D9F900F053F800F0B6
:1004880039F900F09FFA00F0BBF900F0E3F907F042
:100498008DFF07F0CBFE04F053F807F0FFFF07F0DD
:1004A80039FF08F047F801F057FC02F073F801F043
:1004B8009DFF01F053FD03F039FC034683F001036F
:1004C800DBB2002B01D000F00DF903F0FFFC03466E
:1004D80083F00103DBB2002B01D000F003F904F034
:1004E80077FA04F061FC04F0DBFF06F0C7F907F0C7
:1004F80007FC02F0A5F801F07FFF01F04BFC01F0CA
:1005080047FD03F0A5FE04F0A7FA04F0ABFD05F0E3
:100518000FF805F0CFFD06F013FA07F061FD00BFF4
:10052800E7E7000080B594B000AF07F12003302260
:10053800002118460DF000F907F10C0300221A609B
:100548005A609A60DA601A610023BB60284B1B6C02
:10055800274A43F080531364254B1B6C03F08053E8
:10056800BB60BB6800237B60224B1B68214A43F4B5
:10057800804313601F4B1B6803F480437B607B68D8
:1005880001233B624FF480337B620223BB634FF449
:100598008003FB6308233B64A8237B640223BB64BA
:1005A8000423FB6407F12003184609F0BFF803464B
:1005B800002B01D000F096F80F23FB6002233B616B
:1005C80000237B614FF4A053BB614FF48053FB6160
:1005D80007F10C030521184609F020FB0346002B00
:1005E80001D000F07FF800BF5037BD4680BD00BF86
:1005F800003802400070004080B582B000AF7860DB
:100608007B681B68084A934202D101F0F9FB06E0B7
:100618007B681B68054A934201D102F0E9F800BFE4
:100628000837BD4680BD00BF0010014000140140DE
:1006380080B582B000AF78607B681B68044A93423B
:1006480001D102F033F900BF0837BD4680BD00BFB5
:100658000014014080B582B000AF78607B681B68E9
:100668000A4A934203D1786801F0E8FB09E07B6805
:100678001B68074A934204D17B681B6C184602F03A
:100688002FF900BF0837BD4680BD00BF00100140EC
:100698000014014080B582B000AF7860786803F03C
:1006A800AFFC00BF0837BD4680BD000080B582B0F2
:1006B80000AF78607B681B68084A934203D178686A
:1006C80003F0ACFD06E07B681B68054A934201D144
:1006D80006F07AF900BF0837BD4680BD000001402A
:1006E8000010004080B500AF72B600BF06F02EFAC9
:1006F80000BFFDE780B58AB000AF07F11403002200
:100708001A605A609A60DA601A6100233B61394BBB
:100718001B6B384A43F080031363364B1B6B03F0A3
:1007280080033B613B690023FB60324B1B6B314A02
:1007380043F0010313632F4B1B6B03F00103FB60B2
:10074800FB680023BB602B4B1B6B2A4A43F0020358
:100758001363284B1B6B03F00203BB60BB680023C9
:100768007B60244B1B6B234A43F010031363214B1C
:100778001B6B03F010037B607B6800233B601D4B01
:100788001B6B1C4A43F0080313631A4B1B6B03F0E3
:1007980008033B603B6800224FF48071164808F05C
:1007A800ABFF01224FF40051144808F0A5FF4FF4A5
:1007B80080737B610123BB610023FB6100233B62E3
:1007C80007F1140319460C4808F0E2FD4FF40053F2
:1007D8007B610123BB610023FB6100233B6207F1BE
:1007E80014031946054808F0D3FD00BF2837BD4655
:1007F80080BD00BF0038024000100240000C0240DB
:1008080080B500AF114B124A1A60104B4FF41652C4
:100818005A600E4B00229A600C4B0022DA600B4B98
:1008280000221A61094B0C225A61084B00229A6176
:10083800064B0022DA61054809F00EFC0346002B3E
:1008480001D0FFF74FFF00BF80BD00BF940100201B
:100858000010014080B500AF114B124A1A60104BCE
:100868004FF416425A600E4B00229A600C4B00223D
:10087800DA600B4B00221A61094B0C225A61084BB3
:1008880000229A61064B0022DA61054809F0E4FB70
:100898000346002B01D0FFF725FF00BF80BD00BF36
:1008A800D80100200014014080B58CB000AF7860FA
:1008B80007F11C0300221A605A609A60DA601A6114
:1008C8007B681B683A4A934235D10023BB61394B98
:1008D8005B6C384A43F010035364364B5B6C03F08F
:1008E8001003BB61BB6900237B61324B1B6B314A30
:1008F80043F0010313632F4B1B6B03F001037B6170
:100908007B694FF4C063FB6102233B6200237B6277
:100918000323BB620723FB6207F11C031946264821
:1009280008F036FD00220A21252008F0EAF82520E3
:1009380008F003F938E07B681B68204A934233D1FA
:1009480000233B611B4B5B6C1A4A43F02003536442
:10095800184B5B6C03F020033B613B690023FB6091
:10096800144B1B6B134A43F004031363114B1B6BAB
:1009780003F00403FB60FB68C023FB6102233B62B6
:1009880000237B620323BB620823FB6207F11C037D
:1009980019460B4808F0FCFC00220B21472008F000
:1009A800B0F8472008F0C9F800BF3037BD4680BD11
:1009B80000100140003802400000024000140140CD
:1009C8000008024080B582B000AF00237B600C4B6A
:1009D8001B6B0B4A43F480031363094B1B6B03F433
:1009E80080037B607B6800220D21382008F089F89D
:1009F800382008F0A2F800BF0837BD4680BD00BF08
:100A08000038024080B400AF074B1B889AB2074BEE
:100A18001B889BB29A420CBF01230023DBB2184605
:100A2800BD465DF8047B70471C0200201E020020B2
:100A380080B400AF094B1B889BB2013303F07F03DE
:100A4800074A128892B293420CBF01230023DBB2FB
:100A58001846BD465DF8047B704700BF1C020020A5
:100A68001E02002080B485B000AF0346FB710C4B1A
:100A78001B889BB201339BB203F07F03FB81084BB9
:100A88001B889BB21946074AFB795354044AFB89D1
:100A9800138000BF1437BD465DF8047B704700BF64
:100AA8001C0200202002002080B483B000AF0C4B51
:100AB8001B889BB21A460B4B9B5CFB71084B1B882F
:100AC8009BB201339BB203F07F039AB2044B1A80A6
:100AD800FB7918460C37BD465DF8047B704700BFAC
:100AE8001E0200202002002080B400AF064B002226
:100AF8001A70064B00221A70054B00221A7000BFAC
:100B0800BD465DF8047B7047CA020020C802002079
:100B1800C902002080B582B000AF78600B467B80A8
:100B28007A8864237968034809F0E3FA00BF083734
:100B3800BD4680BD9401002080B58CB000AF03464F
:100B48003960FB711346BB71BB79202B01D9002397
:100B580046E0BB79043387F82D307E233B72FB795E
:100B68007B72BB790233DBB2BB727A7ABB7A1344ED
:100B780087F82F30002387F82E301AE097F82E30A8
:100B88003A681A4497F82E300333127830333B44CE
:100B980003F8282C97F82E303A6813441A7897F8F7
:100BA8002F30134487F82F3097F82E30013387F809
:100BB8002E3097F82E20BB799A42DFD3BB790333C6
:100BC80030333B4497F82F2003F8282C97F82D3022
:100BD8009AB207F1080311461846FFF79BFF012355
:100BE80018463037BD4680BD80B584B000AF034697
:100BF800FB710B46BB7113467B71BB793B737B79E9
:100C08007B7307F10C01FB7902221846FFF794FF6A
:100C180000BF1037BD4680BD80B483B000AF034627
:100C2800FB71FB79042B15D801A252F823F000BF01
:100C38004D0C0008510C0008550C0008550C000814
:100C4800590C0008002306E0092304E0052302E00C
:100C5800072300E0062318460C37BD465DF8047BE1
:100C6800704700BF80B588B000AF07F1140318467D
:100C780001F0EBFB00233B7108237B713B7DBB71CB
:100C88007B7DFB71BB7D002B01D0012300E000239D
:100C98003B72FB7D002B01D0012300E000237B7217
:100CA8003B7EBB727B7EFB727B8BDBB23B737B8BA9
:100CB8001B0A9BB2DBB27B73BB8BDBB2BB73BB8BF8
:100CC8001B0A9BB2DBB2FB7300233B7400237B74CB
:100CD8000023BB740023FB743B1D10221946A1207E
:100CE800FFF72AFF00BF2037BD4680BD80B584B01E
:100CF80000AF78600B46FB70FB78062B05D0082206
:100D08000121A220FFF770FF46E07B6801331B78C2
:100D1800FB737B6802331B781AB27B6803331B783A
:100D28001BB21B021BB213431BB2BB817B6804338B
:100D38001B781AB27B6805331B781BB21B021BB2E7
:100D480013431BB27B81FB7B012B05D1BB89002B95
:100D580008D17B89002B05D1FB7B062B08D17B8929
:100D6800002B05D008220521A220FFF73DFF13E044
:100D78007A89B989FB7B184601F053FB03467B72DD
:100D88007B7A1846FFF748FF03463B723B7A0822F6
:100D98001946A220FFF728FF1037BD4680BD80B452
:100DA80083B000AF78600B467B807B88DAB27B68C3
:100DB8001A707B881B0A9AB27B680133D2B21A7008
:100DC80000BF0C37BD465DF8047B704780B483B024
:100DD80000AF786039603B68DAB27B681A703B68AC
:100DE8001A0A7B680133D2B21A703B681A0C7B6806
:100DF8000233D2B21A703B681A0E7B680333D2B240
:100E08001A7000BF0C37BD465DF8047B704780B58B
:100E180082B000AF786039603B6819467868FFF7A0
:100E2800D5FF00BF0837BD4680BD80B58CB000AF88
:100E380007F11803184605F0CDFE00233B70072381
:100E48007B70BB7EBB70FB7EFB70FA693B4604334C
:100E580011461846FFF7DBFF3A6A3B46083311464E
:100E68001846FFF7D4FF7A6A3B460C3311461846FA
:100E7800FFF7ACFF3A8D3B46103311461846FFF793
:100E88008EFF7A8D3B46123311461846FFF787FFCF
:100E980097F82C303B7597F82D307B7597F82E30E6
:100EA800BB753B4617221946A120FFF745FE00BF38
:100EB8003037BD4680BD80B485B000AF78600B4642
:100EC800FB70FB787A6813441B781946FB7801336A
:100ED8007A6813441B781B0241EA0302FB78023349
:100EE80079680B441B781B041A43FB780333796831
:100EF8000B441B781B061343FB60FB68184614372A
:100F0800BD465DF8047B704780B483B000AF0346EC
:100F1800FB71FB79092B21D801A252F823F000BFFD
:100F2800510F0008650F0008650F0008650F0008DD
:100F3800650F0008590F0008650F0008610F0008C9
:100F48005D0F0008550F0008002308E0092306E09C
:100F5800052304E0082302E0072300E00A231846DB
:100F68000C37BD465DF8047B704700BF80B584B080
:100F780000AF78600B46FB70FB78012B05D8072281
:100F88000121A220FFF730FE7CE07B6801331B784B
:100F9800BB73BB7B013B042B64D801A252F823F03E
:100FA800BD0F0008E50F00080D1000082910000803
:100FB80045100008FB78062B05D007220121A22046
:100FC800FFF712FE5EE002217868FFF774FFB86051
:100FD800B86805F08DFE0346FB7349E0FB78062BE5
:100FE80005D007220121A220FFF7FEFD4AE00221D9
:100FF8007868FFF760FFB860B86805F00BFF034634
:10100800FB7335E0FB78022B05D007220121A220D3
:10101800FFF7EAFD36E006F03DF80346FB7327E0EC
:10102800FB78022B05D007220121A220FFF7DCFD67
:1010380028E006F0D5F80346FB7319E0FB78062B89
:1010480005D007220121A220FFF7CEFD1AE00221D8
:101058007868FFF730FFB860B86805F0ADFF034661
:10106800FB7305E007220521A220FFF7BDFD09E07B
:10107800FB7B1846FFF748FF034607221946A220C4
:10108800FFF7B2FD1037BD4680BD00BF80B500AF89
:1010980007F03CF80346002B0CBF01230023DBB20A
:1010A800184680BD80B5A0B000AF07F11C031846F4
:1010B80007F014F800233B7009237B703B7FBB705B
:1010C8007B7FFB70002387F87F30BB7F03F0010331
:1010D800002B05D097F87F3043F0010387F87F3065
:1010E800BB7F03F00803002B05D097F87F3043F04F
:1010F800020387F87F30BB7F03F01003002B05D075
:1011080097F87F3043F0040387F87F3097F836303C
:10111800002B05D097F87F3043F0080387F87F301D
:10112800BB7F5BB2002B05DA97F87F3043F01003E2
:1011380087F87F3097F84E30002B05D097F87F302E
:1011480043F0200387F87F3097F84C30082B05D1FF
:1011580097F87F3043F0400387F87F3097F8503096
:10116800002B05D097F87F3063F07F0387F87F3036
:1011780097F87F303B7197F834307B7197F84C3093
:10118800BB7197F82030FB71B7F92430A7F87C3091
:10119800B7F87C30DBB23B72B7F87C301B0A9BB2E5
:1011A800DBB27B72FB8CDBB2BB72FB8C1B0A9BB283
:1011B800DBB2FB723B8FDBB23B733B8F1B0A9BB2EC
:1011C800DBB27B737B8FDBB2BB737B8F1B0A9BB25B
:1011D800DBB2FB73BB6AA7F87A30B7F87A30DBB2B8
:1011E8003B74B7F87A301B0A9BB2DBB27B747B6D19
:1011F800A7F87830B7F87830DBB2BB74B7F8783036
:101208001B0A9BB2DBB2FB74B7F93C30A7F8763007
:10121800B7F87630DBB23B75B7F876301B0A9BB26D
:10122800DBB27B753B6EA7F87430B7F87430DBB26D
:10123800BB75B7F874301B0A9BB2DBB2FB75FB6A4F
:10124800DBB23B76FB6A1B0ADBB27B76FB6A1B0CC4
:10125800DBB2BB76FB6A1B0EDBB2FB763B461C227D
:101268001946A120FFF768FC00BF8037BD4680BD46
:1012780080B584B000AF78600B46FB70FB78022B1A
:1012880005D009220121A220FFF7AEFC35E07B68DA
:1012980001331B78FB73FB7B002B08D0FB7B012BF6
:1012A80005D009220521A220FFF79EFC25E0FB7B43
:1012B800184606F011FE0346BB73BB7B002B05D115
:1012C80009220021A220FFF78FFC16E0BB7B012B2F
:1012D80005D109220521A220FFF786FC0DE0BB7B82
:1012E800022B05D109220721A220FFF77DFC04E08B
:1012F80009220A21A220FFF777FC1037BD4680BDDE
:1013080080B400AF064B5B6903F40053002B14BF95
:1013180001230023DBB21846BD465DF8047B704705
:10132800000C024080B582B000AF0346FB71FB7928
:101338001A464FF400510B4808F0DEF9094B5B6977
:1013480003F40053002B14BF01230023DBB21A4619
:10135800FB799A420CBF01230023DBB218460837F9
:10136800BD4680BD000C024080B5AAB000AF7860D1
:101378000B46FB70FB78002B05D100220121A12030
:10138800FFF732FC10E27B681B7887F8A73097F8E4
:10139800A730013B082B00F2FF8101A252F823F08D
:1013A800CD13000867140008A11400087B15000875
:1013B800A1160008AB150008711700086B17000884
:1013C80089170008002387F88C30012387F88D30AF
:1013D80002F01CFD0346002B01D0012300E000238E
:1013E80087F88E3002F01EFDC7F8980002F00EFD57
:1013F8000346002B03D002F02DFD034602E002F065
:101408001DFD0346A7F89630D7F89830DBB287F869
:101418008F30D7F898301B0ADBB287F89030D7F8AE
:1014280098301B0CDBB287F89130D7F898301B0E38
:10143800DBB287F89230B7F89630DBB287F8933092
:10144800B7F896301B0A9BB2DBB287F8943007F1E5
:101458008C0309221946A120FFF76EFBA4E10023A3
:1014680087F88830022387F8893000F013FE034696
:1014780087F88A3000F01AFE0346002B01D00123BA
:1014880000E0002387F88B3007F18803042219460F
:10149800A120FFF751FB87E107F10C03184603F081
:1014A80033F8034683F00103DBB2002B05D0032297
:1014B8000A21A120FFF798FB76E1002387F87C300A
:1014C800032387F87D303B7B87F87E303B7B012BFD
:1014D80001D13B6900E00023C7F8A0303B7B012B1A
:1014E80002D17B699BB200E00023A7F89E30D7F8B1
:1014F800A030DBB287F87F30D7F8A0301B0ADBB208
:1015080087F88030D7F8A0301B0CDBB287F8813021
:10151800D7F8A0301B0EDBB287F88230B7F89E30C0
:10152800DBB287F88330B7F89E301B0A9BB2DBB278
:1015380087F884303B6AB3F5803F02D23B6A9BB29E
:1015480001E04FF6FF73A7F89C30B7F89C30DBB288
:1015580087F88530B7F89C301B0A9BB2DBB287F856
:10156800863007F17C030B221946A120FFF7E4FA25
:101578001AE1002387F87830042387F87930FFF7D9
:10158800BFFE0346002B01D0012300E0002387F8AB
:101598007A3007F1780303221946A120FFF7CCFA25
:1015A80002E107F16403184603F01AFF034683F0CB
:1015B8000103DBB2002B05D006220A21A120FFF788
:1015C80013FBF1E0002387F85030062387F85130E9
:1015D80097F8643087F8523097F86530002B01D0BF
:1015E800012300E0002387F85330B7F86630DBB2F8
:1015F80087F85430B7F866301B0A9BB2DBB287F81D
:101608005530B7F86830DBB287F85630B7F868302D
:101618001B0A9BB2DBB287F85730B7F86A30DBB2E7
:1016280087F85830B7F86A301B0A9BB2DBB287F8E4
:101638005930FB6EDBB287F85A30FB6E1B0ADBB2FF
:1016480087F85B30FB6E1B0CDBB287F85C30FB6EF7
:101658001B0EDBB287F85D30B7F87030DBB287F865
:101668005E30B7F870301B0A9BB2DBB287F85F3088
:10167800B7F87230DBB287F86030B7F872301B0AFF
:101688009BB2DBB287F8613007F15003122219468A
:10169800A120FFF751FA87E007F13C03184603F051
:1016A80079FA034683F00103DBB2002B05D005224B
:1016B8000A21A120FFF798FA76E0002387F82C305A
:1016C800052387F82D3097F83C3087F82E30FB8FAC
:1016D800DBB287F82F30FB8F1B0A9BB2DBB287F88F
:1016E8003030B7F84030DBB287F83130B7F84030E7
:1016F8001B0A9BB2DBB287F832307B6CDBB287F80F
:1017080033307B6C1B0ADBB287F834307B6C1B0CE4
:10171800DBB287F835307B6C1B0EDBB287F83630CE
:10172800B7F94830DBB287F83730B7F948309BB2A1
:101738001B0A9BB2DBB287F83830B7F84A30DBB205
:1017480087F83930B7F84A301B0A9BB2DBB287F802
:101758003A3007F12C030F221946A120FFF7ECF9C4
:1017680022E0FFF77FFA1FE0FB78012B05D0072264
:101778000121A120FFF738FA16E0FFF756FB13E026
:10178800FB78012B05D009220121A120FFF72CFAB3
:101798000AE0FFF787FC07E097F8A7301A4604210C
:1017A800A120FFF721FA00BFA837BD4680BD00BFC2
:1017B80080B58CB000AF78600B46FB70FB78002BCF
:1017C80005D100220121A220FFF70EFADEE17B6895
:1017D8001B7887F82F3097F82F30013B082B00F241
:1017E800CD8101A252F823F01518000893190008BA
:1017F800331B0008FD190008271B0008791A000888
:101808004B1B00083F1B0008731B0008FB78072BC5
:1018180005D801220121A220FFF7E6F9B6E17B688D
:1018280001331B7887F8293097F82930012B05D91F
:1018380001220521A220FFF7D7F9A7E197F829305F
:10184800012B5AD17B6802331B781A467B68033315
:101858001B781B021A437B6804331B781B041A434A
:101868007B6805331B781B061343FB617B680633D3
:101878001B781AB27B6807331B781BB21B021BB29A
:1018880013431BB27B83FB69002B08D0FB69BA4A60
:10189800934204D87B8B42F21072934205D90122FD
:1018A8000521A220FFF7A0F970E1F86902F04AFAD1
:1018B800034683F00103DBB2002B09D17B8B18466A
:1018C80002F052FA034683F00103DBB2002B05D085
:1018D80001220621A220FFF787F957E1012002F033
:1018E80057FA034683F00103DBB2002B41D00122F3
:1018F8000621A220FFF778F948E17B6802331B78BC
:101908001A467B6803331B781B021A437B6804332F
:101918001B781B041A437B6805331B781B0613438B
:101928007B627B6806331B781AB27B6807331B78A7
:101938001BB21B021BB213431BB27B847B6A002BB6
:1019480002D17B8C002B05D001220521A220FFF7B4
:101958004BF91BE1002002F01BFA034683F0010358
:10196800DBB2002B05D001220621A220FFF73CF9AB
:101978000CE100233B7601237B7607F11803022252
:101988001946A220FFF7D8F800E1FB78012B05D80B
:1019980002220121A220FFF727F9F7E07B68013333
:1019A8001B7887F82A3097F82A30022B05D90222AB
:1019B8000521A220FFF718F9E8E097F82A30022B52
:1019C80002D100F03BFB09E097F82A30012B0CBF4D
:1019D80001230023DBB2184600F044FB00233B75CB
:1019E80002237B7507F1140302221946A220FFF790
:1019F800A3F8CBE0FB78012B05D804220121A22013
:101A0800FFF7F2F8C2E07B6801331B7887F82B30C8
:101A180097F82B30002B09D097F82B30012B05D0E5
:101A280004220521A220FFF7DFF8AFE097F82B305A
:101A3800012B0CBF01230023DBB21846FFF772FC11
:101A4800034683F00103DBB2002B05D004220621F4
:101A5800A220FFF7C9F899E000233B7404237B74A4
:101A680007F1100302221946A220FFF765F88DE05E
:101A7800FFF70CFB034683F00103DBB2002B05D014
:101A880006220B21A220FFF7AFF87FE0FB78032B9B
:101A980005D806220121A220FFF7A6F876E07B6888
:101AA80001331B7887F82E3097F82E30012B05D993
:101AB80006220521A220FFF797F867E07B6802332A
:101AC8001B781AB27B6803331B781BB21B021BB24C
:101AD80013431BB2BB8597F82E30012B0CBF012393
:101AE8000023DBB2BA8D1146184603F0D9FB034632
:101AF80083F00103DBB2002B05D006220521A220CA
:101B0800FFF772F842E000233B7306237B7307F16B
:101B18000C0302221946A220FFF70EF836E0052230
:101B28000721A220FFF760F830E003220721A22056
:101B3800FFF75AF82AE0FB7819467868FFF7D6F8D5
:101B480024E0FFF7A3FA034683F00103DBB2002B7E
:101B580005D007220B21A220FFF746F816E0FB78F4
:101B680019467868FFF702FA10E0FB78194678689A
:101B7800FFF77EFB0AE000BFA086010097F82F3030
:101B88001A460421A220FFF72FF800BF3037BD46C0
:101B980080BD00BF80B584B000AF264B1B78012BF9
:101BA8003FD9244B1B78222B3BD8234B1B787B73C4
:101BB800214B5B783B733B7B023BFB72FB7A202B10
:101BC80031D87A7B3B7B1344FB730023BB7309E05A
:101BD800BB7B0233184AD25CFB7B1344FB73BB7B91
:101BE8000133BB73BA7BFB7A9A42F1D3FB7A023397
:101BF800114AD35CFA7B9A4217D1104B7B607B7BEE
:101C0800A12B05D1FB7A19467868FFF7ADFB0DE0EB
:101C18007B7BA22B0AD1FB7A19467868FFF7C8FDAF
:101C280004E000BF02E000BF00E000BF1037BD467F
:101C380080BD00BFC9020020A4020020A602002027
:101C480080B584B000AF0346FB7106F055FE03462D
:101C58003C4A13603C4B1B78042B6FD801A252F806
:101C680023F000BF811C00089B1C0008B71C00085B
:101C7800EF1C0008211D0008FB797E2B5BD1324B3D
:101C880001221A70314B00221A70314B00221A704F
:101C980051E02E4B1B785A1CD1B22C4A11701946B0
:101CA8002C4AFB795354284B02221A7046E0284AE2
:101CB800FB791370264B1B78012B03D9244B1B7817
:101CC800222B02D9FEF710FF38E0204B1B785A1C54
:101CD800D1B21E4A117019461E4AFB7953541A4B49
:101CE80003221A702AE01A4B1B78023BFB73174B2E
:101CF8001B785A1CD1B2154A11701946154AFB793E
:101D08005354124B1B781A46FB7B02339A4214D366
:101D18000D4B04221A7010E00C4B1B785A1CD1B2E0
:101D28000A4A117019460B4AFB795354FFF732FFE0
:101D3800FEF7DAFE02E000BF00E000BF00BF103788
:101D4800BD4680BDCC020020CA020020C802002087
:101D5800C9020020A402002080B500AF084B002271
:101D68001A80084B00221A80074B00221A70FEF7CF
:101D7800BBFE01220549064808F092FA00BF80BD63
:101D88001C0200201E020020A1020020A002002048
:101D98009401002080B582B000AF164B1B78002B51
:101DA80012D006F0A9FD0246134B1B68D31A322B3A
:101DB8000AD9FEF799FE07E0FEF776FE0346FB71A7
:101DC800FB791846FFF73CFFFEF71CFE034683F03D
:101DD8000103DBB2002BEFD1084B1B78DBB2002BE1
:101DE80004D0064B00221A70FEF77EFE00BF0837AB
:101DF800BD4680BDCA020020CC020020A1020020FE
:101E080080B500AFFEF714FE0346002B03D0084B45
:101E180001221A7005E0074B1B78DBB21846FEF763
:101E280021FE01220349044808F03AFA00BF80BDA8
:101E3800A1020020A00200209401002080B582B0F9
:101E480000AF78607B681B68064A934205D101227F
:101E58000549064808F024FA00E000BF0837BD46E7
:101E680080BD00BF00100140A002002094010020A6
:101E780080B582B000AF0346FB71084AFB79137046
:101E8800FB7983F00103DBB21A464FF480710448F2
:101E980007F032FC00BF0837BD4680BDD1020020E4
:101EA8000010024080B582B000AF00F0ABFA0346E4
:101EB800012B01D1002311E000F0ACFA0346FB71BD
:101EC800FB79022B01D1022308E0FB79032B02D016
:101ED800FB79042B01D1032300E0012318460837BE
:101EE800BD4680BD80B483B000AF0346FB71FB796B
:101EF800002B02D14FF47A730BE0FB79022B02D14D
:101F08004FF4FA7305E0FB79032B01D1C82300E0F5
:101F1800002318460C37BD465DF8047B7047000067
:101F280080B582B000AF03463960FB71094AFB797E
:101F38001370094A3B681360FB79012B03D1002019
:101F4800FFF796FF02E00120FFF792FF00BF083776
:101F5800BD4680BDD3020020D402002098B500AF52
:101F6800094B00221A70094B00221A70FFF79AFFDA
:101F780003461C4606F0C0FC034619462046FFF7F8
:101F8800CFFF00BF98BD00BFD0020020D2020020C2
:101F980080B584B000AF244B1B78012B05D1234BAF
:101FA8001B781846FFF764FF3BE006F0A5FCF860D5
:101FB800FFF778FF0346FB721D4B1B78FA7A9A42AB
:101FC80005D0FB7AF9681846FFF7AAFF29E0184BF5
:101FD8001B781846FFF786FF78607B68002B06D1D0
:101FE8000020FFF745FF134AFB68136019E0114B07
:101FF8001B68FA68D31A7A689A4212D80D4AFB68A5
:1020080013600D4B1B78002B14BF01230023DBB298
:1020180083F00103DBB203F00103DBB21846FFF7DC
:1020280027FF1037BD4680BDD0020020D202002015
:10203800D3020020D4020020D102002098B500AFBE
:10204800074B00221A70FFF72DFF03461C4606F0C7
:1020580053FC034619462046FFF762FF00BF98BDB0
:10206800D002002080B582B000AF0346FB71074B59
:1020780001221A70064AFB791370FB791846FFF79C
:10208800F7FE00BF0837BD4680BD00BFD002002064
:10209800D202002080B400AF034B1B781846BD461F
:1020A8005DF8047B704700BFD002002080B400AF09
:1020B800034B1B781846BD465DF8047B704700BF8C
:1020C800D102002080B483B000AF786039607B68AB
:1020D800AA221A707B68012283F825207B680022D7
:1020E80083F826207B68AA2283F827207B683A6831
:1020F8009A627B68012283F82C2000BF0C37BD460A
:102108005DF8047B704780B582B000AF786078686E
:1021180000F004F800BF0837BD4680BD80B483B026
:1021280000AF78607B68002B13D07B68002283F8AF
:1021380025207B68002283F826207B68002283F80C
:1021480027207B6800229A627B68002283F82C2073
:1021580000E000BF0C37BD465DF8047B704780B5D2
:1021680082B000AF786039607B68002B07D07B684D
:1021780093F82C3083F00103DBB2002B01D000234D
:102188000BE07B689B6A3A68D31A312B01D800238D
:1021980003E07868FFF7C2FF012318460837BD46F9
:1021A80080BD80B586B000AFF8607A603B600B46B2
:1021B800FB72FB68002B02D03B68002B01D1022385
:1021C8009DE07968F868FFF7CAFFFB6893F82C3040
:1021D80083F00103DBB2002B08D0FB7AAA2B03D1D2
:1021E8007968F868FFF76EFF002388E0FB6893F8CA
:1021F8002530242B0BD9F868FFF790FFFB7AAA2B20
:1022080003D17968F868FFF75DFF022377E0FB6880
:1022180093F825301946FB68FA7A5A54FB687A68AD
:102228009A62FB6893F82530032B14D1FB7A202B94
:102238000BD9F868FFF772FFFB7AAA2B03D17968EC
:10224800F868FFF73FFF022359E0FB7A0533DAB25B
:10225800FB6883F82620FB6893F82630002B3CD0D7
:10226800FB6893F82520FB6893F82630013BDBB226
:102278009A4232D1FB6893F82730FA7A9A4202D010
:102288000323FB751AE0FB685A783B681A70FB68F1
:102298009A783B685A70FB68DA783B689A703B68B2
:1022A8009B78002B08D03B68D81CFB68191D3B683D
:1022B8009B781A46FDF7CEFF0123FB75F868FFF7F8
:1022C8002DFFFB7D012B06D0FB7AAA2B03D1796861
:1022D800F868FFF7F7FEFB7D11E0FB6893F827200D
:1022E800FB7A5340DAB2FB6883F82720FB6893F83F
:1022F80025300133DAB2FB6883F82520002318461D
:102308001837BD4680BD80B485B000AF78603960AD
:102318000023FB737B68002B04D13B68002B01D0A2
:10232800002311E00023BB6009E07A68BB6813440E
:102338001A78FB7B5340FB73BB680133BB60BA68F8
:102348003B689A42F1D3FB7B18461437BD465DF8CB
:10235800047B704790B585B000AF3A601A460346D3
:10236800FB710B46BB7113467B713B6A002B08D08F
:102378007B79202B05D83B68002B04D17B79002B77
:1023880001D000232EE07B790533FB7397F82420D6
:10239800FB7B9A4201D2002324E03B6AAA221A70EE
:1023A8003B6A0133FA791A703B6A0233BA791A70B8
:1023B8003B6A03337A791A707B79002B06D03B6A23
:1023C80004337A7939681846FDF744FFFB7B591EB8
:1023D800FB7B013B3A6AD418386AFFF794FF03463F
:1023E8002370FB7B18461437BD4690BD80B500AFFF
:1023F80000F0C2FF00BF80BD80B500AF01F01AF841
:1024080000BF80BD80B400AF01231846BD465DF80B
:10241800047B704780B500AF01F044F903461846C5
:1024280080BD80B582B000AF0346FB710B46BB8010
:1024380013467B807A88B988FB79184601F080F8C2
:10244800034618460837BD4680BD80B586B000AF44
:1024580078607B68002B1DD007F10C03184601F04B
:10246800E3F87B6801221A703A7B7B685A70BA7B62
:102478007B689A70FA7B7B68DA703A7C7B681A71A1
:102488007A7C7B685A717A8A7B68DA80BA8A7B6838
:102498001A8100E000BF1837BD4680BD80B483B004
:1024A80000AF0346FB80FB8801339BB2DBB29BB2D3
:1024B80018460C37BD465DF8047B704780B584B07C
:1024C80000AF0346FB710F4B1B88FB81FB89184645
:1024D800FFF7E4FF0346BB810B4B1B889BB2BA890D
:1024E8009A4205D1094B9B680133084A936006E07C
:1024F800FB890749FA79CA54024ABB891380103705
:10250800BD4680BDDC030020DE0300200C04002053
:10251800DC02002080B582B000AF1A4B93F83E3041
:10252800DBB2222B04D1184B00221A70012325E0BC
:10253800144B93F83E30DBB2202B04D0124B01220F
:102548001A7000231AE0012210490E4807F0A8FE6D
:102558000346FB71FB79002B04D10B4B00221A7048
:1025680001230BE0084B01221A70FB79022B04D0DF
:10257800074BDB680133064AD36000231846083747
:10258800BD4680BDD8010020E0030020D80200200D
:102598000C04002080B500AF1F4B00221A701F4B9F
:1025A80000221A801E4B00221A801E4B00221A702D
:1025B8001D4B00221A701D4B00221A701C4B002262
:1025C8001A701C4B00221A601B4B00221A701B4BFE
:1025D80000221A60194B00225A60184B00229A6098
:1025E800164B0022DA60154B00221A61134B0022A9
:1025F8005A61124B00229A61104B0022DA61FFF7F0
:1026080089FF034683F00103DBB2002B02D0054BA0
:1026180001221A7000BF80BDD8020020DC03002010
:10262800DE030020E0030020090400200A04002043
:102638002C040020300400202D0400200C0400206D
:1026480080B582B000AF0E4B1B78DBB2002B01D0F7
:10265800FFF760FF0B4B1B78DBB2002B0BD006F0AB
:102668004BF97860084B1B687A68D31A012B02D99A
:10267800044B00221A7000BF0837BD4680BD00BF5A
:10268800E00300202D0400203004002080B584B031
:1026980000AF78600B46FB707B68002B05D0FB7899
:1026A800002B02D0FB78252B06D9294B5B69013317
:1026B800274A5361002346E0264B1B78DBB2002BE8
:1026C80005D1254B93F83D30DBB2202B01D00023F8
:1026D80039E00023FB7309E0FB7B7A681A44FB7B33
:1026E80011781E4AD154FB7B0133FB73FA7BFB78CC
:1026F8009A42F1D31A4B00221A70FB78013B174A11
:10270800D25C184B1A70184B00221A70114B012218
:102718001A70FB789BB21A4610490F4807F07BFDE8
:102728000346BB73BB7B002B0CD00A4B00221A70EC
:102738000D4B00221A70064B5B690133044A536142
:10274800002300E0012318461037BD4680BD00BFB6
:102758000C04002009040020D8010020E403002014
:102768000A0400202C0400202D04002080B400AFAF
:10277800074B1B78DBB2002B01D1002303E0044B8D
:1027880000221A7001231846BD465DF8047B704785
:102798000A04002080B584B000AF78607B68002B05
:1027A80007D0104B1B889AB20F4B1B889BB29A42DA
:1027B80001D1002311E00C4B1B88FB81FB890B4ADC
:1027C800D35CDAB27B681A70FB891846FFF766FE9D
:1027D80003461A46044B1A80012318461037BD4693
:1027E80080BD00BFDC030020DE030020DC020020E7
:1027F80080B584B000AF264B1B78FB7306F07CF8DD
:10280800B860244B1B680133224A1360224B1B78A3
:10281800DBB2002B05D01F4B5B6801331D4A5360A8
:1028280027E01E4B1B78DBB2002B1ED01C4B1B680D
:10283800BA68D31A7B607B68012B0ED8194B1B78BA
:10284800DBB2FA7B9A4208D1144B00221A70114B62
:10285800DB6901330F4AD3610BE0104B00221A7079
:10286800FB7B1846FFF72AFE03E0FB7B1846FFF7C1
:1028780025FEFFF74FFE034683F00103DBB2002B72
:1028880002D0094B01221A7000BF1037BD4680BD27
:10289800D80200200C040020090400202D04002088
:1028A800300400202C040020E003002080B500AF95
:1028B80006F022F80346064A1360064B01221A70F6
:1028C800054B00221A70054B01221A7000BF80BD0B
:1028D800300400202D040020090400200A040020F0
:1028E80080B483B000AF7860094A7B689361084B75
:1028F8001B690133064A1361064B01221A70064B05
:1029080000221A7000BF0C37BD465DF8047B704783
:102918000C040020E00300202D04002080B483B0C4
:1029280000AF78607B68002B20D0134B1A687B6857
:102938001A60114B5A687B685A600F4B9A687B681B
:102948009A600D4BDA687B68DA600B4B1A697B6812
:102958001A61094B5A697B685A61074B9A697B6807
:102968009A61054BDA697B68DA6100E000BF0C37D1
:10297800BD465DF8047B70470C04002080B487B026
:1029880000AFF860B9601346FB710023FB750EE0D9
:10299800FB7DFA6813441A78FB7DB9680B441B78F1
:1029A8009A4201D0002307E0FB7D0133FB75FA7DD5
:1029B800FB799A42ECD3012318461C37BD465DF8D3
:1029C800047B704780B483B000AF78607B681B7865
:1029D800022B05D17B685B78012B01D1012300E034
:1029E800002303F00103DBB218460C37BD465DF83F
:1029F800047B704780B584B000AFF860B9601346B7
:102A0800FB71FB689B78FA799A420BD1FB68033318
:102A1800FA79B9681846FFF7B1FF0346002B01D0D1
:102A2800012300E0002303F00103DBB2184610374E
:102A3800BD4680BD80B400AF084B00221A70084B19
:102A480000221A70074B00221A80074B00221A80B6
:102A580000BFBD465DF8047B704700BFD20400206C
:102A6800D3040020D4040020D604002080B582B00E
:102A780000AF00BFFB1D1846FFF78CFE0346002B76
:102A8800F8D10348FFF74AFB00BF0837BD4680BDB1
:102A98003404002080B483B000AF78600D4B1B78FD
:102AA800022B0CD10C4B1B78002B08D00B4B1B684E
:102AB8007A68D31AB3F5E17F01D2012300E000233D
:102AC80003F00103DBB218460C37BD465DF8047B02
:102AD800704700BF65040020F0040020EC040020CB
:102AE80080B483B000AF78600C4B1B7883F001038F
:102AF800DBB2002B05D10A4B1B687A68D31A022B6C
:102B080001D9012300E0002303F00103DBB21846DA
:102B18000C37BD465DF8047B704700BFF004002009
:102B2800EC04002080B483B000AF7860054A7B686D
:102B38001360054B01221A7000BF0C37BD465DF8C3
:102B4800047B7047EC040020F004002080B582B0BC
:102B580000AF03463960FB800B4AFB8813800B4BA0
:102B680000221A700A4B02221A703868FFF7DAFF3F
:102B7800FFF760FF074B00221A70074B08221A70F4
:102B880000BF0837BD4680BDDC0400206604002075
:102B980065040020D10400206404002080B582B0C0
:102BA80000AF0346FB71FB79002B04D00B4B5B6A2B
:102BB80001330A4A53620A4B0A221A70094B03224C
:102BC8001A70FFF737FF084B00221A70074B0E22C6
:102BD8001A7000BF0837BD4680BD00BF68040020DA
:102BE8006604002065040020D1040020640400204D
:102BF80080B582B000AF0346FB71FB79082B05D185
:102C08000F4B9B6B01330E4A936307E0FB79092B4B
:102C180004D10B4B5B690133094A5361094AFB79BB
:102C28001370094B03221A70FFF704FF074B0022A9
:102C38001A70074B0E221A7000BF0837BD4680BDB8
:102C4800680400206604002065040020D1040020E8
:102C58006404002080B500AF0A4B1B6C0133094A9D
:102C68001364094B0B221A70084B04221A70FFF7E1
:102C7800E1FE074B00221A70064B0E221A7000BFA5
:102C880080BD00BF680400206604002065040020A1
:102C9800D10400206404002080B588B002AFF86039
:102CA8007B600B46FB721346BB72FB7A25220192AE
:102CB800124A0092FA6802210120FFF74BFB0346F3
:102CC800FB75FB7D002B0AD0FB7D19460B48FFF7EF
:102CD800DDFC034683F00103DBB2002B03D0FFF7D2
:102CE800B9FF002306E0064A7B681360054ABB7AF1
:102CF8001370012318461837BD4680BDAC04002068
:102D0800E40400206404002080B582B000AF78603D
:102D1800FFF7ACFE0A4B01221A700A4A7B6813605F
:102D2800094B9B690133084A93617B68022204219D
:102D38000648FFF7B1FF00BF0837BD4680BD00BF9A
:102D480065040020E00400206804002028D9000859
:102D580080B584B000AF78602B4B1B7883F00103FB
:102D6800DBB2002B06D0294B00221A70284B082210
:102D78001A7045E0274B1B783B72274B1B881B0AB0
:102D88009BB2DBB27B72244B1B88DBB2BB72214B3C
:102D98001B78032B19D1214B1B881B0A9BB2DBB272
:102DA800FB721E4B1B88DBB23B7307F108007B6884
:102DB80009220521FFF770FF0346002B20D0184B8E
:102DC8009B6A0133164A93621AE0124B1B78062B52
:102DD80013D10023FB7200233B7307F108007B68C3
:102DE8000B220521FFF758FF0346002B08D00C4B98
:102DF8001B6B01330A4A136302E00920FFF7F8FE50
:102E08001037BD4680BD00BFD2040020D104002089
:102E180064040020D3040020D4040020D604002039
:102E28006804002080B582B000AF7860194B1B6A37
:102E38000133184A1362184B02221A707868FFF798
:102E480071FE164B1B78002B0FD0154B1B78012BEE
:102E58000BD1144B00221A70FFF7ECFD124B002225
:102E68001A70124B08221A7010E00C4B1B78002BBA
:102E780003D00E4B07221A7008E00A4B00221A7082
:102E8800094B00221A70094B08221A7000BF083734
:102E9800BD4680BD6804002065040020D2040020DF
:102EA800D304002066040020D1040020640400201C
:102EB80080B582B000AF786039607868FFF782FD2E
:102EC800034683F00103DBB2002B05D0134B1B69CB
:102ED8000133124A13611EE03868FFF723FE04220B
:102EE8000F497868FFF786FD034683F00103DBB2DC
:102EF800002B08D0094B5B690133084A5361002055
:102F0800FFF74CFE07E0054BDB690133034AD36149
:102F1800044B04221A700837BD4680BD680400209F
:102F28002CD900086404002080B582B000AF786016
:102F380039607868FFF746FD034683F00103DBB28A
:102F4800002B05D0114B1B690133104A136119E09E
:102F58003868FFF7E7FD04220D497868FFF74AFD56
:102F6800034683F00103DBB2002B08D0074B5B69F3
:102F78000133064A53610020FFF710FE02E038686B
:102F8800FFF750FF0837BD4680BD00BF680400202A
:102F980028D9000880B584B000AF786039607868B7
:102FA800FFF710FD034683F00103DBB2002B05D0C9
:102FB8001E4B1B6901331D4A136134E03868FFF763
:102FC800B1FD03233B721A4B1B881B0A9BB2DBB271
:102FD8007B72174B1B88DBB2BB72164B1B881B0A14
:102FE8009BB2DBB2FB72134B1B88DBB23B7307F15E
:102FF8000803052219467868FFF7FCFC034683F0AE
:103008000103DBB2002B03D00920FFF7F1FD0AE032
:10301800064BDB6A0133054AD362064B1B883968C5
:103028001846FFF793FD1037BD4680BD68040020A1
:10303800DA040020DC04002080B584B000AF78609A
:1030480039607868FFF7BEFC034683F00103DBB202
:10305800002B05D01E4B1B6901331D4A136133E059
:103068003868FFF75FFD7B689B78052B13D17B6879
:10307800DB78062B0FD17B681A79164B1B881B0A45
:103088009BB2DBB29A4206D17B685A79114B1B88F6
:10309800DBB29A4203D00920FFF7AAFD14E07B684F
:1030A8009B791BB21B021AB27B68DB791BB21343F4
:1030B8001BB2FB81064B5B6B0133054A5363FB89EB
:1030C80039681846FFF742FD1037BD4680BD00BF7E
:1030D80068040020DA04002080B582B000AF786070
:1030E8003960194B1B680133174A1360174B1B785B
:1030F800032B04D139687868FFF7DAFE1FE0134B19
:103108001B78062B04D139687868FFF70DFF16E0A5
:103118000E4B1B780A2B04D139687868FFF73AFF01
:103128000DE00A4B1B780C2B04D139687868FFF73F
:1031380083FF04E0044B1B690133034A136100BF9A
:103148000837BD4680BD00BF680400206404002025
:1031580080B58CB000AF786028E097F82E1007F1A2
:1031680008037A681848FFF71CF8034687F82F30D9
:1031780097F82F30012B06D107F108037968184614
:10318800FFF7AAFF12E097F82F30032B05D10F4B5A
:103198005B6801330D4A536008E097F82F30022B23
:1031A80004D10A4B9B680133084A936007F12E0348
:1031B8001846FFF7EFFA0346002BCED100BF00BF39
:1031C8003037BD4680BD00BF3404002068040020AD
:1031D80080B400AF0F4B1B78022B0FD00D4B1B7820
:1031E800032B0BD00B4B1B78042B07D0094B1B78F8
:1031F800052B03D0074B1B78062B01D1012300E0D8
:10320800002303F00103DBB21846BD465DF8047BDA
:10321800704700BF6404002080B588B000AF3B460B
:103228001846FFF77BFB3A69064B1B689A4205D0A4
:103238003B69044A1360FFF70DFD00E000BF20372B
:10324800BD4680BDF404002080B584B000AF78602E
:103258001F4B1B78022B02D10323FB730FE01C4B7F
:103268001B78052B02D10623FB7308E0184B1B784B
:10327800092B02D10A23FB7301E00C23FB73FFF730
:1032880075FA0346002B09D0124A7B68136012486E
:10329800FEF744FF0E4AFB7B137015E00F4B1B68CB
:1032A8007A68D31A632B0FD90D4BDB6B01330C4AA9
:1032B800D363FFF78DFF0346002B03D00120FFF7F0
:1032C8006DFC01E0FFF7C6FC1037BD4680BD00BFAE
:1032D80064040020E804002034040020E4040020F2
:1032E8006804002080B582B000AF7860134B1B786B
:1032F800032B03D0114B1B78062B09D1104B1B68ED
:103308007A68D31A632B15D90120FFF747FC11E01F
:103318000A4B1B780A2B03D0084B1B780C2B09D1BE
:10332800074B1B687A68D31AF92B03D90820FFF7D3
:103338005FFCFFE700BF0837BD4680BD640400207E
:10334800E804002080B582B000AF7860FFF740FF46
:103358000346002B09D0074B1B687A68D31AB3F5CC
:10336800FA7F02D30120FFF719FC00BF0837BD46DA
:1033780080BD00BFE004002080B59AB000AF1E48B1
:10338800FEF7C1FE1D4B184644231A4600210AF0D9
:10339800D3F91B4B00221A701A4B00221A701A4BD1
:1033A80001221A70194B01221A70FFF743FB184BC0
:1033B80001221A70174B00221A80174B00221A801C
:1033C800164B00221A60164B00221A60154B002279
:1033D8001A60154B00221A60144B00221A7007F16C
:1033E80048031846FFF79AFABB6D114A136000BFED
:1033F8006837BD4680BD00BF340400206804002043
:10340800640400206504002066040020D104002024
:10341800D8040020DA040020DC040020E0040020A6
:10342800E4040020E8040020EC040020F00400205C
:10343800F404002080B582B000AF05F05DFA786032
:1034480079683A48FEF78BFE0346002B04D0384BC8
:10345800DB680133364AD360FFF7DEFE354B1B7855
:10346800022B0BD0334B1B78052B07D0314B1B7825
:10347800092B03D02F4B1B780B2B02D17868FFF751
:10348800E3FE7868FFF764FE2A4B1B78002B02D115
:10349800284B01221A70274B1B78012B09D1786819
:1034A800FFF71EFB0346002B35D07868FFF72CFC8E
:1034B80031E0204B1B78042B0CD17868FFF710FB08
:1034C8000346002B27D07B68052204211A48FFF702
:1034D800E3FB20E0174B1B78072B09D17868FFF72F
:1034E800FFFA0346002B16D07868FFF731FC12E08C
:1034F800104B1B78082B0ED17868FFF7CBFA0346E0
:1035080083F00103DBB2002B05D00C4B03221A70A9
:10351800084B0D221A707868FFF7E4FE7868FFF709
:1035280011FF00BF0837BD4680BD00BF340400202E
:1035380068040020640400202CD9000865040020D9
:1035480080B584B000AF0346FB710B46BB801346C1
:103558007B802B4B1B78002B01D001234CE0FB799F
:10356800012B07D0FB79032B04D0FB79062B01D064
:10357800022341E0FB79012B05D0BB88B3F5807F9E
:1035880001D9032338E0FB79012B03D10023BB8049
:1035980000237B801B4B01221A701B4AFB79137096
:1035A8001A4ABB8813801A4A7B881380194AFB7908
:1035B8001370194ABB881380184A7B881380184BEC
:1035C80001221A700E4B01221A7005F095F9F86065
:1035D800FB79012B08D0F868FFF75CFA034683F003
:1035E8000103DBB2002B03D00E4B01221A7002E05C
:1035F8000C4B07221A70002318461037BD4680BDB1
:10360800D1040020D2040020D3040020D4040020D8
:10361800D6040020D8040020DA040020DC040020AE
:10362800660400206404002080B483B000AF786092
:103638007B68002B20D0134B1A787B681A70124BCA
:103648001A787B685A70114B1A787B689A70104BFD
:103658001A787B68DA700F4B1A787B681A710E4BF0
:103668001A787B685A710D4B1A887B68DA800C4B84
:103678001A887B681A8100E000BF0C37BD465DF8E8
:10368800047B70476504002064040020D1040020F6
:10369800D2040020D804002066040020DA040020A8
:1036A800DC04002080B400AF034B1B781846BD46ED
:1036B8005DF8047B704700BF650400202DE9B04F1A
:1036C8009AB000AF78643964FA637B6C002B03D03E
:1036D8007A6C764B9A4201D90023E1E07B6C002298
:1036E8003B637A63D7E90C234FF000004FF00001E9
:1036F800190441EA1241100402460B46396BB2EB39
:10370800010A796B63EB010BC7E914ABD7E9142302
:1037180067495118B96243F10003FB62D7E91423E2
:10372800D7E90A01FCF77CFD02460B46C7E91823D6
:10373800D7E91823134305D14FF001024FF00003D6
:10374800C7E91823D7E91823B2F1011F73F1000361
:1037580001D30023A4E07B6C00223B627A627B6E7B
:10376800D7E908AB524602FB03F23B6E594601FB10
:1037780003F31A443B6E5146A3FB014553191D46FA
:10378800C7E91245C7E91245D7E912014FF000020F
:103798004FF00003420842EAC1724B0845495118EC
:1037A800B96143F10003FB61D7E91223D7E90601A8
:1037B800FCF736FD02460B46C7E91623D7E9162360
:1037C800022A73F1000346D2D7E91823B2F5803FE5
:1037D80073F1000301D3002362E0D7E91823511CD9
:1037E800396043F100037B60D7E90034C7E9183436
:1037F8007B6C00223B617A617B6ED7E904452246E7
:1038080002FB03F23B6E294601FB03F313443A6EB5
:103818002146A2FB01894B449946C7E91289C7E9A9
:103828001289D7E912014FF000024FF00003420855
:1038380042EAC1724B081F495118B96043F10003AD
:10384800FB60D7E91223D7E90201FCF7E9FC02463D
:103858000B46C7E91623D7E91623022A73F100039A
:1038680006D3D7E91623B2F5803F73F1000301D3DD
:10387800002315E0D7E91823134306D0D7E9182306
:10388800B2F1011F73F1000301D3002308E03B6E7E
:103898005A1E3B6C1A60BB6D5A1EFB6B1A600123E3
:1038A80018466837BD46BDE8B08F00BFA086010046
:1038B800FFBC010500BD01052DE9B04F88B000AF80
:1038C800F8607981F96800208846814618F1010A74
:1038D80049F1000BC7E904AB798900200C4605467D
:1038E800396905FB01F0796904FB01F10144386984
:1038F800A0FB042319440B4641F288315118396062
:1039080043F100037B6042F210724FF00003D7E9E5
:103918000001FCF785FC02460B46C7E90623D7E9F8
:103928000623B2F5803F73F1000305D34FF6FF720B
:103938004FF00003C7E90623BB6918462037BD4688
:10394800BDE8B08F2DE9B04FB4B000AFC7F8840020
:103958000B46A7F88230B7F8822042F210739A42D9
:1039680001D90023C6E107F1880207F18C03194643
:10397800D7F88400FFF7A2FE034683F00103DBB209
:10398800002B01D00023B5E1D7F88820B7F88230A2
:1039980019461046FFF790FFC7F8CC00D7F88C30CF
:1039A80001330022BB67FA67D7F888300133002259
:1039B8003B677A67D7E91E010B463A6F02FB03F2B1
:1039C8007B6FC7E91E01014601FB03F31344BA6F7D
:1039D800396FA2FB01894B449946C7E93089C7E989
:1039E8003089D7E930234FF000004FF0000150082C
:1039F80040EAC3705908C24BC318BB6641F10003C3
:103A0800FB66D7E93023D7E91A01FCF709FC02461F
:103A18000B461346C7F8BC30D7F8883000223B66FF
:103A28007A66D7E918120B460133BB62134643F195
:103A38000003FB62D7E90A23C7E92C23D7F8CC3067
:103A48000022BB65FA65D7E9168942464B464FF016
:103A580000004FF00001990041EA9271900002467F
:103A68000B4641465418494643EB01054FF0000206
:103A78004FF00003EB0043EA5473E20014461D467E
:103A88004346B4EB030A404649460B4665EB030B35
:103A98004FF000024FF000034FEA0B1343EA1A738A
:103AA8004FEA0A1292469B4603461AEB03033B620F
:103AB8000B464BEB03037B624FF000024FF0000311
:103AC800D7E9084529460B01214643EA11732146E7
:103AD8000A0114461D46D7E92C234FF000004FF089
:103AE8000001500840EAC370590823183B6545EBAC
:103AF80001037B65D7E92C23D7E91401FCF790FB78
:103B080002460B461346A7F8AE30D7F8BC30002261
:103B1800BB64FA64D7F8843000223B647A64D7E93E
:103B280012452346D7E9100102469B1ABB612B4672
:103B38000A4663EB0203FB61D7E90634C7E9283478
:103B4800D7E9280102460B464FF000044FF0000564
:103B58005D0145EAD265540122462B46141A3C61A0
:103B680063EB01037B614FF000024FF00003D7E9DC
:103B780004894C466302444643EAD45344466202ED
:103B880014461D4623461B18BB602B4641EB030316
:103B9800FB604FF000024FF00003D7E902894C4662
:103BA800A301444643EA94634446A2014446141BD5
:103BB8003C604C4663EB04037B60D7E90045234631
:103BC8001B18BB632B4641EB0303FB63D7F8843018
:103BD80000223B637A63D7E90C23D7E90E01FCF78F
:103BE800CFFA02460B46C7E92823D7F8A030C7F812
:103BF8009C30444B1B68C7F89830434B1B68C7F888
:103C08009430424B1B68C7F890300021404807F0B9
:103C1800A5FC3F4B1B68D7F88C209A623C4B1B686D
:103C2800D7F88820DA62D7F88830394AD360384B19
:103C38001B68D7F8CC205A63354B1B6800225A62A0
:103C4800334B1B6801225A61314B1B686FF001022C
:103C58001A6100212E4807F0B9FB0346002B25D036
:103C68002B4B1B68D7F898209A62294B1B68D7F80A
:103C78009420DA62264AD7F89430D360244B1B6824
:103C8800D7F890205A63224B1B6800225A62204BB7
:103C98001B6801225A611E4B1B686FF001021A61F2
:103CA80000211B4807F092FB002323E0194AD7F8AC
:103CB80084301360184AD7F8BC301360174AD7F815
:103CC8009C301360164AB7F882301380154AB7F84B
:103CD800AE301380D7F88C300A4A1360D7F8883092
:103CE800094A1360094AD7F8CC3013600E4B0122F9
:103CF8001A7001231846D037BD46BDE8B08F00BF03
:103D080000BD01050C000020100000201400002058
:103D1800E41000200000002004000020F804002027
:103D2800080000200A0000201900002080B500AF1C
:103D380041F288314FF47A70FFF704FE03461846C3
:103D480080BD000080B582B000AF7860054B1B884D
:103D580019467868FFF7F6FD034618460837BD464A
:103D680080BD00BF0800002080B582B000AF0346C8
:103D7800FB80064B1B68FA8811461846FFF7E2FDE0
:103D8800034618460837BD4680BD00BF0000002026
:103D980080B582B000AF0346FB71154AFB791370FA
:103DA800FB79002B09D0134B1B68134A1288114664
:103DB8001846FFF7C7FD034616E0104B1B7883F043
:103DC8000103DBB2002B01D001230DE00C4B1B6873
:103DD80000225A630B4B00221A600B4B00221A80F8
:103DE800064B01221A70012318460837BD4680BDCC
:103DF8001800002000000020080000201900002002
:103E0800E4100020140000200A00002080B400AF55
:103E1800034B1B781846BD465DF8047B704700BF0E
:103E28001800002080B400AF034B1B681846BD463D
:103E38005DF8047B704700BF0400002080B400AF29
:103E4800034B1B881846BD465DF8047B704700BFCE
:103E58000800002080B400AF034B1B881846BD46FD
:103E68005DF8047B704700BF0A00002080B485B06D
:103E780000AF78607968002901D100231CE011485F
:103E88007968B0FBF1F100200A460346C7E902232E
:103E9800D7E90223B2F57A7F73F1000308D3D7E993
:103EA800022309498A4273F1000301D2012300E089
:103EB800002303F00103DBB218461437BD465DF852
:103EC800047B704700CA9A3B414B4C0080B500AF59
:103ED8003F4B1B681A6A41F211131340002B0FD194
:103EE8003B4B1B681A6A40F244431340002B07D12E
:103EF800374B1B681A68364B1B6822F001021A60A0
:103F0800334B1B68DA68324B1B6822F00102DA6017
:103F18002F4B1B6800225A622D4B1B6801225A61E5
:103F28002B4B1B686FF001021A61294B1B686FF05D
:103F380002021A61264B1B686FF400721A61254B46
:103F480000221A60244B00221A70244B00221A7097
:103F5800234B00221A70234B00221A60224B0022A6
:103F68001A70224B00221A70214B00221A604FF45B
:103F78000071204805F0A8FB0346012B0CBF012364
:103F88000023DBB21A461C4B1A701C4B00221A7015
:103F98001A4B00229A770E4B1B68DA680C4B1B6889
:103FA80042F00102DA600021094807F0A1FB03464C
:103FB800002B09D0064B1B68DA68054B1B6822F0FA
:103FC8000102DA60002300E00123184680BD00BF2B
:103FD80054100020FC0400201A0500201B050020B6
:103FE8001C050020300500200C05002018050020C5
:103FF80000050020001002401905002038050020A7
:104008002DE9B04F90B000AF7861796909687148BF
:10401800814240F0D980796909680969B963B96B47
:1040280001F4007100292BD07B691B686FF40072C2
:104038001A61694B1B680133674A1360664B1B683A
:10404800664A1360664B00221A70664B00221A708B
:10405800654B00221A70654B00221A70644B0022CF
:104068001A704FF40071634805F02EFB0346012BCC
:104078000CBF01230023DBB21A465F4B1A70A4E081
:1040880079690968496B79635C490968F963B96BAF
:1040980001F00101002906D0796BB1F5004F02D279
:1040A800F96B0131F963F96B0020884681464FEAC4
:1040B80018434FEA0842796B00200C46054642EA4D
:1040C8000401B9602B43FB60D7E90234C7E90A341D
:1040D80004F012FC03464A4A1360474B1B78002B36
:1040E80066D1404B1B78002B56D03F4B1B78002BDA
:1040F80052D0444BD3E90023D7E90A01841A3C6023
:1041080061EB03037B60D7E90034C7E908343E4B11
:10411800D3E90023D7E90A01B0EB020A61EB030BEC
:10412800C7E906ABD7E9082313432FD0D7E90823FB
:10413800012B2BD2D7E90623D7E90801904271EB6E
:10414800030323D33B6A1846FFF790FE0346002B70
:104158001CD02E4B1B6801332C4A13603B6A2C4A37
:104168001360BB692B4A13601B4B1B681B4A136007
:10417800234B1B68284A13601D4B01221A701B4BE6
:1041880001221A70164B01221A7005E0144B002206
:104198001A70174B00221A701A49D7E90A23C1E985
:1041A8000023104B01221A70134B01221A700CE0E5
:1041B8001549D7E90A23C1E900230B4B01221A70DC
:1041C8000D4B00221A7000E000BF4037BD46BDE825
:1041D800B08F00BF0000014030050020100500200E
:1041E8001A0500201B0500201C0500200C050020D6
:1041F800180500200010024019050020FC040020CA
:104208003405002020050020280500200005002096
:1042180004050020080500201405002080B483B0A0
:1042280000AF78607B681B68074A934205D1074B4B
:104238001B680133054A136000E000BF0C37BD4618
:104248005DF8047B704700BF00000140FC040020BB
:104258002DE9B04F9AB000AF9F4B1B68FB659F4B91
:104268001B7887F85B309E4B1B687B659D4B1B68F2
:104278003B659D4B1B68FB649C4B1B68BB649C4B5C
:104288001B7887F84730944B1A68FB6D934240F0CF
:104298001D8104F031FB38643A6CBB6C9A4203D33D
:1042A8003A6CBB6CD31A00E00023FB63914B1B698B
:1042B80003F40073002B01D0012300E0002387F8EA
:1042C8003B3097F85B3083F00103DBB2002B06D15B
:1042D80097F8473083F00103DBB2002B36D0FB6B35
:1042E80040F6C41293421CD997F83B30002B03D0F8
:1042F800814B02221A7002E07F4B03221A707E4A19
:1043080097F83B30D3777C4B00229A777A4AFB6B3D
:1043180053617A4B1B68784A9361794A3B6C136006
:10432800D5E0754B00221A70734A97F83B30D37763
:10433800714B00229A77704AFB6B53616F4B1B6875
:104348006D4A93616E4A3B6C1360C0E0FA6B40F6AD
:10435800C4139A421BD997F83B30002B03D0664B05
:1043680002221A7002E0644B03221A70624A97F81C
:104378003B30D377604B00229A775F4AFB6B5361DF
:104388005D4AFB6C93615E4A3B6C13609FE05D4A3B
:104398007B6DB2FBF3F300221C461546C7E90C45BA
:1043A8003B6D0022BB60FA60D7E90234C7E90A34E2
:1043B800D7E90A4522462B464FF000004FF000018E
:1043C800990041EA9271900002460B4612EB0408EC
:1043D80043EB05094FF000024FF000034FEAC90311
:1043E80043EA58734FEAC80290469946B8EB040A64
:1043F80069EB050B4FF000024FF000034FEA0B1377
:1044080043EA1A734FEA0A1292469B461AEB0403D0
:104418003B604BEB05037B604FF000024FF000035D
:10442800D7E9004529460B01214643EA1173214685
:104438000A01796D4908002039627862D7E9084590
:1044480021465118B961294643EB0101F9617B6D99
:1044580000223B617A61D7E90423D7E90601FBF71B
:10446800DFFE02460B46C7E91823D7E9182342F2B4
:1044780011718A4273F1000305D342F210724FF0B2
:104488000003C7E918231C4B01221A703B6B1A4A18
:1044980053603B6E184A9360174A7B6DD360BB6AC2
:1044A800154A1361144AFB6B5361134AFB6C936101
:1044B800114BA7229A83104B01229A770E4A97F83C
:1044C8003B30D3770E4A3B6C136000E000BF68377F
:1044D800BD46BDE8B08F00BF000500200C050020D8
:1044E8000405002008050020100500201405002000
:1044F8001805002000100240380500203005002073
:104508005805002000CA9A3BB0B483B000AF786069
:104518007B68002B01D100230AE07B68074A1C4610
:1045280015460FCD0FC495E80F0084E80F0001234E
:1045380018460C37BD46B0BC704700BF3805002090
:1045480080B584B000AF3B4600221A605A609A607A
:10455800DA60294B294A1A60274B4FF480325A6097
:10456800254B00229A60244B01221A61224B00221B
:104578001A76214B002283F820201F4B4FF08052DF
:10458800DA621D4B4FF0C0629A621B4B0022DA6060
:10459800194B0222DA61184B012283F83020164B9E
:1045A80001225A61144808F0E1F90346002B01D0B2
:1045B800FCF798F800233B6001237B600723BB606E
:1045C8003B4619460C4808F089FB0346002B01D0EE
:1045D800FCF788F809233B6002237B603B461946B9
:1045E800054808F07BFB0346002B01D0FCF77AF85E
:1045F80000BF1037BD4680BD5C050020002001408B
:1046080080B58AB000AF786007F1140300221A6001
:104618005A609A60DA601A617B681B683C4A934268
:1046280071D100233B613B4B5B6C3A4A43F4807386
:104638005364384B5B6C03F480733B613B69002324
:10464800FB60344B1B6B334A43F001031363314B5C
:104658001B6B03F00103FB60FB680023BB602D4B61
:104668001B6B2C4A43F0020313632A4B1B6B03F0AA
:104678000203BB60BB6801237B610323BB6100238A
:10468800FB6107F114031946234804F081FE022355
:104698007B610323BB610023FB6107F11403194607
:1046A8001E4804F075FE1E4B1E4A1A601C4B002261
:1046B8005A601B4B00229A60194B0022DA60184B93
:1046C8004FF480621A61164B4FF400625A61144B22
:1046D8004FF400529A61124B4FF48072DA61104B1A
:1046E80000221A620E4B00225A620D4804F04EFA5C
:1046F8000346002B01D0FBF7F5FF7B68084A9A6355
:10470800074A7B68936300BF2837BD4680BD00BF5A
:10471800002001400038024000000240000402402E
:10472800A40500201064024080B400AF012318469D
:10473800BD465DF8047B70472DE9B04F8AB000AFE5
:104748000346B960FB81BB68002B02D0FB89002BB4
:1047580001D1002343E024A3D3E90023C7E90823B8
:10476800FB895B089BB29BB200221C461546D7E921
:10477800082314EB020A45EB030BFB8900223B607C
:104788007A60D7E9002350465946FBF749FD0246AF
:104798000B46C7E9062346F298224FF00003C7E903
:1047A8000423D7E90623D7E90401904271EB0303F8
:1047B80001D3002313E0D7E90601D7E90423B0EBBE
:1047C800020861EB0309C7E90689D7E90623012B2B
:1047D80001D3002303E0BA69BB681A6001231846B5
:1047E8002837BD46BDE8B08FF0D870020000000041
:1047F80080B485B000AF0346FB80FB8840F6E442F6
:1048080002FB03F3FB60FB6803F2FF72074BA3FB99
:104818000213D21A52081344DB0AFB60FB689BB2EE
:1048280018461437BD465DF8047B70470101100037
:1048380080B588B000AF786039607B68002B02D003
:104848003B68002B01D1002350E03B6807EE903A0B
:10485800B8EE677ADFED276AC7EE267AC7ED077AE2
:1048680097ED070A08F0DAFC87ED060A97ED067A55
:10487800DFED216AC7EE267A9FED207A37EE877A38
:10488800F7EE006AC6EE877AC7ED057AD7ED057AA6
:104898009FED1B7A77EEC77AC7ED047AD7ED047AD5
:1048A8009FED187A67EE877A97ED047AB5EEC07AAD
:1048B800F1EE10FA02DBB6EE007A01E0BEEE007A05
:1048C80077EE277AFDEEE77A17EE903AFB60FB6801
:1048D80013F5004F03DBFB68B3F5004F01DB002342
:1048E80004E0FB681AB27B681A8001231846203757
:1048F800BD4680BD00209E4500F06F45279D6B3B5F
:10490800339388430000C84280B584B000AF786014
:104918000023FB607B68002B01D100230EE007F128
:104928000C031946786800F07FFE034683F0010304
:10493800DBB2002B01D0002300E00123184610371A
:10494800BD4680BD80B400AF064B00221A74054BEB
:1049580003225A74034B00225A8200BFBD465DF8F9
:10496800047B70470406002080B483B000AF034680
:10497800FB80154B01221A74B7F90630134A93428B
:1049880007DA114B01225A740F4B4FF23C625A82DC
:1049980013E0B7F9063041F27072934207DD0A4B13
:1049A80002225A74084B41F270725A8205E0064B93
:1049B80000225A74044AFB88538200BF0C37BD4654
:1049C8005DF8047B704700BF040600203CF6FFFF3B
:1049D80080B500AF1C4B00221A701B4B00225A8076
:1049E800194B00229A80184B00229A60164B00221D
:1049F8009A81154B4FF6FF72DA81134B00221A7415
:104A0800114B03225A74104B00225A820F4B00227A
:104A18001A600F4B00221A600E4B00221A70FFF723
:104A280083FE034683F00103DBB2002B06D0064B5E
:104A380006221A70FFF786FF002303E0054B0122C8
:104A48001A700123184680BD0406002018060020AD
:104A58001C0600202006002080B584B000AF494B1A
:104A68001B7883F00103DBB2002B40F0858003F054
:104A780043FFF860444B1B68FA68D31AF92B7DD9B9
:104A8800414AFB68136000237B8107F10A0318463B
:104A9800FFF73AFF034683F00103DBB2002B05D092
:104AA8003A4B02221A70FFF74DFF68E07A89374BBC
:104AB8005A807B891846FFF79BFE03461A46334BFC
:104AC8009A8000237B607B893A1D11461846FFF7C0
:104AD80033FE034683F00103DBB2002B12D02B4BCD
:104AE80000229A60294B00229A817B89002B03D1EE
:104AF800264B03221A7002E0244B04221A70FFF797
:104B080021FF3CE07B68214A936000237B807A6820
:104B1800BB1C11461846FFF78BFE034683F00103C2
:104B2800DBB2002B08D0194B00229A81174B0522C3
:104B38001A70FFF707FF22E0B7F90220134B9A819A
:104B4800B7F902301846FFF70FFF104B5B7C002BBC
:104B580006D10E4B01221A700D4AFB6813600EE055
:104B68000A4B5B7C012B03D1084B03221A7006E029
:104B7800064B04221A7002E000BF00E000BF1037A5
:104B8800BD4680BD2006002018060020040600202F
:104B98001C060020B0B584B000AF78607B68002B9D
:104BA80001D100232AE003F0A7FEB860154B1B785B
:104BB800012B0CD1144B1B68BA689A4204D3124BD0
:104BC8001B68BA68D31A00E00023FB6002E04FF6C6
:104BD800FF73FB60FB68B3F5803F02D2FB689BB2B2
:104BE80001E04FF6FF73074AD3817B68054A1C46EC
:104BF80015460FCD0FC42B682360012318461037C4
:104C0800BD46B0BD040600201C0600202DE9B04FAB
:104C18008CB000AF0346FB83FB8B0022984691467D
:104C280042464B469118B9605B41FB60D7E90223C5
:104C380012EB080443EB09054FF000024FF00003A4
:104C48006B0143EAD4636201A118396045EB0303A1
:104C58007B60D7E900120B4613EB080A134643EBB7
:104C6800090B41F288331AEB03033B614BF1000354
:104C78007B6142F210724FF00003D7E90401FBF7A1
:104C8800CFFA02460B46C7E90A23D7E90A23B2F549
:104C9800803F73F1000305D34FF6FF724FF0000316
:104CA800C7E90A23094B1B68BA6A5A63074B1B6892
:104CB8005B6B7B62BB6A7A6A9A420CBF0123002352
:104CC800DBB218463037BD46BDE8B08F2C11002046
:104CD8002DE9B04F86B000AFF860F968002088462B
:104CE8008146404649464FF000044FF000050D014B
:104CF80045EA1075040120462946B0EB080261EB2D
:104D08000903911839605B417B60D7E9002312F5EC
:104D1800FA7A43F1000B4FF47A724FF000035046D1
:104D28005946FBF77DFA02460B46C7E90423D7E943
:104D38000423B2F5803F73F1000301D23B8A01E0FE
:104D48004FF6FF7318461837BD46BDE8B08F000010
:104D580080B500AF03F0D0FD0246064B1B68D31A9E
:104D680040F2CF72934294BF01230023DBB218466E
:104D780080BD00BF3C06002080B483B000AF7860DF
:104D8800084B1B687A68D31A40F28F12934294BF7B
:104D980001230023DBB218460C37BD465DF8047BBF
:104DA800704700BF4406002080B500AF204B0022AA
:104DB8001A70204B00221A701F4B42F210721A8090
:104DC8001E4B00221A801E4B00221A601D4B002227
:104DD8001A801D4B00221A601C4B00221A601C4BC3
:104DE80000221A601B4B00221A601B4B00221A700B
:104DF8001A4B00221A701A4B00221A70194B1B68A2
:104E080000225A630021174806F0E0FA0346002BF7
:104E180004D0074B05221A70002307E0114B1B68CA
:104E280000225A630C4B01221A700123184680BDD8
:104E38002106002022060020240600202606002045
:104E48002C060020300600203406002038060020FA
:104E58003C060020440600204006002041060020B1
:104E6800420600202C11002080B500AF0020FFF77B
:104E7800CDFE034683F00103DBB2002B06D0104BB6
:104E880005221A700F4B00221A7017E00E4B0022F1
:104E98001A800C4B00221A70094B00221A700B4B17
:104EA80000221A600A4B00221A800A4B00221A605C
:104EB800094B00221A70094B00221A7080BD00BFEE
:104EC8002106002022060020260600202C060020AD
:104ED800300600203406002041060020420600204B
:104EE80080B5A4B000AF0346FB8042F21070FFF714
:104EF8008DFE034683F00103DBB2002B0AD00020AD
:104F0800FFF784FE244B05221A70244B00221A70E6
:104F180000233CE000F0D0FF07F10C03184601F035
:104F2800EBFA0346002B03D0BB691D4A136002E06D
:104F38001B4B00221A601B4B42F210721A80174B4F
:104F480001221A7003F0D8FC0346174A1360124B6B
:104F580001221A7003F0D0FC0346144A1360144B64
:104F680000221A60134B00221A80134B00221A6089
:104F7800124B00221A70124B00221A7003F0BCFC6C
:104F88000346104A1360104AFB8813800123184611
:104F98009037BD4680BD00BF2106002022060020B4
:104FA8003806002026060020280600203C0600209F
:104FB8002C06002030060020340600204106002080
:104FC80042060020440600202406002080B582B056
:104FD80000AF0346FB801D4B1B88FA889A4201D11B
:104FE80001232EE0194AFB881380194B1B78012BEB
:104FF80001D1012325E0FB881846FFF707FE034689
:1050080083F00103DBB2002B0AD00020FFF7FEFD7E
:105018000F4B05221A700F4B00221A70002310E064
:105028000D4AFB88138000F047FF0C4B00221A70D2
:1050380003F062FC03460A4A1360054B02221A7009
:10504800012318460837BD4680BD00BF240600204E
:105058002106002022060020260600204106002006
:105068004406002080B5A2B000AF804B1B7883F0C7
:105078000103DBB2002B40F0ED807D4B1B78012B48
:105088002BD103F039FC02467A4B1B68D31AB3F5CF
:10509800FA6FC0F0E180784B1B881846FFF7B6FD21
:1050A800034683F00103DBB2002B09D00020FFF791
:1050B800ADFD6F4B05221A70704B00221A70D2E0BA
:1050C8006D4B1A886E4B1A80694B04221A7003F0D4
:1050D80013FC03466B4A1360BEE0684B1B7883F0F1
:1050E8000103DBB2002B40F0B980654B1B88002B15
:1050F80000F0B68003F000FCC7F884003B46184671
:1051080001F0FAF90346002B5AD03B78012B57D10E
:10511800FA685D4B1B689A421BD07B685B4A136038
:105128007B681846FFF7D4FD03461A46584B1A8089
:10513800584AD7F884301360FB68534A1360564BBB
:1051480001221A70554B01221A70494B02221A701B
:1051580088E0524B1B78002B14D04E4B1B68D7F8B5
:105168008420D31AB3F57A7F0CD3414B03221A70EB
:10517800464B00221A60464B00221A80464B0022FA
:105188001A706FE0454B1B7883F00103DBB2002BEC
:1051980068D0D7F88400FFF7EFFD034683F00103DA
:1051A800DBB2002B5ED0324B03221A70374B002241
:1051B8001A60374B00221A80374B00221A7051E0D0
:1051C800354B00221A70354B1B78002B14D0314B0D
:1051D8001B68D7F88420D31AB3F57A7F0CD3244BF5
:1051E80003221A70294B00221A60294B00221A80C8
:1051F800294B00221A7036E0284B1B7883F00103F4
:10520800DBB2002B16D0D7F88400FFF7B5FD0346B4
:1052180083F00103DBB2002B0CD0154B03221A706C
:105228001A4B00221A601A4B00221A801A4B0022CD
:105238001A7018E0124B1B88002B14D0FFF788FD5A
:10524800034683F00103DBB2002B0CD0084B042289
:105258001A7008E000BF06E000BF04E000BF02E0EB
:1052680000BF00E000BF8837BD4680BD4006002073
:1052780021060020280600202406002022060020FF
:105288002606002044060020380600202C060020B0
:105298003006002034060020410600204206002087
:1052A80080B5A4B000AF03460A46FB711346BB8025
:1052B800404B1B7883F00103DBB2002B01D00023A5
:1052C80074E0FB7983F00103DBB2002B08D0BB88C4
:1052D800002B01D0002369E0FFF7C6FD012365E03C
:1052E800BB88002B45D1344B1B7883F00103DBB21C
:1052F800002B10D000F0E0FD07F10C03184601F078
:10530800FBF80346002B03D0BB692C4A136002E06C
:105318002A4B00221A600020FFF778FC034683F02E
:105328000103DBB2002B07D0254B05221A70224B54
:1053380000221A70002339E0224B00221A801E4BEB
:1053480001221A701E4B00221A701F4B00221A806D
:105358001E4B00221A601E4B00221A801D4B002291
:105368001A601D4B00221A701C4B00221A70012370
:105378001CE0BB88B3F57A7F04D3BB8842F2107275
:10538800934201D9002311E00B4B1B7883F00103F2
:10539800DBB2002B05D0BB881846FFF7A1FD0346FA
:1053A80004E0BB881846FFF711FE034618469037FD
:1053B800BD4680BD40060020220600203806002099
:1053C8002106002026060020240600202C060020A6
:1053D8003006002034060020410600204206002046
:1053E80080B584B000AF78607B68002B01D10023C2
:1053F80042E0234B1A787B681A70224B1A787B6834
:105408005A70214B1A887B685A80204B1A887B680F
:105418009A807B6842F21072DA801D4B1A687B68AA
:105428009A601C4B1A887B689A811B4B1B78002B4F
:1054380001D0012200E000227B681A74104B1B780F
:10544800002B0AD0154B1B68002B06D003F054FA2A
:105458000246124B1B68D31A01E04FF6FF73FB603C
:10546800FB68B3F5803F02D2FB689AB201E04FF6C1
:10547800FF727B68DA81012318461037BD4680BD6C
:1054880021060020220600202406002026060020EF
:105498002C0600203006002041060020340600209B
:1054A80080B500AF184B00221A70184B00221A70F2
:1054B800174B00221A60174B00221A60164B002265
:1054C8001A6016494FF000024FF00003C1E90023AB
:1054D800134B00221A604FF480621249124807F0F9
:1054E80089FA0346002B01D000230BE00F4805F092
:1054F800ABFE0346002B04D00B4807F08BFB0023C0
:1055080000E00123184680BD480E0020490E002007
:105518004C0E0020500E0020540E0020580E002083
:10552800600E0020480600205C0500209C1000202A
:105538002DE9B00F85B000AF344B1B687B60344B4E
:105548001B687A689A425BD0324B1B78DBB2002B1F
:1055580027D0304B00221A700023FB601AE0FB684A
:1055680001332D4A32F813309BB200221C461546EF
:105578002A4BD3E9002314EB020A45EB030B274B14
:10558800C3E900AB264B1B680133254A1360FB684F
:105598000233FB60FB68B3F5007FE0D31C4A7B68ED
:1055A8001360204B1B78DBB2002B2AD01D4B002246
:1055B8001A704FF40073BB601AE0BB680133164AD7
:1055C80032F813309BB2002218461146134BD3E928
:1055D800002310EB020841EB0309104BC3E90089D3
:1055E8000F4B1B6801330E4A1360BB680233BB6064
:1055F800BB68B3F5806FE0D3054A7B68136000E0B1
:1056080000BF1437BD46BDE8B00F7047500E0020EC
:10561800540E0020480E002048060020580E002096
:10562800600E0020490E00202DE9B04F82B000AF77
:10563800786039607B68002B02D03B68002B01D171
:10564800002331E01B4B1B68002B01D100232BE00A
:10565800184B1B685B0800221C461546164BD3E9FD
:10566800002314EB020845EB0309124B1B680022C8
:105678009A46934652465B4640464946FAF7D0FD5D
:1056880002460B4692B27B681A800A4B1A683B683E
:105698001A6009494FF000024FF00003C1E90023E6
:1056A800044B00221A60012318460837BD46BDE89E
:1056B800B08F00BF600E0020580E002080B485B067
:1056C80000AFF860B9607A60FB68002B05D0BB6852
:1056D800002B02D07B68002B01D100230BE0FB6874
:1056E800084A1A60BB684FF480621A60064B1A6851
:1056F8007B681A60012318461437BD465DF8047BA1
:10570800704700BF48060020500E002080B400AF4C
:10571800034B1B681846BD465DF8047B704700BF05
:105728004C0E002080B483B000AF78607B681B68A3
:105738000B4A93420DD10B4B1B78DBB2002B04D0E4
:10574800094B1B680133084A1360064B01221A7083
:1057580000E000BF0C37BD465DF8047B704700BF12
:1057680000200140480E00204C0E002080B483B079
:1057780000AF78607B681B680D4A934212D10D4BCD
:105788001B78DBB2002B04D00B4B1B6801330A4A91
:105798001360084B01221A70084B1B680133074A33
:1057A800136000E000BF0C37BD465DF8047B70470E
:1057B80000200140490E00204C0E0020500E002011
:1057C80080B400AF1E494FF000024FF00003C1E95A
:1057D80000231C4B00221A601B494FF000024FF0B7
:1057E8000003C1E90023194B00221A60184B40F648
:1057F800FF721A80174B00221A80174B00221A607A
:10580800164B00221A60164B00221A60154B002214
:105818001A60154B00221A60144B00221A60144BB0
:1058280000221A60134B00221A60134B00221A60E0
:10583800124B00221A6000BFBD465DF8047B70471A
:10584800600F0020680F0020700F0020780F0020E4
:105858007C0F00207E0F0020800F0020840F002086
:10586800880F00208C0F0020900F0020940F00203C
:10587800980F00209C0F0020A00F0020A40F0020EC
:105888002DE9B00383B000AF0346FB80FB880022FC
:105898001C4615460A4BD3E9002314EB020845EBD6
:1058A8000309074BC3E90089064B1B680133054A06
:1058B800136000BF0C37BD46BDE8B003704700BF9A
:1058C800600F0020680F00202DE9B00383B000AFFF
:1058D8000346FB800B467B7113463B71FB88002215
:1058E8001C4615463D4BD3E9002314EB020845EB53
:1058F80003093A4BC3E90089394B1B680133384A1D
:105908001360384B1B88FA889A4202D2354AFB88C2
:105918001380354B1B88FA889A4202D9324AFB8891
:105928001380324B1B88FA889A4217D3304B1B6876
:1059380001332F4A13602F4B1B6801332D4A136024
:105948002C4B1A682C4B1B689A4203D9294B1B68AD
:10595800294A1360294B00221A6002E0254B0022D5
:105968001A60274B1B88FA889A4217D8254B1B6860
:105978000133244A1360214B1B6801331F4A13600B
:105988001E4B1A68204B1B689A4203D91B4B1B6895
:105998001D4A1360174B00221A6002E0174B0022C1
:1059A8001A607B79002B07D13B79012B04D1174B67
:1059B8001B680133154A13607B79002B07D13B79AB
:1059C800022B04D1124B1B680133114A136000BF2C
:1059D8000C37BD46BDE8B003704700BF700F00200C
:1059E800780F00207C0F00207E0F0020560F00202B
:1059F800800F0020880F00208C0F0020900F0020BF
:105A0800540F0020840F0020940F0020A00F0020C6
:105A1800A40F00202DE9F04F8DB000AF9B4B1B6801
:105A2800002B1ED0994B1B685B08002218461146B4
:105A3800974BD3E9002386183E6241EB03037B6250
:105A4800924B1B680022BB61FA61D7E90623D7E9AC
:105A58000801FAF7E5FB02460B4693B28D4A138616
:105A680002E08C4A002313868B4B1A688B4B1B6809
:105A78009A4208D3884B1B689AB2884B1B689BB222
:105A8800D31A9BB200E00023824A5386844B1B68DA
:105A9800002B20D0824B1B685B080022BB62FA6295
:105AA800804BD3E90023B96A89183961F96A43EB55
:105AB800010179617A4B1B680022BB60FA60D7E963
:105AC8000223D7E90401FAF7ABFB02460B4692B270
